:020000040000FA
:2000000000500020E9000000E1000000C9000000E5000000E5000000E5000000000000002E
:20002000000000000000000000000000E5000000E500000000000000E5000000E50000002C
:20004000351B0000E5000000B5230000E50000006D1200000D180000E5000000E500000040
:20006000E500000009240000E5000000E5000000E5000000E5000000E5000000E500000010
:20008000E5000000E5000000E5000000E5000000E5000000E5000000E5000000E500000038
:2000A000E5000000E5000000E5000000E5000000E5000000E5000000E5000000E500000018
:2000C000E500000051260000044B1A68B2F5806F03D01B689B0500D4FEE7704728ED00E002
:2000E000FEE700BFFEE700BF08B506F0E9FC104A104B9A420DD2D0430F4918440B4620F088
:2001000003000430084453F8041B834242F8041BF9D10A480A494FF000028842B8BF40F8AB
:20012000042BFADB04F046F8FFF7CEFF08BD00BF0000002096080020F006010098080020AD
:2001400049390020F0B5002706463C463D4683B0304604F0EBFF0195019B9C4206DD00BFA7
:20016000019B01330193019B9C42F8DC304605F001F80195019BC4F5C874A34206DA00BFBE
:20018000019B01330193019BA342F8DB0137B7F5487F06D0B7F5C87FCCBFC7F548743C46AE
:2001A000D6E703B0F0BD00BF38B5194D194C2B6820465B68012198472B6801210A461B6866
:2001C0002046984706F0AEFE01F00AFD01F08CFC00F0C8F805F020F804F0F0FF0120FFF710
:2001E000B1FF0D490D4A0E4809680123136003600B691020A2F5FF521268984706F096FE72
:2002000000F0A6FFBDE838400020FFF79BBF00BFD801001000400340B00100100C4009403B
:200220000800094008B541F2342002F027F901F0B9FA04F0E7FE0548082101F04FF904F0F7
:200240002BFEBDE808400220FFF77CBF3830002070B584B0002302A808212E4C00930193BD
:2002600001F03CF99DF80F309DF80E60E56A43EA062648F666010220A84731460320A8479A
:2002800019210120A847636B02A90822224D0B209847A46A01206946A0472B68022B1ADC7D
:2002A000022001A9A04758B92B68022B04DC0020FFF748FF04B070BD1848019907F0D4FED9
:2002C0002B68022BF3DD164807F0CEFE0020FFF739FF04B070BD1349134A144807F0C4FE70
:2002E0001349D622134807F0BFFE134807F0BCFE2B68022BD4DD0B490B4A0C4807F0B4FE78
:200300000B49DC220B4807F0AFFE00990B4807F0ABFEC5E780F20000A006002010F2000022
:20032000B00301008CF1000094F100007CF10000B0F10000A4F10000E8F1000000F2000099
:2003400001F098BA10B5064C042023685B699847236804205B6B98470128F9D110BD00BF1E
:20036000B8010010F0B593B006F0DCFD0746FFF7E9FF194B4FF4A0601B68DB699847174B23
:200380000121174A196013689907FCD5002006F0EBF9144801F09CFB442201A812490EF02F
:2003A00093FC019C621C0FD0104E01AD336820469B6B9847336820469B694FF4005198474A
:2003C00055F8044F631CF1D10FB113B0F0BD13B0BDE8F04006F0AABDB8010010282008609E
:2003E000282008402804002024F20000B40100100120704708B501F099FC30B1034B58881C
:20040000A0F10200B0FA80F0400908BDE804002008B501F08BFC30B1044B5B88022B0CBFD5
:200420000120022008BD022008BD00BFE804002030B583B001F0E4FE044601F077FC08B9A8
:2004400003B030BD0E4801A901F078FC0128F7D100F07CFE638803F44063002BF0D16FF06C
:200460003F052D1A06E000F08DFF638803F44063002BE5D100F06AFEE842F4D4E0E700BF59
:200480000100010470B582B001F050FC234C10BB00256580E37B214E23F01003E373E37BD7
:2004A000304643F02003E373E37B01A943F04003E373E37B63F07F03E373A37F5BB2C3F5D6
:2004C000FF6307339BB2238301F038FC012809D0284602B070BD6388022B08BF0120D7D171
:2004E00002B070BD00F032FE73889BB2022B0DD06FF03F052D1A05E000F044FF63889BB271
:20050000022B03D000F022FEE842F5D4608880B2A0F10200B0FA80F04009E1E7E8040020F4
:2005200008B50346B32994BF0A46B422024819460EF0CAFB002008BD620F002070B50E4DFE
:200540000E4E2C68002006E02379022B06D024682B68A3420ED02379032BF5D133780120C8
:20056000002BF4D1064804F00DFB24682B680120A342F0D170BD00BF140D0020ED2F0020F2
:200580000C06002038B50D4A0024136819681C725C721C71116002F097F80546BFF35F8FFF
:2005A000074B1A7812B11C70FFF76CFFBFF35F8F2846BDE8384002F08FB800BF1C0D00203B
:2005C000EC2F00202DE9F0432E4B83B080460F461D6800F0BBFD2C4E361A03E000F0B6FD53
:2005E000C6420AD52C79022CF8D0284B0020032C187008D003B0BDE8F0832C79234B002059
:20060000032C1870F6D1B5F80890B9F1060F27DDA9F10606BE4223DC0A3540462946324603
:200620000EF052FBDFF87480AA5DAB1988F800205B79A9F10501164F0422294401A83B7079
:200640000EF042FB019801F065FE124B124A1B7810605BB1FFF796FF304603B0BDE8F083DE
:20066000FFF790FF002003B0BDE8F08398F80010042049B289B205F09BFA3978204605F07A
:2006800097FAE7E71C0D0020E2FAFFFFEA2F0020EE2F0020ED2F00206010002093080020DB
:2006A0000C2801D001207047042A01D0022070470029FBD0024B00201B680B60704700BFC0
:2006C0006010002070B582B001F030FB002837D01D4C6388022B33D11C4E00F037FD7388DA
:2006E000022B0BD11A4D2D1A04E000F04BFE7388022B03D100F02AFDE842F6D401A9154818
:2007000001F01CFB00F022FD6FF03F052D1A08E06388022B09D100F019FDC54205D500F027
:2007200031FE01F003FB0028F2D16088A0F55050043880B201288CBF0020012002B070BD91
:20074000012002B070BD00BFE80400205805002000FEFFFF0100010410B5114B114C1A684F
:200760000A21237E84F82410928882B003F0F80343F00803204601A96283237601F0DEFA2E
:20078000012802D0002002B010BD204601F028FBA0F10100B0FA80F0400902B010BD00BF12
:2007A000F40500203005002000B583B00A4801A901F0C4FA012803D0002003B05DF804FB15
:2007C000054801F00DFBA0F10100B0FA80F0400903B05DF804FB00BF1805002008B5FFF728
:2007E000BBFF012801D0002008BDFFF7DDFF0128F9D1FFF747FEC0B208BD00BF08B501F0BC
:2008000031FE012814D0FFF75DFF01F0E3FB01F045FA002210460749074B4A8003F51071EE
:200820001A799033022A08BF03F88C0C8B42F7D1012008BDE8040020200D00202DE9F84FAB
:2008400001F010FE012818D001F070FA88B901F0F3F901F06BFA0446002840F08E8001F018
:20086000D7FA012805460BD001F0B4FB0020BDE8F88F574B5B88022BE9D10120BDE8F88FB3
:2008800001F022FC53494FF4237253480EF01CFADFF88CB15148DFF88C91DFF88CC1504FC2
:2008A000504E5149514B524A04704FF0020A8BF800504FF003084FF0040E052406204D4DB2
:2008C00089F800A08CF8008087F800E0347008701A602B684749002BFBD00020464A474BA3
:2008E000DFF84881086052F81CCC52F818EC52F8146C52F8105C52F80C4C52F8207C12E96D
:200900000300203343F8207C43F81CCC43F818EC43F8146C43F8105C43F80C4C43F8080C04
:2009200043F8041C434502F12002DCD1344B354ADFF8FCC0DFF8FCE0334934482D4C344FDA
:20094000344E00251862C3F824C00120C3F828E0DF621E632560116006F01CF82E4805F0C6
:200960007DFF224613682349002BFBD000230B6001F0B4FA01287FF477AF01F0D3FB274899
:20098000002103460E46022588245A791E7102F0FC0265F383025A71DC8090334350903159
:2009A000B1F5107F1D4AF0D1C2F8B02101F05CF9FFF7D2FE012802D00020BDE8F88FFFF706
:2009C000F3FE0128F8D1BDE8F84FFFF75BBD00BFE80400207CF900001C0400219003002105
:2009E000AE030021AB03002181030021C0030021BD0500211C100440E8F2000000C00021BF
:200A000080C600210010044001010E046039536311161216546B007030050020200D002098
:200A2000790300217503002177030021A0C600212010101A136F236E70B582B0072800F279
:200A4000AC80DFE800F0212AAAAA5E6B70045E4B197001F06BF900285DD05C4B5B88022B44
:200A600059D1FFF72FFE01280CBF0024032401F04DFB012800F0A080FFF7B0FE01280CBFE0
:200A80002046032002B070BD012900F08E80002900F08580022002B070BD2029FAD84C4CF4
:200AA0004FF47A72208AE38902FB03F302FB00F2A3F5D32302F57F42FF32A3F55A734548A6
:200AC00003EB2243A0FB0323CAB2C3F387139A4221D0C82303FB01F13F4801F5D32303F523
:200AE0005A73A0FB03213D4A890902FB01331B04A0FB03233A488AB29B092382E281028450
:200B0000A7E731F00403C5D1364BC1F380011A7819708A429DD1002002B070BD31F001035A
:200B2000B8D1C8B2AEE74FF6FF742F4DAE88A64208BFFF2309D02A460023083290880133F0
:200B4000A042DBB2F9D1013BDBB255F83330264C99429FDB236899429CDC0191FFF768FC52
:200B60004FF6FF739E4201992CD022461C460023083290880133A042DBB2F9D1013BDBB2D3
:200B800055F8332005EBC300914203F1FF3316DD5A1CF5D1FFF722FEBDE7012072E7019114
:200BA000FFF72CFE019908466CE7FFF747FE012814BF0320002065E701F044FB5CE70B4B4B
:200BC0001860E7E70023D9E792080020E8040020180500201F85EB51D34D621018FCFFFF65
:200BE00030050020ED2F002008FC0000F405002099B1F0B50C4683B0172800F2B980DFE8A2
:200C000000F05E9DB7B7950E8B58297886B7B7B70E7E126BB78274700E91022070470020EB
:200C2000086003B0F0BD4FF6FF705B4DAB88834208BFFF2309D02A460023083291880133BC
:200C40008142DBB2F9D1013BDBB255F8333000202360E6E701F06AF8002840F08D80FFF7E3
:200C6000EDFD012840F0938007460A2580266B1E13F0FF054FF000014FF004020FD001A85F
:200C80000EF0FCF840F2034301A86946ADF8043001F054F818B19DF802607306E7D0002F5D
:200CA00072D176B216F1800F26600CBF03200020B7E73A4B002093F900300B60B1E701F0AC
:200CC00035F830B1364B5888A0F10200B0FA80F0400920600020A4E72F4B00201B680B60FC
:200CE0009FE73E230B6000209BE7A0230B60002097E72C4B00201B785BB20B6091E72023D7
:200D00000B6000208DE706230B60002089E7264B00201B780B6084E7244B00201B681B6821
:200D20000B607EE718230B6000207AE70020204B08601B78F3B104230B6072E71D494FF4FE
:200D40007A72CB89098A02FB03F302FB01F2A3F5D32302F57F42FF32A3F55A73164903EBB4
:200D60002243A1FB0323C3F387132360002058E7012056E7184654E7094B5B88022B08BFF8
:200D800000273FF472AF6AE7FFF738FD89E76FF07F032360032044E708FC0000920800207C
:200DA000E804002093080020EE2F0020F4050020ED2F0020180500201F85EB5170B582B066
:200DC000044600F0B3FF28B3244B5B88022B08BF00251FD12249221DA31C224C92B29BB289
:200DE000100A2382E16148700A70FFF76BFC002001F0D8F9204601A900F0A0FF88B901267A
:200E000001F0EEF900236380FFF73CFBE5B9304602B070BDFFF712FD01281AD0012002B0E9
:200E200070BD00F0AFFA104E317800E099B163880C4A03F44063002BF8D0508880B2B0F53E
:200E4000505618BF0126DBE7FFF7D8FC304602B070BD0546BEE700F003FDE5E7E804002055
:200E6000600F002058050020ED2F002010B50C46B32C014694BF2246B42204480DF024FFF0
:200E80002046BDE81040FFF799BF00BF620F002030B583B001F0E6FA01281BD000F046FF27
:200EA000D0B1154B5B88022B1FD000258024134801A900F043FF012803D19DF80640630611
:200EC000F5D07DB90E4B64B293F90000A042D4BF0020012003B030BDFFF7B0FC012806D124
:200EE0000546E3E7FFF78AFCECE70120F2E7FFF785FC0120EEE700BF5805002001000304E3
:200F00009208002010B500F011FF80B10F4B5B88022B0BD10E4C237853B90E4B1B689B065D
:200F200001D5012323702078C0B210BD002010BDFFF7AEFFB0FA80F0400920702378002B04
:200F4000F1D1044B6FF020021A60ECE7E8040020EA2F002008100440F8B51D4800F0B8FD5A
:200F600006F00CFB012802D000242046F8BD194C002120464FF410720DF080FF164F174B46
:200F800017481849DFF874E0174E4FF4DB720025CEF8004083E830008362C7620D82CA81C3
:200FA0003284FFF74BFC01280446DDD10F4B104A1D6013680F4843F02003136001F026F941
:200FC00001F02AF929460C4803F0BCFDCDE700BFE0050020200D0020080D0020140D002053
:200FE000E80400201805002030050020081004400C100440B8F200000C0600201C0D002072
:2010000010B5064C042023685B699847236804205B6B98470128F9D110BD00BFB8010010CB
:20102000F8B51A4A00200021C2E90001184B04201B685B6B9847012801D0FFF7E1FF144BD4
:2010400000201B68DB699847124B0121124A196013689B07FCD5114A11491368096823F4D0
:20106000807323F001030F4C13600B6820460E49984740F221200D4D0D490E4B042731268B
:20108000012227602E6008601A60F8BD98080020B801001028200860282008400C0001406B
:2010A000C801001000000140002100043C000140080001400400244310B40949094C0B68E2
:2010C000226808688342FAD1DB01074903EB52620023C1E900235DF8044BD1E900017047B2
:2010E000082009400C2009409808002010B50B490B4C0B68226808688342FAD1DB010949AF
:2011000003EB52620023C1E9002303F0B5FA00B910BDBDE8104003F08FBA00BF08200940B4
:201120000C2009409808002010B505F0FBFE034B1C6808B905F0FAFE204610BD08200940A3
:20114000704700BF0146012000F052B805F018BB2DE9F04105F0E6FE1D4E1E4B1E4F3268F4
:201160000124002580464FF480314FF480703D601C60186019601368284623219847336887
:2011800020461B6824219847336802201B6825219847124A1249136843F4E02313600D6091
:2011A00005F0EEFA0F4B1049104A1B6800F50070086014603C601B6914209847B8F1000F96
:2011C00001D0BDE8F081BDE8F04105F0AFBE00BF840100100420094000002443002009405F
:2011E00008200940B00100101C200940A0022443431E012B10B41BD9042802D05DF8044B48
:20120000704700231A4610F004001CBF0E4C216013B10E4B0121196012B10D4B01221A606A
:201220000028EBD00B4B01221A605DF8044B704710F0010302D0084A0123116010F00202BC
:20124000E1D0064C2160DEE72020094080022443A0022443C0022443182009401C2009409B
:20126000014B1868704700BF1810002008B5FFF76DFF184B1860FFF739FF174B1B686BB9B3
:20128000164B1B68E3B9164B1B6833B11549164B00204FF4803208601A6008BD124B4FF4EB
:2012A00080721A6005F06CFA00F205200F4B20F4FF7020F001001860084B1B68002BE2D037
:2012C0000B49094B0020012208601A6003F068FCD9E700BF18100020A00024438000244335
:2012E000C0002443C0022443042009401C20094080022443820702D5034B01221A60C307AE
:2013000000D4704705F012BE000C084008B505F009FE074B1A68012A03BF064902221960C3
:201320000022002814BF104642F0010008BD00BF000C084051E5CC1A03490448044B012209
:2013400008601A60704700BF00000840FFFF0F00000C084038B5FFF7D9FF064C064D0749DC
:20136000074A012325600B601360BDE83840FFF7C1BF00BF00000840FFFF0F000C0008409A
:201380000401004303490448044B012208601A60704700BF00000840FFFF0F000C000840FA
:2013A00008B5064803F042FF30B1054B0121054A196013689B06FCD508BD00BF1C10002016
:2013C000000222431410094070B5054605F0AAFD0B4C294606460B4803F02AFFFFF7E0FFD7
:2013E000236868681B689847236868689B6898471128F9D106B170BDBDE8704005F096BD6F
:20140000A00100101C10002038B5044648B9134803F00CFF28B1234605C813430028FBD1E5
:201420009BB90F490F480B680F4D104C0068002223F4C0530B602A602260C3680120984728
:201440000B4A13689B06FCD438BD054A136823F4C05343F40063136038BD00BF1C10002055
:2014600004100940A001001080012243000222431410094038B5054605F054FD044629466D
:20148000054803F019FF0020FFF7BEFF04B138BDBDE8384005F04ABD1C10002070B50446A3
:2014A000B0B10078C0B1A9B10025661804E014F8010F38B1B44205D000F088F9631C05F14B
:2014C0000105F4D100F096F90128FBD0284670BD0546F7E70D46F5E70546F3E710B40B4B9C
:2014E0000B4C13F8012FFF2A0ED1A342F9D1094A39B11144013801390B78914200F8013F10
:20150000F9D15DF8044B7047034AF1E7C7FF0100CFFF0100F0120050C8FF010080280BD04E
:20152000812806D141B9084A084B1160084619607047064B186870470349044A0123032034
:2015400008601846136070470050094020100020813801289ABF024B18680020704700BF14
:2015600020100020064B1B6833B1012806D002280ABF044B00231B681846704705F0F2BAC6
:20158000201000202850094038B50C4D02202B685B6998472B6802205B6B984701280446CF
:2015A000064BF7D11B684FF40070DB699847044B044A1C6013689B07FCD538BDB8010010F4
:2015C00028200860282008402DE9F04340F2F275DFF8DC8083B0FFF7D7FFD8F800302A4E3F
:2015E000DB682A4898473368294C5B69152098472368DFF8C090274F23F4FE63D9F80020DE
:2016000023F0020323603D60D36B032098472249D9F800300820122208600092D3F840C0C5
:201620001A48022103221323E047D8F800301748D3F804C019494FF4E1326023E04740F221
:20164000011240F2013E1649164B142008601968154841F01001196003681449002B0CBF53
:20166000134673460B603D60036853B12368326843F0500323601369152003B0BDE8F04377
:20168000184703B0BDE8F083B001001000100040381000404410004090200240006CDC02B7
:2016A000341000402C1000402410002030100040D0010010B401001008B5064B02201B68FD
:2016C0005B6B9847012803BF034B186800F00100002008BDB80100106C20084038B5044602
:2016E000FFF7EAFF18B1254A13681907FCD4032C03D0234B1B6803B138BDFFF7DDFFE0B961
:20170000204D4FF400702B681B6A9847032C2AD01D4B01211D4A196013689B07FCD503200E
:2017200000F0F2F9022000F0EFF9132000F0ECF9BDE83840122000F0E7B9154B15481B68AD
:20174000DB689847144B15201B685B69984740F2F270124A1249136823F4FE6323F0020357
:2017600013600860CCE72B684FF400709B6A98472B684FF400701B6B9847C9E718100040EE
:2017800024100020B80100102820086028200840D001001000100040B00100103810004072
:2017A0004410004010B505F0BDFB0446054800F08FF9054B00221A6004B110BDBDE81040B1
:2017C00005F0B4BBF80500202410002010B50446FFF772FF08B9FFF7F7FE044B2146BDE8B7
:2017E00010401B680248DB69184700BFD00100100010004008B5FFF75FFF18B1024B186892
:20180000C0F3C00008BD00BF1810004038B5FFF7BBFE40F2F2710C4B0C4A1B68116013F094
:20182000500F10D00A4C0B4D05E02B681B699847094B1B6823B923680848DB06F5D538BDB2
:20184000C0B29847F7E738BD401000404410004018100040D0010010241000200010004053
:20186000034A136823F00403136030BF704700BF10ED00E070B505F055FB03F02DF918B185
:20188000BDE8704005F052BB814803F0CFFC0225044648B1636823B19847A84228BF284643
:2018A000C5B22468002CF5D1FFF750FC794B04461B68002B40F08B8002F0DEFE002840F0D4
:2018C0009280012D014600F0D680022DD8D1002840F0C3802846611EFFF78AFC6C4803F0B8
:2018E000A5FC06250446002800F0B080A368022003B198472369246825EA0305002CF5D1A9
:20190000FFF740FD6B0705F0060400F1A280002C40F0A78000F0C2F90020FFF775FD5E49B3
:201920005E4A0B685E4823F003030B601368016843F00F0313608B6939209847594A5A4954
:2019400000231360184613600B6005F023F9062C00F08D80554C564D564E2B6823683268D5
:2019600023F00303236053685348032198474C4B1B689B6B98472B6805F064FA4F4A336859
:20198000002111604C485B680121984723684C4A012143F00303236011602B6805F084FAE7
:2019A000FFF7FEFCFFF7A2FBFFF7ECFC384803F03DFC044628B1E36803B198472468002C61
:2019C000F9D105F0B3FABDE8704005F0AFBA3D4B1B681B1A022B34D4A3F28F23002BBFF64C
:2019E0006BAF01232EE002F04FFE0646FFF764FB361A002E7FF744AFFFF732FC324B00EB48
:201A000046211B1BCB423CD4012085427FF45DAF6FF007031B1BCB4230D404F58034631ACB
:201A200031EA230128BF21460220FFF7E1FB274A136823F00403136030BFBDE8704005F073
:201A400075BA00239D4228BF1D4635E7FFF79AFC06241B4B00221A6059E72846FFF7C8FBD0
:201A60003CE70F4B20461B689B69984752E7022005F060FA6EE704F58031D5E704F10801BA
:201A8000D2E7022DC4D0012D7FF4FAAEC0E700BF2810002080022443001009400810094020
:201AA000B80100104010094020042243242208402C200940D80100100040034080010443E4
:201AC0000C4009401820094071FDFFFF10ED00E00146014803F0ACBB2810002001460148D5
:201AE00003F0EABB2810002010B5054803F09AFBBDE81040034B03201B6820211B68184750
:201B00002810002084010010421C0ED010B50446064B4FF4C0421B6800211B689847044AA3
:201B2000A3001A430023136010BD7047B4010010001A4442024B1868186003F059BB00BF1B
:201B4000E020024070B51B4B0C461B6805465B68984714F00C0320F0E06222F4EC2207D096
:201B6000042B20D0082B21D00C2B08BF42F4403214F003030DD142F4C04223060D4B28466D
:201B8000BDE870401B6848BF42F480221B6800211847022B04D0012B08BF42F48042ECE7CC
:201BA00042F40052E9E742F40032E1E742F48032DEE700BFB4010010064B1B68C340DB07B3
:201BC0004CBF054B054B1B6823FA00F000F00100704700BFD020024080200240C02002402D
:201BE00010B584B00022412302A802920393FFF7EBFB042004F006FE032813D00420032144
:201C000004F0D0FD042004F0FDFD03280346F9D1074A084812680093546800214FF0405257
:201C20001C23A04702A8FFF725FC04B010BD00BFA401001000A00C4000B583B0002241236E
:201C400068468DE80C00FFF7BFFB012004F0DAFD012803D00320012104F0A4FD6846FFF73F
:201C600009FC03B05DF804FB00B583B00022412368468DE80C00FFF7A7FB012004F0C2FD4F
:201C8000012803D0044B986B04F0D2FD6846FFF7F1FB03B05DF804FB4800001010B582B04D
:201CA00041236846002401930094FFF78DFB0320214604F077FD012004F0A4FD18B1044B88
:201CC000986B04F0B5FD6846FFF7D4FB02B010BD4800001070B5038804465BB140F2BB22FC
:201CE000934203D182290AD0012070BD00230380032070BD40F2BB232380012070BD094B1D
:201D0000094E1D69FFF73EFB03F0FCFE03F0B4FE8021A847002880B2ECDD03F0A7FEF3687F
:201D20009847EFE780F20000AC010100024B186800F00100704700BF9C21084010F003038F
:201D400070B506460D4602D1028811051FD405F0E9F81F4B00301B6818BF0120DB0720D597
:201D60001C4B1D4C1E6023684CF250322B6003E02368013A2B6014D013F0FF0FF8D018B383
:201D80002878A0F10100B0FA80F0400970BD438005F0C8F80E4B00301B6818BF0120DA0724
:201DA00002D468B1002070BD338813F4405FD7D003F44063B3F5006F04BF084B1E60CFE7E4
:201DC00005F0B4F8002070BD05F0B0F8D8E700BF9C210840001004400410044050100020C9
:201DE0000A4A01E0013A0ED0438803F44063B3F5806FF7D1428802F44062A2F58060B0FA4E
:201E000080F0400970471046704700BF20A1070030B583B005F086F8254C054623681920B3
:201E20001B6A9847236812201B6A9847236819205B699847236812205B690834984723688F
:201E400001205B699847236801205B6B98470128F9D11849184B194A0860186013689B0756
:201E6000FCD5134C164817492268002303600B60136919209847236812201B699847A5B1EF
:201E800040F2FF35104B114A11481249002405600C60114801A91A60FFF750FFA0F1010029
:201EA000B0FA80F0400903B030BD05F03FF8E7E7B00100102C200840282008602820084090
:201EC00010100460141004600010044051000706000004601C1004400100060410B586B06A
:201EE0000021142201A80CF0C9FF40F60A0215499DF811300C68012161F3030301A8694660
:201F000005948DF81130ADF80420FFF717FF012802D0002006B010BD0B4801E00138F9D0B9
:201F2000BDF8063003F44063B3F5806FF6D1BDF8060000F44060A0F58060B0FA80F0400997
:201F400006B010BD6410002020A1070000B587B00021142201A80CF091FF40F609029DF854
:201F60001130012161F3030301A869468DF81130ADF80420FFF7E2FE012803D0C0B207B0C2
:201F80005DF804FB104801E00138F8D0BDF8063003F44063B3F5806FF6D1BDF8063003F4EE
:201FA0004063B3F5806F03D0002007B05DF804FB064B1A782AB9064A05990120116018701B
:201FC000DDE70120DBE700BF20A10700EB2F00206410002030B587B004F0A4FF314C05468A
:201FE000236819205B699847236812205B6998472D4B1B68DA071AD52C492D4A00230B60D5
:2020000002A81946136010220CF038FF40F60D029DF81530012161F3030302A801A98DF86B
:202020001530ADF80820FFF789FE01282CD0FFF78DFF2048204B00240121204A046019600A
:2020400013689B07FCD51E4C012023689B699847236801205B6B98470228F9D1114C1920BE
:2020600023681B6A9847236812201B6A9847236819201B699847236812201B6998470DB943
:2020800004F054FF07B030BD0E4A01E0013ACED0BDF80A3003F44063B3F5806FF6D1BDF8A7
:2020A0000A30C4E7B00100109C21084010100460141004602C200840282008602820084095
:2020C000B801001020A1070008B505F07FFA052803460BD003280DD018B101280FD00020FA
:2020E00008BD094B03221A60012008BD064A0120136008BD044B02221A60012008BD024A7A
:202100000521116008BD00BFD021084008B5FFF71DFFFFF7E3FE012802D0FFF75BFF00205A
:2021200008BD00BFF8B5174B174A19781268174B002914BF00241C46D30700D4F8BD04F065
:20214000F1FE0646124A134B1348144F144D00213B60046011602B6819201B6A98472B6817
:2021600012201B6A98472B6819201B6998472B6812201B69984706B1F8BDBDE8F84004F035
:20218000D5BE00BFED2F00209C2108400000C0801010046000004080141004601810046014
:2021A000B0010010084B1B7833B1002002460749074B0A6018607047064B0749074A0028D7
:2021C00014BF18460846F2E7ED2F002010100460141004600800C0800200C0800000C08095
:2021E000044A054B1178054A002918BF00231360704700BFED2F00200000C0801410046059
:20220000014B1868704700BF50100020014B1860704700BF5810002038B5064B064C1D6825
:2022200006484FF43441064A0023256002F0ECFA012038BD043004402C100020301000207E
:20224000B5220000164B1B68DBB170B59B68984708B9002070BD04F065FE124B124C1D688B
:202260000646002115F1804022684FF0000341F10001994208BF904209D325601EB1012067
:2022800070BD0020704704F051FE012070BDFEF75DFF064A06491368086001331360ECE75C
:2022A00058100020043004402C100020541000205C10002070B5134B1B68B3B19B68984766
:2022C000D8B9114D2B6A984701280ED1FFF7BAFF6B6A0446984744B1BDE870400B484FF406
:2022E00034410B4A002302F08FBA08488021084A0023BDE8704002F087BAFFF7A3FF0446E6
:20230000E9E700BF5810002080F2000030100020B5220000F8B5224C2368002B3DD09B681C
:202320000646984700B3FFF78DFF1E4BB6F1404F1F6825D822681C4BB2F90C401968E517B5
:20234000641A65EBE1750022A41945F10005A01845EB0701090241EA106143F609520023F1
:2023600000020CF059F9F8BD104D2B6A9847FFF769FF6B6A98470B4BB6F1404F1F68D9D9B0
:20238000FEF7E4FE0A4B1B68C3F17E4303F57203C34248BF07F1FF37CCE71846F8BD00BFED
:2023A00058100020541000206410002080F200005C10002010B5104B1B68DA0704D4FFF72D
:2023C00027FD012800D010BD0C4C23685B0204D40A4B6FF000421A6010BD094B01220948F6
:2023E0001A7002F0CFFB6FF480032360034B6FF000421A6010BD00BF9C21084010100460B0
:20240000EC2F00200C06002008B5124B1B68D90707D4114805F028FEFFF7FAFC012800D09E
:2024200008BD04F07FFD0D4B1A6812020BD40B4B1A6812F00A0F1CBF6FF00A021A60BDE842
:20244000084004F073BD6FF400021A60044802F099FBECE79C210840B0FC00001010046057
:202460000C060020014B1878704700BFEF2F002008B500F08BF880B208BD00BF00F010B9FB
:2024800038B50C4D04202B685B6998472B6804205B6B984701280446064BF7D11B6840F2FF
:2024A0000140DB699847044B044A1C6013689B07FCD538BDB80100102820086028200840B3
:2024C000034B1B68002B14BF01200220704700BF68100020F8B503880446002B2ED0B3F589
:2024E000847F05D1184B1B788B4205D00120F8BD002303800320F8BD144D2B6873B1144BA0
:20250000144A1B6812685B680220174698470026301847F100012B6898472E600E4B40F20D
:2025200001401B689B6A98470C4B01210C4A196013689B07FCD50B48FFF7D0FA4FF4847370
:2025400023800120F8BD00BF9408002068100020CC01001004800240B801001028200860D3
:20256000282008401C06002008B5064B04201B685B6B9847012803BF034B1868C0F3400083
:20258000002008BDB80100103C20084070B5274B1B689BB1264C0023224612F8011B29B97E
:2025A0000133042BF9D10020014670BD214A002502EBC302E55492E8030070BDFFF7D4FF6C
:2025C00000282FD01C4A1D4B1268134073B91C4A01211346116018680028FCD102464FF4BB
:2025E000807105F04FF8174B01221A6004F09AFC0646114A1368DB07FCD5134B134A1B6812
:2026000014685B680220984723460022141843F1000516B12046294670BD04F087FC2046E4
:20262000294670BDFFF72CFFCCE700BF681000206C100020A0080020088002400100008024
:20264000F09F0240A8025042CC0100100480024038B50E4D00240E4A2C6013680D4923F096
:202660000103096813604B6931209847204622464FF4807105F006F80122074B2A60197809
:202680002246BDE83840054802F030BAA80250420C800240B00100109408002030060020AF
:2026A00010B5074C2378802B00D010BD02F09CF9207000210348BDE8104002F043BA00BFF9
:2026C000940800203006002008B504F02BFC003018BF012008BD00BF80F31088704700BFE3
:2026E000827A044B03EBC2035B68C01AB0FA80F04009704770100020F0B54749837A85B01E
:2027000001EBC303D3E84F2F12F0FF0F09D10124C3E8424F1346BFF35F8F3BB1032005B0C6
:20272000F0BD0123BFF35F8F002BF7D10446827A3A4B01EBC20148601B68C078DB6B384F8B
:202740009847384DA37A3A6805EB0313526958689047A37A3A6805EB03135868536B9847DC
:20276000012806462E4A2F4BF3D1A17A126803EB0113D269986890472B4B2C4A1E601368A0
:202780009B07FCD5A37A03201B01EA582849536923F00F035361A37A1B01EB581862A37A0F
:2027A0000A6826891B01E85817683EB1237A002B2CD0637A002B14BF03260226616808234A
:2027C00032468DE80A001B490023B847A37A134A26781B01E85813686178A27800965E6C3A
:2027E0004FF0FF33B047A37A114E1B01EA58536843F002035360A37A32681B01E85803A932
:20280000136998470028F6D105B0F0BD637A002B14BF01260326D1E770100020B4010010C4
:20282000B801001014FD00002820086028200840C4010010006CDC0270B5214D837A05EBDF
:20284000C3025268904201D0042070BD1D491E4A096802EB031304460A6A986890471B4BC8
:2028600001221A601A4A13689B07FCD5194E607833689B6B9847336860784FF400519B699F
:2028800098473368A0789B6B98473368A0784FF400519B699847336820789B6B98473368E4
:2028A00020789B694FF400519847A37A002005EBC3035860A37ABFF35F8F05F8330070BD44
:2028C00070100020B801001014FD00002820086028200840B40100102DE9F04F344C857AA5
:2028E00085B004EBC5046468A04203D0042005B0BDE8F08F1F462F4BDFF8C4901B6809EBEC
:20290000051504465B6B686890460E469847012803D0052005B0BDE8F08FA37A264909EB3A
:202920000312D26809681142F3D00E9A0F9902EB010AC2455246B8BF4246002A019235D019
:20294000D8BF03AD26DDDFF874A04FF0000B03ADD845CCBF16F80B1000210391DAF80020D0
:202960001B0159F8030053689847A27ADAF800301201DB6859F80200294698470E9B5B45EF
:20298000C4BF039B07F80B30019B0BF1010B9B45A37ADDD1094E00E0A37A32681B0159F832
:2029A00003002946136998470028F5D100209EE770100020B801001078200840C401001099
:2029C00014FD000070B584681CB194F90830002B00DB70BD236A002BFBD01A68002AF8D019
:2029E00007490546097821B11B6A13B19847236A1A682846BDE87040002300F071BE00BFEE
:202A0000F02F00202DE9F047064682B014480F4692469946DDF8288002F008FC044668B16E
:202A2000656845B1CDF800803046394652464B46A847054630B92468002CF1D1002002B001
:202A4000BDE8F087B379012B03D0284602B0BDE8F087002031463A4600F0E6FA2846F5E7C2
:202A60002C1100202DE9F04FA94D07468BB02846884601F04BF9A74E0446C5F8A070307009
:202A8000E8B9AB79013B032B48D96B6823F07F4323F0FF03002B3ED06B79032B00F0588115
:202AA000288900F03DFC40B1C46BD0F8409000F0BDFB14B148469649A04734783CB34FF0E9
:202AC0000009C22C76D0944C484600F0AFFB3278904BC32A73D0BF2A84BFA0221A70022161
:202AE0002B898B4800F09AFF246820460CF034FA21460246864801F053FB4146844800F0AB
:202B00009BFF414682B2384600F058FD347820460BB0BDE8F08FC3233370C1E7288939464B
:202B200000F06AFB8146002800F0EA806B794022069407940894ADF81620002B4DD17748FD
:202B4000022145222B8900F069FFAA7A002A40F09B8007AB00936E4806A900220DF1160363
:202B600001F0E6FA00282ED1089B002B3EDB08A9BDF8163009F1840B00915A4664486749B4
:202B80000393FFF73FFF002836D03478614A002C97D1AB7D18077CD5604B93F90610002944
:202BA00077DB9B7D190774D45B4C5D49A1232160137089E7484600F039FB3478A7E70022B0
:202BC0001A7003218CE7BDF81620079B402A28BF40220893ADF81620C7E700F017FF012148
:202BE000034645224D4800F019FFAEE74A4C4D4A82232260337067E70AA941F8040D444825
:202C000001F084FA0446484802F010FB824678B990E007DD9AF80830DB0603D509990B5C95
:202C20002F2B0CD0DAF800A0BAF1000F00F08280DAF804000CF090F98442EAD1099902467A
:202C4000DAF804000CF0B6F90028EBD1AA790123013A9340DBB2D80740F1A380DAF81040D8
:202C6000002C00F09E8008AB00935A46039B28482A49A0479AF808305B0686D55046244943
:202C8000264A00F0D1F980E72849244801F020FA5FE7697DC91160D0089A079B9A4272D023
:202CA0000132069900F09E80BDF816301B4C0122DFF868A0504601F055FAB4F8A430BDF8C5
:202CC0001620934200F287803478002C7FF4F9AE124809F1460100F0AFFE80B2A9F84400AF
:202CE00090B33478DFF82CA0002C7FF4EAAE484600F0B2FA9AF8004020460BB0BDE8F08FCA
:202D0000054C0B4AA323226033701C46D7E600BF80100020F22F00209C0600203011002030
:202D200054FD000034FD0000DC1100208B10002044FD00003E48842101F0C4F93C48842106
:202D400001F0C0F93478C0E7C1233370394CBBE63846298900F048F9A2E6089A002AB7D08D
:202D6000334C013218BF01222046402301F0FAF9B4F8A42020463F2A88BF4022D4F8A8108E
:202D800001F00EFAA0E72A4CB4F8A4108A4233D382232046A37128490F2201F001FA3478B2
:202DA00093E7990704D5DAF81440002C7FF45BAF5A0704D5DAF81840002C7FF454AF1C0728
:202DC00004D5DAF81C40002C7FF44DAF8521184801F078F9B2E75046DAF8A81001F0E0F966
:202DE000347872E7124CBDF81630B4F8A4209A4294BF002201225BE7BDF816308A1A9A42D4
:202E000094BF002201222046069901F0ABF90798B4F8A430BDF816201B1AD4F8A8109A42E1
:202E2000014428BF1A46204601F0BAF934784CE7301100209C06002034FD000010B50446BA
:202E40000D486160214602F0F3F994F90830002B00DB10BD206A0028FBD0036A002BF8D0A2
:202E60000268002AF5D0054B0461C360BDE810400830002300F034BCDC110020C5290000F6
:202E800008B50B4B1A7802B108BD012209481A7002F0C8F9084802F0C5F908480849FFF7CD
:202EA000CDFF00F085FBBDE8084000F0A7BD00BFF02F00202C110020DC110020680600209F
:202EC00064FD0000014802F0B1B900BFDC11002002F032BA10B504460448214602F060FA34
:202EE0002146BDE81040024802F0E6B940060020E411002070B505460D4802F097F904468F
:202F000098B1002601E024686CB104F11800294600F038FB0028F6D02046FFF7DBFF246869
:202F20000136002CF1D1304670BD0646FBE700BFE41100202DE9F0410546134888461646B0
:202F400002F074F90446E8B1002704F11800294600F018FB18B194F82C30B34205D0246882
:202F6000002CF2D13846BDE8F08104F12D00414632460BF077FE0028F1D12046FFF7AAFF4E
:202F80000137ECE70746EDE7E41100202DE9F041064614480F4602F049F90446F8B14FF046
:202FA000000804F11800251D1EB1314600F0EAFA78B1BD4208D028460BF0CEFF39460246A3
:202FC00028460BF04FFE20B9204608F10108FFF781FF2468002CE4D14046BDE8F0818046B5
:202FE000FAE700BFE4110020F8B505460D480E4602F01CF9044698B1002704F1180029463E
:2030000000F0C0FA10B1E38EB34204D02468002CF3D13846F8BD2046FFF75CFF0137F5E791
:203020000746F6E7E41100202DE9F84F0B468979012901D0BDE8F88F92F906100029F9DBDC
:20304000D97C49060FD5D3F8A060002E4AD0596E59B10129EED1304603F10B019A7ABDE8EC
:20306000F84FFFF767BFBDE8F88FD3F860B030465946DF6D144603F10B0A93F80A90FFF707
:2030800085FF1E4802F06EF9B846054660B3122FC4BF1327B8463A46594600270430A8442F
:2030A0000BF012FE314605F1180088F8047000F059FA4A46514685F82C9005F12D000BF0CB
:2030C00003FE0F482946EF8602F0B2F8A96B20464B1CAB6301F024F8AB6B23F07F43AB6323
:2030E000BDE8F88FBDE8F88FA323A3712046BDE8F84F0449102201F053B800BF40060020AC
:20310000E411002078FD0000014801F03BBD00BF4C06002010B5038804465BB15D2B05D1BE
:2031200088290FD082290DD0012010BD00230380032010BD1948802101F084FA5D2323805F
:20314000012010BD00F0FCFAE8B900F0DBFA50EA010318D0C90141EA50614FF47A72002317
:20316000C0010BF059FA00234FF4F0528B4208BF82420FD350EA010314BF01460121074895
:2031800001F060FADAE7064801F0FCFC5D232380012010BD4FF4F051F1E700BFEC110020A3
:2031A0004C06002070B5FDF787FF0E490A68821A12D04FF47A73A2FB03230B4ED40944EA60
:2031C0004364DD09D6E9002312196B41C6E9002308601046194670BD034BD3E9002310460A
:2031E000194670BDE8110020E00900200148002101F0A8BC4C06002070B5064609480D46DB
:2032000002F0B0F8044658B10023868080F824302946263000F0A6F90348214602F008F8D4
:20322000204670BD5C060020FC11002070B110B50446083000F042FA2146054802F03CF8DE
:203240002146BDE81040034802F0AAB8704700BFFC1100205C0600202DE9F04190F84650E9
:203260000446C5F3011535BB90F82430042B13D8263004F14601B4F8442000F09FF994F89A
:20328000243033B3226A04F10800520022620023BDE8F04100F024BAC66B2630276CFFF7BE
:2032A00029FE2046FFF7C2FF8EB1384629463346BDE8F041184704F14601B4F8442026304E
:2032C00000F07CF92046BDE8F041FFF7AFBFBDE8F0810B4B2461E3600BF01EFE40F2DD523D
:2032E000084BA3FB00139B0A02FB130202F6B832226204F108000023BDE8F04100F0F0B91E
:2033000009330000B76FA5AE83683BB193F824201846013283F82420FFF79EBF704700BF39
:2033200010B50446074801F081FF48B18388A34203D106E08388A34202D000680028F9D1FF
:2033400010BD10BDFC1100202DE9F04F83B00191914698460C9FFFF7B5FD0646002800F020
:20336000A68000252C463B684FF02F0B9C4207D3A8450DD94FF03C0309F805303B6801355C
:20338000621C9A4204D3A84584BF09F805B0013570680BF0E1FD02343A6800EB040A924587
:2033A00052D805D3A84503D93E2309F805300135F0680AF10104A0B1037893B13B689C428C
:2033C00006D3A84504D93B2309F80530F06801350BF0C2FD0AF1020A3A6800EB0A049442F6
:2033E00010D8A84503D23B68621B9A4254D83046FFF76EFD064600283AD0CCB93B689C42A0
:20340000BED3B5E7F368CAEB020208F10101002AA8BF9B18491B09EB0500284A04F04AFE21
:203420000544A84538D33046FFF752FD0646F8B13B68A34206D8A84504D92C2309F80530E6
:203440003B680135013491E77368121B08F10101002AA8BF9B18491B09EB0500174A04F0ED
:2034600029FE0544A84503D93B689A459CD29FE795B934B9DEB13B6843443B6003B0BDE8B6
:20348000F08F019C8221204600F01CFE20460C490F2200F085FEEDE7019C49462A462046C8
:2034A00000F07EFE2046282100F01EFEE2E74FF0FF333B6003B0BDE8F08F00BFACFD0000D1
:2034C00034FD0000F8B50446008878B1B0F5DE7F08D11C4B1B788B4216D04FF4DE73238054
:2034E0000120F8BD002323800320F8BD0146024606F044F843F21632134B028218604FF47D
:20350000DE7323800120F8BD104B1B789B07E4D50F4A104B1278104D2832DFF844C00F4F6A
:2035200032F803E008330FCB002685E80F002846DCF800103A88A5F810E0AE74FFF792FA82
:20354000CBE700BF4839002004120020E4360020FD2F0020E431002008120020D431002009
:20356000F0360020CB688A6830B40D684C68056044608260C3600B8A30BC03828B7C8374C1
:20358000704700BF38B5102205460C460BF06AFB20B92A8A238A9A4202D038BD002038BDA7
:2035A000AB7CA07C181AB0FA80F0400938BD00BF0148002101F0C6BA8C06002070B582B09B
:2035C000B8B148F2FE031446028805469A420E4603D00A4B5B6A984758B12B8A084A314695
:2035E0001068009322462B4605F0CEFE204602B070BD4FF0FF34204602B070BD1003010016
:2036000004120020064B10B5012206481A7001F009FE054B1B6813B1BDE81040184710BDB3
:20362000F12F00201C120020A0FD00002DE9D04D1F4B83B01B7804460BB9FFF7E3FF1D48B1
:2036400001F0F4FD214680461A4801F035FE194801F0ECFD014628B3D4E90467D0E9042370
:203660009F4208BF964207D21FE0D3E904AB5F4508BF564503D319460B68002BF5D1224680
:203680000C4801F039FE0B4801F0D0FD804506D0094B9B68019303B0BDE8D04D184703B090
:2036A000BDE8D08D002CEAD1EDE70021E7E700BFF12F00201C120020A0FD0000064B10B55E
:2036C0005B6804469847C4E904012146BDE81040024801F0F1BD00BFA0FD00001C1200205D
:2036E000074970B54968064614461D46884724184D41C6E904453046BDE87040FFF796BFF4
:20370000A0FD000010B50C4801F090FD044678B10A4B5B689847D4E90423994208BF9042B3
:2037200003D2101A63EB010110BD0020002110BD4EF66020002110BD1C120020A0FD0000C2
:203740002DE97043164D6E68B04780461548894601F06CFD044628B1D0E90423994508BF7C
:20376000904502D20020BDE870830E48214601F0A3FD63680BB120469847AB68984709488B
:2037800001F054FD0028EDD0D0E90445B047A94208BFA0422CBF01200020BDE8708300BFF2
:2037A000A0FD00001C1200200C2830B438D80301DBB20C292ED8CCB22343B0F5867F137019
:2037C00012D96FF4867543191B0A0D385370907002230320B1F5867F11D80C2902D90D39E5
:2037E0001154013030BC70470C281FD90D38B1F5867F50704FF001034FF00200EDD96FF407
:2038000086740C19240AD5180D391454A970D81C30BC7047B1F5867F94BF0D240E24CBE7FD
:20382000B0F5867F94BFD023E023C2E701200023D0E700BF13F07F4F2DE9F8434FEA13467E
:2038400014BF012700271C4615463B464FEA064906B17B1C34F0FF0819D001330133401A5C
:203860002A461946FFF7A0FF17B1230E2B540130B9F1000F01D02E540130B8F1000F09D06D
:20388000230A2B5401302C540130BDE8F883002CE5D0E3E7002CF6D1BDE8F883F8B50E6899
:2038A0009DF8187016B902600B60F8BD0C461D46036811469F5523682A4601332360006815
:2038C00018440BF077FA23682B442360F8BD00BF2DE9F0471F46002381463B6010460E464E
:2038E00090460BF039FB4E4409EB0005AE42824688BF4C4607D823E0013404EB0A039E42B4
:2039000005F101051CD94C4503D014F8013C262BF2D12B783D2BEFD14046214652460BF0AA
:2039200049FB0028E8D10AF1010A5444361B3246204626210BF04CF900B1061B3C6000E0C0
:2039400000263046BDE8F087F8B5069C401A21461F461646FFF728FF054639463018224647
:203960000BF0B2F92819F8BD2DE9F04F83B09DF83480DDF830A0B8F1000F37D0934600227B
:203980001E46994684468E46144617460AF1010303E001349C42224624D8B15CB5184145D6
:2039A00001D05245F5D1C9EB0505CEEB0C000BEB070229460193CDF800C0FFF7F5FE07449B
:2039C00049460BEB07002A460BF07EF90134019BDDF800C006EB040901349C42E6462F4463
:2039E0002246DAD9384603B0BDE8F08FCDF830A003B0BDE8F04FFFF7A7BF00BF08B50BF058
:203A00008BFA014B188008BDDC2F0020024B1888013080B218807047DC2F0020F8B504468C
:203A20000F4616461D460021AC220BF027FA6771A6712581F8BD00BFF0B501220023016012
:203A400002710B7004680579227883B042EA85122270056842792C78120102F03002224304
:203A60002A700568827A2C7802F00F0222432A7002688479547002890468120AA2700268E3
:203A80000489D470827912B9042003B0F0BD0568827A04354AB100F10A0212F8014F0133E3
:203AA00005F8014B847A9C42F7D8C37C0E46C3F34001044661B190F86A30002100932A46E6
:203AC00004F16B030120FFF73FFFE37C054401211A0709D5226C636C032000922A46FFF7ED
:203AE00033FFE37C05440321DF060BD594F824302A460093042004F12503FFF725FFE37C66
:203B000005440421980607D52A4600230520FFF791FEE37C054405215A0607D52A46636E35
:203B20000620FFF787FEE37C05440621DB0907D02A460720B4F85030FFF77CFE07210544B6
:203B4000237DDF070BD5A06C2F22E36C8DE805002A460820FFF708FF237D05440821180713
:203B60000BD5E06D2F22236E8DE805002A460B20FFF7FAFE237D05440B21DA0607D52A46F2
:203B8000A38B0C20FFF756FE237D05440C215F0607D52A46236A0E20FFF74CFE237D0544D6
:203BA0000E21DB090CD0D4F894002622D4F898308DE805002A460F20FFF7D6FE0F2105447E
:203BC000637D980708D52A46B4F868301120FFF731FE637D05441121DA060BD5606D26224F
:203BE000A36D8DE805002A461420FFF7BDFE637D05441421DB091AD0676F94F878303F0170
:203C00000BB147F00807B4F87A3000201B0900E01046421C5B0892B2FAD10AB100F00F0345
:203C20002A463B431720FFF705FE17210544A37D1F071CD5D4F8807094F884303F010BB1B6
:203C400047F00807B4F8863000201B0900E01046421C5B0892B2FAD10AB100F00F033B4337
:203C60002A461B20FFF7E6FDA37D05441B21D80607D52A461C20D4F88C30FFF7DBFD1C2122
:203C80000544E37D1A0709D5226B636B232000922A46FFF759FEE37D05442321DB0908D0E6
:203CA000A26BE36B272000922A46FFF74DFE27210544A37EDB0606D52A463C20D4F8903059
:203CC000FFF7B8FD05442368EB1A3E2B12DCB4F8A42022B1FF2305F8013BB4F8A42028468D
:203CE000D4F8A8100BF066F8B4F8A430AD1BE81803B0F0BD034B044A002020601A6003B0D6
:203D0000F0BD00BF9C060020F8FD00002DE9F04F0C460546002185B01746AC220BF0AEF86C
:203D20002C602678B6092E712378012EC3F301136B71227802F00F02AA726378AB71A178C2
:203D4000E37843EA01232B8106D0B04BB04A80201A6005B0BDE8F08F082A06D9AB4BAD4A4F
:203D600080201A6005B0BDE8F08F04F10408414605F10B000AF0A8FF05F1130000210822D2
:203D80000BF07CF8AB7A04EB070A984405F154034FF0000905F1580B0393D04580F06781C2
:203DA00098F8003003F0F002F02A00F0628118090D2803F00F0300F03E810E2800F041817F
:203DC00008F101010D2B00F032810E2B00F0448101EB0308D04500F248818144B9F13C0F9E
:203DE00000F2438105EBD90E9EF8132009F0070006FA00F0104309F1FF328EF813003B2A01
:203E000000F20C81DFE812F0F6000A01F300E800E500DB00D000C6000A010A01BC00B200A4
:203E20000A01A8009E000A0193000A010A018B000A010A0172000A010A010A0157004C00A6
:203E40000A010A010A010A010A010A013C000A010A010A013C000A010A010A010A010A0150
:203E60000A010A010A010A010A010A010A010A010A010A010A010A010A010A010A0141005C
:203E8000624B654AA5201A6063E733B1002311F8012B414542EA0323F9D1C5F890307CE77F
:203EA00033B1002311F8012B414542EA0323F9D1C5F88C3071E733B1002311F8012B414591
:203EC00042EA0323F9D103F0070023F00F02102181408240C3F3C0001B09A5F88610C5F86A
:203EE000882085F88400C5F8803056E733B1002311F8012B414542EA0323F9D103F0070097
:203F000023F00F02102181408240C3F3C0001B09A5F87A10EA6785F878006B673DE7262086
:203F20000A46009003995846FFF7B8FC35E733B1002311F8012B414542EA0323F9D1A5F826
:203F400068302AE726200A46009005F1940105F19800FFF7A3FC20E733B1002311F8012BA1
:203F6000414542EA0323F9D12B6216E733B1002311F8012B414542EA0323F9D1AB830CE716
:203F80002F200A46009005F15C0105F16000FFF785FC02E72F200A46009005F1480105F185
:203FA0004C00FFF77BFCF8E633B1002311F8012B414542EA0323F9D1A5F85030EDE633B1B8
:203FC000002311F8012B414542EA0323F9D16B66E3E685F89C60E0E6082B28BF08231A4669
:203FE00085F8243005F125000AF06EFED5E669642B64D2E6082B28BF08231A4685F86A30E4
:2040000005F16B000AF060FEC7E600BF9C06002028FE000040FE000068FE000019F0010FD6
:204020003FF4BBAE1D4B1E4A82201A6091E611F8013B0D33CCE698F8010008F102010D3080
:20404000C0E698F8022098F8010002F20D1202EB002008F10301B5E691F801E011F8022B1F
:204060000EF20D1303EB0223B2E6802071E600206FE608F10102A31A3B449BB2402B84BFD6
:2040800040210B464FF00000C5F8A82094BFA5F8A430A5F8A410D0545BE600BF9C060020AF
:2040A00090FE000030B4B0F8A44014B9204630BC70470D46134621462A4630BCD0F8A8004D
:2040C000FFF706BCFF299ABF817101200020704710B50446082A28BF0822A2720B300AF022
:2040E000F3FDA07A10BD00BF037D818343F0100303750120704700BF437DC3F340031BB1CC
:20410000B0F8682001230A6018467047037DC3F3C00313B1036E0B60C36D1846704700BF2F
:20412000C37C416643F04003C3740120704700BF30B4447D029DE4110ED009B1446F0C6065
:2041400012B190F87810117013B1B0F87A201A802DB1C36F01242B60204630BC704701247D
:20416000FAE700BF10B4A3F11004B4F5FE6F02D8B1F5801F03D300205DF8044B7047447DEC
:20418000003218BF012280F8782064F07F024167A0F87A3042755DF8044B0120704700BF32
:2041A000402A28BF4022C0F8A810A0F8A4201046704700BF70B57F4CFBF7F6FFFCF730FFBB
:2041C00000F0ECFC00F018FC7B48002100F0BAFC00F0E0FAFDF7B0F800F07CF900F018FDA9
:2041E000FCF720F801F030FD00F07EFA2368022B42DC0822714972480AF066FD7148002183
:2042000000F0A0FC4FF0FF3004F0F6FD23680546022B684E13DCFCF71BF8FEF731FE6A4839
:2042200000F04CF9FDF796F800F000FC0446FDF7A9F814F0FF0FF7D1FCF782F8F4E763492E
:20424000634A644803F010FF63497722634803F00BFF634803F008FF3368022BDBDD002DC4
:2042600000F0A580A81C00F0EFF82368022BD2DD5C4803F0F9FECEE75449554A554803F018
:20428000F3FE55496122554803F0EEFE564803F0EBFE2368022BACDD4C494D4A4D4803F021
:2042A000E3FE4D4962224D4803F0DEFE4F4B5048196803F0D9FE2368022B9ADD4349444AD9
:2042C000444803F0D1FE44496322444803F0CCFE484B4948196803F0C7FE2368022B88DDBB
:2042E0003A493B4A3B4803F0BFFE3B4964223B4803F0BAFE414B4248196803F0B5FE236883
:20430000022B7FF776AF3149314A324803F0ACFE31496522314803F0A7FE3A4848F6660190
:2043200003F0A2FE2368022B7FF763AF2749284A284803F099FE28496922284803F094FEDD
:204340003148192103F090FE2368022B7FF751AF1E491F4A1F4803F087FE1F496B221F48F0
:2043600003F082FE294B2A48198803F07DFE2368022B7FF73EAF1549154A164803F074FE3A
:2043800015496C22154803F06FFE224803F06CFE2368022B7FF72DAF084800F065F823687B
:2043A000022B7FF726AF0F4803F05EFE21E7284659E700BFA0060020A40600203830002052
:2043C000DC310020840700206C0301008CF10000ACFE00007CF10000B4FE0000A4F10000BA
:2043E00094FF0000B0030100D4FE00001003010008FF00002802010018FF0000AC01010099
:2044000024FF000030FF00004CFF0000DE2F00206CFF00007CFF000010B541600446FCF749
:2044200083FE206010BD00BF10B50446FCF77CFE94E80A00034A0B44C01A90428CBF00203A
:20444000012010BDFEFFFF7F00B58BB002462821684604F0FBFE6946024803F005FE0BB02D
:204460005DF804FBACFD0000D0B170B5054601260024C4B1E30709D50D48297803F0F4FDEC
:20448000082E0CD0013601350134F2E7094803F0EBFD0748297803F0E7FD082EF2D170BD76
:2044A000054803F0E1BD2978014803F0DDFDE9E7E8FF0000E4FF0000D4FF000010B50446EB
:2044C000006830B1002100F03DFB54F8040F0028F8D110BD704700BF10B50E4C2368B3B1A9
:2044E000FCF7EAFD22685168136892681944091A4AB192E8180023441B1A9268994228BFC5
:204500001946002AF5D1044B0844186010BD024A136010BD20120020241200202DE9F041F1
:20452000038805467BB1592B08D1872912D0822920D059232B800120BDE8F08100230380EB
:204540000320BDE8F081254A0120136059232B80BDE8F081214F3B68002BEAD0D9688A42DD
:2045600003D024E0D9688A4220D19B68002BF9D13B60DEE7194F4FF000083C68002CD8D0E7
:20458000002604E0A3682646002BD2D01C46204600F030FB0028F5D0E0688821224600F0B4
:2045A000A5FA78B10E4800F0EDFAEBE73B6099680029BED0C86882420BBF89680B469960E8
:2045C0008968F5E7E060A3682EB1B360C4F80880FFF782FFD1E73B60F8E700BF20120020D3
:2045E000A406002010B50446104800F0CBFA1049E3680A684BB142B194420FD0134601E0E1
:204600009C420BD09B68002BFAD10A4BA2601B680C60E360BDE81040FFF75EBF054B1B6884
:20462000E360BDE81040FFF757BF00BFA4060020201200202C120020014800F0A3BA00BFA8
:20464000A406002010B5044600F0BEFA2046BDE81040FFF7C7BF00BF10B5044600F0BCFA8E
:204660002046BDE81040FFF7BDBF00BFC068B0FA80F04009704700BF024B1868003018BFD9
:204680000120704720120020024B186808B1024B18687047201200202412002010B5114B1D
:2046A00004461A68904218D05AB19368834208BF13460AD02BB19A68A24206D01346002B93
:2046C000F9D10023A360E36010BDA2689A60FFF703FF0023A360E36010BD82681A60FFF74E
:2046E000FBFEEEE720120020034A04499079D37903EB00230B80704738300020DE2F0020A3
:20470000F0B5038883B005465BB14A2B04D188291BD0012003B0F0BD00230380032003B0FC
:20472000F0BD194800F082FD044630B1201DA168FFF788FF2468002CF8D1144B01221A7081
:204740004A2301202B8003B0F0BD0F48019200F06DFD04460028F3D0019A031D9A4205D0DB
:204760002468231D002CEBD09A42F9D10648214600F0A2FD064E6269A369376832600BB184
:20478000E06998473760DBE728120020F32F00202C12002010B5064B002406481C7000F09A
:2047A00041FD2146BDE81040034800F0CBB900BFF32F002028120020B406002070B50446FC
:2047C0000D48049D0078A261E361656130B9A1600A482146BDE8704000F02ABD084D094BE6
:2047E0002E68201D2B60FFF72DFF2E602146BDE87040024800F01CBDF32F00202812002040
:204800002C120020B406002010B5044C82B024680094FFF7D3FF02B010BD00BF2C12002095
:2048200070B5094B04461B783BB1084D084B2E6804302B60FFF710FF2E602146BDE87040EA
:20484000044800F0F5BC00BFF32F00202C120020B40600202812002010B50A4B04461B78E1
:204860003BB9C36003612146BDE81040064800F023BD0430FFF712FF2146BDE81040024862
:2048800000F01ABDF32F00202812002038B50B4B1D785DB904460A4800F0C8FC10B90AE0C4
:2048A000006840B18442FBD1002038BD0430BDE83840FFF7DBBE012038BD00BFF32F002001
:2048C000281200202DE9F843DFF8A480274DD8F800702E68874247D077B33B4601E0002B51
:2048E0003BD01B689842FAD133B3837B8946044623B3002383736FB1BC424FF0870106D0DE
:20490000BB7BDB0703D53846224600F033F83F68002FF1D1A3683BB14C4505D02C6004F130
:204920000C00832100229847D8F80000844208D12368C8F800302E60BDE8F88338468442EA
:20494000F6D00028F7D00368A34208D0002BF2D01A68A24204D01346F8E7BDE8F8830346B2
:2049600022681A602E60E7E73B46BDE72C1200203012002070B586687EB104460A480223EF
:204980000460A37304F10C000D46B0470238012804D9832D02D00123A37370BD204621465C
:2049A000BDE87040FFF78EBF2C12002070B50C4A0C4B146800251D7084B1012601E0246838
:2049C00064B1E37B002BFAD0A673E573204682210022FFF7CFFF2468002CF2D170BD00BFA8
:2049E00030120020F62F0020024B1878421C1A70704700BFF72F002070B407480749084A7A
:204A00000023084D084C8A2603700B6013602E70237070BC704700BFF52F00203012002050
:204A20002C120020F72F0020F42F00202DE9F041244D2B780BB1FFF7B9FF234E3378D3B12A
:204A4000DFF890E0214F9EF80020013B02EB420189007C180132A068DBB202F01F023370E2
:204A60008EF800207F5CD4F8048098B1812F06D0827BD20705D428781844BDE8F0810123B1
:204A8000837339464246FFF775FF337828781844BDE8F0810E4A146834B9ECE7A37BD90760
:204AA0000AD42468002CF0D02B78002BF6D0FFF77DFFA37BD907F4D5204639464246FFF770
:204AC00059FFEEE7F62F0020F52F00203412002030120020F42F0020024A034B10781B7860
:204AE00018447047F52F0020F62F0020F0B40C4D2C78202C11D00B4B0B4E1B78671C234420
:204B000003F01F0303EB43039B00F418A06062602F70F1540020F0BC70470120F0BC7047F8
:204B2000F52F0020F42F00203412002038B5837B034CDB07256801D5FFF71CFF256038BD7E
:204B40002C12002070B404460D4D2868A04206D038B1034600E023B11B689C42FBD170BCA8
:204B60007047002CFBD0012600232060A673A3810A4620462C60812170BCFFF7D7BF00BF25
:204B80003012002038B1837B013B012B03D8024A01231370C3737047F62F0020FCF7D0BAE7
:204BA00010B5084C206858B100224368816822609847236823B1BDE810401868FCF7C2BAF1
:204BC00010BD00BFB413002010B541600446FCF773FA206010BD00BF10B50446FCF76CFADE
:204BE00022686168C2F101031844884284BF5218226010BD10B50446FCF75EFA23686268DA
:204C0000C3F10103184482422CBF0020012010BD00B50B4B83B001A90A4A994211600193A7
:204C200088BFCD2005D95A1C01921870019B8B42F9D305480021FFF785FF03B05DF804FBAD
:204C400049390020B8130020C406002038B5134CFCF798FB2378124DCD2B08D0AC4202D37E
:204C600016E0AC4214D014F8013FCD2BF9D1AC4202D30DE0AC420BD014F8013FCD2BF9D0D8
:204C8000FCF780FBAC42064804D2001B80B238BDFCF778FB4FF6FF7038BD00BF49390020E2
:204CA0000050002070B5038804465BB1902B05D11A48FFF7DBFC70B9012070BD00230380A1
:204CC000032070BD15484FF4A061FFF7BBFC90232380012070BDFFF7B9FF114D114B0646DE
:204CE0005D1BADB2A84212D90F4B1B68002B0EDD0E490F4A0F4803F0B7F90F4995220F4805
:204D000003F0B2F931462A460D4803F0ADF90348FFF7A2FC90232380012070BDBC130020AE
:204D20004939002000500020A0060020A0000100A40001007CF10000AC000100A4F10000A6
:204D4000D000010010B5044690F84C308021013384F84C3020302346054AFFF755FD054B02
:204D60002246BDE8104019780020FFF7BFBE00BF454D00004539002070B5038804464BB1CD
:204D8000CB2B03D1822909D0012070BD00230380032070BDCB232380012070BDFDF794FC1E
:204DA000BFF35F8F104B00221E681A60BFF35F8F0E4DFDF791FC286820B9EBE755F8040FBF
:204DC0000028E7D090F8453026FA03F3DB07F5D5FFF75CFD0028F1D0286802210346044AB3
:204DE000FFF712FDEAE700BFD8130020DC040020314E0000034A1368034303481360FFF7D2
:204E0000C1BE00BFD8130020D406002010B5044690F84500FCF7D0FE10B994F8440010BD4C
:204E2000012806BF94F8440080F00100002010BD70B50446FFF72AFD00B970BD04F12005CA
:204E40002846FFF723FD06462046FFF7DFFF01280ED00028F1D1002EEFD12846FFF7FCFC0D
:204E60000A4B30462246BDE870401978FFF73EBE002EE2D000262346284684F84C607E2183
:204E8000034AFFF7C1FC034BEBE700BF44390020454D0000463900202DE9F843FFF7A4FD7D
:204EA000244B254C1870FFF79FFD244BDFF8A0801870FFF799FD224D2368224A002128705F
:204EC000C8F80810C8F8042053B3DFF888901E4F0126D9F800209D6C926B93F845009047EF
:204EE000236845F08C05294693F84500FCF72AFE2268D9F8003092F8450006FA00F23A6021
:204F00001B6B98472368D8F8082093F8451054F8043F06FA01F10A43C8F80820002BD8D13F
:204F20000A480021FFF70EFEBDE8F843084800F059B900BF46390020DC04002044390020CF
:204F400045390020F54D0000E0200240D4060020CC130020B4010010F8B5048805466C2C55
:204F60000CD07E2C1BD01CB1002303800320F8BDFFF73AFD1E4A1F4B10701C601D4C2646A5
:204F800004E00A2813D023687E2B2BDD1A4800F04DFA431CF5D16C232B800120F8BD852960
:204FA00001D00120F8BD134C00232360E6E7114C124F23680E49002603F1010E3A460978AE
:204FC0003046FE54C4F800E0FFF790FD0C4B324618688521FFF78AFD0028E5D17E232B804E
:204FE0000120F8BD05495A1CC8543260CEE700BF47390020E41400205C1400206414002015
:205000002C12002008B505480549802200F006FABDE8084003480021FFF794BD5C14002018
:20502000DC130020E406002010B1837A012B01D901207047FDF760BB10B1837A012B01D9E8
:2050400001207047FDF7F8BB10B50446FDF748FB08B9042010BDE178024A01238B401360D2
:20506000002010BDA0200240C178034A01238B4013600020704700BF9020024010B584B0D8
:205080008DF80F1010B1827A012A02D9012004B010BD0446FDF724FB10B9032004B010BD3D
:2050A00000232046009301930DF10F010122FDF713FCECE780B170B5847A82B0012C02D9AB
:2050C000012002B070BD044615460E46FDF708FB20B9032002B070BD0120704700232046A4
:2050E00031462A4600930193FDF7F6FBE9E700BF80B170B5857A82B0012D044602D9012033
:2051000002B070BD16460D46FDF7EAFA20B9032002B070BD012070470021009620462B46E8
:2051200001910A46FDF7D8FBEAE700BFF0B40E4C0E4F22460E4E0023012540FA03F1C907D0
:2051400006D5517851B114F8131005FA01F1316002320BB1F0BC70470123EEE714F813107D
:2051600005FA01F13960F3E720F2000090200240A0200240F0B40E4C0E4F22460E4E002383
:20518000012540FA03F1C90706D5517851B114F8131005FA01F1316002320BB1F0BC704741
:2051A0000123EEE714F8131005FA01F13960F3E720F20000A02002409020024038B5074D1C
:2051C000074C2B682078DB6B98472B68A078DB6B9847BDE838400320FFF7CCBFB4010010D6
:2051E00020F200000146014800F022B8E814002038B50546074800F019F8044640B1A0685C
:20520000284002D0636803B198472468002CF6D138BD00BFE8140020014800F003B800BFF4
:20522000E814002000230360704700BF00687047026842B1914203D11BE099420ED01A461F
:205240001368002BF9D100230B6002680AB90EE01A461368002BFBD1116070470B68136055
:2052600000230B6000230B600268002AF1D1016070470B680360F3E710B404684CB1A142E4
:2052800017D0224602E0994208D01A461368002BF9D10C6001605DF8044B70470C460B686D
:2052A00013600023236004680C6001605DF8044B70470B680360F4E7026842B18A4203D193
:2052C0000BE0994204D01A461368002BF9D170471968116000221A60704713461268026033
:2052E000F8E700BF03682BB100201B680130002BFBD1704718467047D9B110B40446006832
:2053000040B1824203D110E09A4209D018460368002BF9D10B6813600A605DF8044B7047F6
:205320001468046000201860F4E7106813462060F8E71146FFF7A0BF00B10068704700BFAF
:2053400010B5044600216288406809F097FD23886288A06802FB03F2BDE81040002109F060
:205360008DBD00BF30B44588BDB141680B7863B14A1C002303E01478114601322CB1013332
:20538000AB42F8D1002030BC704701220A700288806830BC03FB020070472846F3E700BFDB
:2053A000F0B44588074682686DB18A420ED006880023324402E0914209D022460133AB423F
:2053C00002EB0604F7D1FF20F0BC704700237A68D05C0028F8D00138D0547A68F0BCD05C54
:2053E000704700BF83688B4208D84288008800FB023081422CBF00200120704700207047A3
:20540000418849B143680020194413F8012B02B901308B42F9D17047084670470023013ACD
:205420000160027143718371704700BF0346807959791A79091A114208D010B4411C1C68E0
:205440000A40205C9A715DF8044B70474FF0FF30704700BF08B50448FFF772FFBDE80840DF
:205460000248FFF76DBF00BF00070020F40600200148FFF7C5BF00BFF406002038B50F48E0
:20548000FFF770FF044688B10D48FFF76BFF0546206060B100F082FA05F19C01A5F8800077
:2054A00005F1820000F05EFB204638BD38BD21460248FFF775FF284638BD00BFF406002084
:2054C00000070020016801F182009C3100F04ABB10B5044607482146FFF784FF00B910BD42
:2054E00021680548FFF75CFF2146BDE810400148FFF756BFF40600200007002010B5044685
:2055000009482146FFF76EFF00B910BD2468B4F88010204600F006FB04F1820004F19C01C2
:20552000BDE8104000F030BBF4060020036803EB4101B1F882007047F9B1EAB130B4CD68A6
:205540004C68521B92FBF4F2541C18D053B90C68835C012101FA04F423EA040383540846B2
:2055600030BC70470B68845C012101FA03F32343835430BC08467047114608467047002177
:20558000EDE700BF38B50F4D002818BF05460E48FFF74CFE044650B12846211D00F06AFB03
:2055A00040B92046FFF7C8FE04460028F4D14FF0FF3038BD054B06489B68E41AA41000FBE8
:2055C00004F038BD1C0101009C1A00200C070020ABAAAAAA78B179B1C2684368891A91FBBB
:2055E000F3F14B1C06D0054A0368505C184100F0010070470020704708467047601B0020AC
:2056000010B10368072B0ED90C4A1368072B12D830B40B4D5C1C03608160146045F823008C
:20562000012030BC7047064A52F823309842EBD18160012070470020704700BF901B002009
:20564000701B0020F8B507460C46184D184E1FB344B3FB687868E41A94FBF0F4611C04EB9F
:20566000440421D0AB6803EB8400FFF765FEB0B1AC68001B841006FB04F35A1C0FD07C68BE
:20568000FA6804FB032454B138462146FFF7A2FF0028DCD02046F8BD3846FFF74DFE00242F
:2056A0002046F8BD2046E0E70020DEE70C070020ABAAAAAA38B505461148FFF7B7FD04465C
:2056C00068B1104A104B9268841AA41003FB04F4A5B1631C10D06B68EA6803FB042428464C
:2056E0002146FFF777FF08B1204638BD28462146BDE83840FFF7A6BF0024F0E72C46EEE734
:205700009C1A00200C070020ABAAAAAA2DE9F04F6C4D85B0002918BF0D46044628461F4624
:205720009146FFF72FFF431C064612D05CB36268E36802FB06360021304609F09FFB2146F3
:20574000614832460123FFF7F7FE304605B0BDE8F08FDFF888814046FFF704FE0646A8B1C7
:2057600007465A483946FFF763FDD8F80820584BB61AB610381D294603FB06F600F076FA16
:205780000CB1731CD3D162680026D4E74846394606F058FA00287ED0FFF7F4FE471C4ED03A
:2057A000D8F808204B4B00EB400A12EB8A07195C019744D000293BD1434BC2EB070A029361
:2057C0000395019E5546DFF818B1A24614E084680CB33F4B03FB07F77A1C1BBF4168C26807
:2057E0004FF0000901FB07294946FFF7F3FE01280BD0394B9B4510D05BF8040FAF1000282A
:20580000E5D1334B03FB07F7F3E74846A047D8F80830019AD51AAF10F3E70199029A002385
:205820002A48D3555446039D0F46FFF745FD98E71E54019BC2EB030A234B0293C0E72348AB
:20584000FFF7F4FC019030B34FF0000BD946214F1F4E019802E0FFF76FFDF0B1D8F8083022
:20586000C3EB000A4FEAAA0306FB03F3FA5C002AF1D11549CB5C0291DBB1D90748BF013293
:205880005B10FAD1B9F1000F01D09345E3DDB2B193468146DFE7002657E7B9F1000FFAD000
:2058A000D8F80820084BCDF804900293C2EB090A86E7B9F1000F02D0BBF1000FCBD0019010
:2058C0007EE700BF1C010100601B00209C1A0020ABAAAAAA8C1A00208C1B00200C070020AC
:2058E0006C1B002038B505460846FFF74BFE85B1431C0CD06C68EB6804FB0034284621469C
:20590000FFF768FE002814BF2046002038BD0024F4E72C46F2E700BF70B505460C460023C7
:20592000294622460548FFF707FE06462946224600230348FFF700FE304670BD601B002085
:205940008C1A002003460A46024819460123FFF7F3BD00BF8C1A002003460A4602481946AE
:205960000023FFF7E9BD00BF8C1A002088B189B1C2684368881A90FBF3F0431C08D0064B03
:2059800000EB40009B6813EB800002D00430704700207047084670470C070020F8B50E4D87
:2059A0000E4C2A7823881344802B01DD0020F8BD06460B4F394609F087F90A4B29781B7864
:2059C00070181944C9B23944228809F07DF9287823881844F8BD00BFF82F0020E02F002040
:2059E000941B0020E22F0020F0B4114B114F1B783E78114A33441288DBB213449BB21A182F
:205A0000802A12DC013B9BB21AB2002A08DB0B4C2518A15C013B9BB2A9541AB2511CF8D173
:205A200030443870F0BC012070470020F0BC7047E22F0020F82F0020E02F0020941B0020CD
:205A4000084A138883420BDB10B4074C80B221881B1A13800844208001205DF8044B70478C
:205A600000207047E02F0020E22F0020014B1880704700BFE02F0020044B054A1B781278AB
:205A800004481344DBB21844704700BFE22F0020F82F0020941B002000487047941B0020EF
:205AA000014B1888704700BFE02F0020054A064B10781B78054A03441088DBB2184480B251
:205AC000704700BFF82F0020E22F0020E02F002038B5094D094C00211A22094809F0CEF9A3
:205AE0002846214600F0C2F805F108002146BDE8384000F0BBB800BF0C3000201C01010009
:205B00001C30002004480549054A002303800B801370FFF7DDBF00BFE22F0020E02F0020CB
:205B2000F82F0020802928BF802170B50C4606460849094A094D00230B8013702B80FFF75E
:205B4000C7FF31462246064809F0BEF82C80204670BD00BFE22F0020F82F0020E02F0020FE
:205B6000941B002010B50C461A22054909F0ACF82046BDE810400349102209F0A5B800BF2A
:205B80001C3000200C300020034610B50C461A221946054809F098F82146BDE810400348C5
:205BA000102209F091B800BF1C3000200C300020024B23F810100120704700BF1C3000205F
:205BC000014B33F8100070471C30002008B5044B0D3803EBC00000F049F8012008BD00BF46
:205BE0000C300020024B0D3803EBC000704700BF0C3000200148024900F03CB8143000205B
:205C00001C01010070B505460E480E46FFF70EFB044660B1012D0CD01DB963680BB19847AC
:205C200070B92046FFF788FB04460028F2D1002070BDA368002BF4D0304698470028F0D0A3
:205C400070BD00BF141C0020054B10B51B689847044B5B689847BDE81040034B5B6818473B
:205C600080F20000AC01010028020100082209F02BB800BF08B5082208F0F4FFB0FA80F028
:205C8000400908BD08B50848FEF7CAFD0748FFF711FD40B1037A01465B0803720348FFF70C
:205CA000D1FC0028F6D108BD403000201807002001460148FFF716BE1807002080B110B505
:205CC0000446FBF7F9F92368C01AB0F5963F05D2207A032894BF0020012010BD002010BDCD
:205CE00000207047F8B5074614460E4659B3022900D0F8BD34483946FFF7F4FD0546002814
:205D000031D0FBF7D9F92B7A28602344102BA8BF10232B720C342846FFF7D0FFAA880028EB
:205D200014BF5A234B2302FB03F24FEAC414A4B214BF0A21192104FB01232448A0FB0323C4
:205D40005B09AB80F8BD20483946FFF7CBFD054648B1FBF7B1F92B7A28602344102BA8BF44
:205D600010232B72D7E73946174809220023FFF7CDFC05460028BCD0C38813B31BB26FF06E
:205D80003B029342A8BF13466FF058029342B8BF13464FF470625A3392FBF3F39BB2B3F5C9
:205DA000C07F28BF4FF4C073AB80FBF785F92B7A28602344102BA8BF1023022E2B72AAD1FB
:205DC000A8E74FF48073EFE7180700201F85EB5138B505460420FFF7F3FE294684B21D48BC
:205DE000FFF780FD80B122B2B0F9061002EB82025A23520003FB01221749D31781FB021231
:205E0000C3EB6212C28038BD0346294611480922FFF77CFC0028F6D0C480C4B122B26FF0A5
:205E20003B039A42A8BF1A466FF058018A42B8BF0A464FF4706102F15A0391FBF3F39BB213
:205E4000B3F5C07F28BF4FF4C073838038BD4FF48073FAE7180700201F85EB5110B50848BB
:205E6000FFF728FC044650B121460548FFF754FD21460348FFF7E6FB04460028F4D110BD35
:205E80001807002010B500210548FFF7B9FBBDE8104004484FF4E131034A0023FEF7B4BC7B
:205EA0001807002040300020855C0000F8B5FBF703F9104F06463C4600250D20FFF792FE92
:205EC0002146FFF7D7FE103420B90135102DF4D10020F8BD0720FFF773FE07EB05152B7B26
:205EE0008342F5D1A868301AB0F5206F8CBF00200120F8BDD81C0020F8B5194F00243D4678
:205F00000D20FFF76FFE2946FFF7B4FE18BB0134102C05F11005F3D112480F24013C07EB0B
:205F2000041600E0013C3146102208F0CDFE3046103E002CF6D10720FFF742FE3873FBF70D
:205F4000BBF8B8600D20FFF74DFEBDE8F84001460348FFF78BBE002CEDD02846DEE700BF7F
:205F6000D81C0020C81D0020844618B1084611461A466047704700BF30B591B0FFF77CFDBE
:205F80000446FFF78DFD6A460146204600F08AFA98B30446FFF754FD78B30C209DF810107E
:205FA000FFF706FE9DF817308BB1BDF81C5000F0E5F8854205D04FF6FF73BDF81C209A42C1
:205FC0001BD19DF81700694600F080F9C8B10D2002A9FFF7FBFD9DF81530072033B14FF6A8
:205FE000FF71FFF7E5FD204611B030BD9DF81A10FFF7DEFD204611B030BD4FF0FF3011B072
:2060000030BD69460E20FFF7E1FDE0E7F8B5054658B314464AB30C200E46A847002320749B
:20602000A3741EB3E37463750920A847002701232376A07567740720A847A07600F09EF8AB
:20604000E0830A20A847012816BF03236776637600F094F8A0830B20A847012813D056B11E
:206060000223E37501232375F8BDF8BD0820A8476675E074D8E70323E375637E022BF1D02B
:2060800000232375F8BD0023E375F6E730B591B0054600F073F84FF6FF73984258D0402251
:2060A0006846002108F0EAFE2D4B1A7822B35DBBFFF7A0FD6A46C1B22A48FFF7A7FFFFF780
:2060C00099FD00283CD0FF238DF800308DF801300D20FFF787FD014602A8FFF7C7FDFFF721
:2060E000CBFC0E90FFF7DCFC0F90684600F0FEF80446CDB911B030BD01221A70FCF7B8F96B
:20610000194B1870002DD3D00720FFF759FD0028CED1154C2178F1B189B20720FFF748FD50
:20612000237801332370C3E7FFF75EFC80B1FFF7B3FC0146684600F025F9204611B030BD16
:206140000E20FFF74FFD01466846FFF78FFDBFE74FF0FF30CEE7012319462370DDE700BFF6
:20616000FA2F0020C15B0000F92F00200120FFF78DBF00BF0020FFF789BF00BF014B188847
:20618000704700BF90080020B8B1037A30B4022B14D00378022B1DD00379F3B9447A14F077
:2061A000030418BF0124C37913F0030318BF012301B10C6002B1136030BC7047C579447AB9
:2061C000037965B1B4B1032D29D1032C31D0022C16D0D3B100231C46EAE70024E3E70CB9CD
:2061E000012B23D0002BF5D1023C012C8CBF00240124DDE72BB1032D11D123460024D7E793
:20620000A3B90DB90123EFE70123022DECD0032DF4D1A4F10204B4FA84F46409C8E7022D52
:20622000D5D1002CECD143B12346C1E701230024BEE7002BE8D00023E0E72346D4E700BF2D
:2062400030B50D460446002183B02846062208F015FE637DD9075CBF01232B70237E012B60
:2062600023D904F11000694601AAFFF78DFF009B0BB10223EB70019B0BB102236B70E37DB2
:2062800003F00303022B03D0032B0CBF08230023AB70637E03F00303022B03D0032B0CBFD0
:2062A000082300232B7103B030BDE37D9A0706D0637E9B0703D0E28BA38B9A4202D00023BB
:2062C0002375CEE701232375CBE700BF02280CBF022308230B4403E013F8012DFF2A03D197
:2062E0008B42F9D1012070470020704700B583B06946FFF7A5FF9DF800309DF801109DF827
:20630000022002330B449DF8031013449DF804200B449DF805001344184403B05DF804FB7C
:2063200070B485784378047805F00102C678150103F0010245EAC202037904F007041443FE
:2063400006F0010244EA421203F0010342EA83130B704479437A8579C27904F0010444EAB4
:20636000831405F00105037A02F0030244EA450040EA820203F0030342EA03134B7070BCD4
:20638000704700BFF0B50C46074683B06946FFF757FF07F110002146FFF7C2FF9DF800302A
:2063A000012B02BFBB7E0320A3709DF8013018BF0220022B2ED09DF802E0BEF1000F0ED084
:2063C000034600EB0E02D2B207EB0E0111F8016D5D1CE654EBB29342F8D17044C0B29DF8D4
:2063E0000330022B20D09DF804E0BEF1000F0FD003460EF1080200EB0E063A44F6B212F8B6
:20640000015D591CE554CBB2B342F8D17044C0B203B0F0BDBA8B431C2254BA8BDBB2120AA7
:206420000230E254C0B2C6E7FA8B431C2254FA8BDBB2120A0230E254C0B2D4E72DE9F0476B
:206440000278437884B0C2F3001CC2F3401E02F00709C2F3C008C2F3801403F0010AC3F373
:206460004007C3F38106C3F3011508469B0901A90A228DF804908DF805808DF806C08DF811
:2064800007E08DF808408DF809A08DF80A708DF80B608DF80C508DF80D3008F015FC04B0CB
:2064A000BDE8F087012950DD2DE9F041144686B00F4603A90546FFF7C1FF03A904F11000DF
:2064C0000A2208F001FC9DF81130002B39D0AE1C03A801A902AAFFF757FE9DF81380B8F1AA
:2064E000000F43D0029B002B34D0727816F8023B03EB0223A383B8F1020F56D0B8F1030FA5
:206500003BD09DF81580B8F1000F27D0019BF3B1717816F8023B029A03EB01239BB2E383C2
:20652000D2B1B8F1020F4AD0B8F1030F31D0701B3B1A8742B8BF0020A663E36306B0BDE85E
:20654000F081AB78EE1CA376C2E700207047A38BE383E6E7A383CEE7A383E2E704F10800DC
:206560001C49FFF783FBA4F81E80E0E720461949FFF77CFBA4F81C80C3E706F108000346E2
:20658000621E13F8011DB34202F8011FF9D10646B7E708363246E31D04F10F0012F8011DAD
:2065A00003F8011F8342F9D1C1E720460949FFF75DFB7378237016F8023B6370A1E704F16A
:2065C00008000449FFF752FB7378237216F8023B6372ACE71C01010030B504461A4A83B00C
:2065E00010680023019020468DF800308DF80130FEF72AFD10B1FE2003B030BD01A92046F3
:206600000422FEF757FD28B12046FEF72DFDFF2003B030BD204669460222FEF769FD05460F
:206620002046FEF721FD0DB1FF20E5E79DF80030C22B01D02846DFE79DF80100A0F1140046
:20664000B0FA80F04009D7E73001010030B5052383B08DF804300446FEF7F6FC40B920465E
:2066600001A90122FEF726FD48B12046FEF7FCFC002003B030BD9DF80730DB0708D5204638
:206680000DF107010122FEF733FD0028F3D0ECE72046FEF7E9FC012003B030BD10B5184CC4
:2066A00082B0002818BF04462378FF2B03D02046FEF7BAFC10B1002002B010BD2046FEF7FB
:2066C000D3FCAB2320468DF80730FEF7BDFC48B920460DF107010122FEF7ECFC58B1204671
:2066E000FEF7C2FC2046FFF777FF0128E4D02046FEF7A2FCDFE72046FFF7A8FFEFE700BFE1
:206700003401010070B5174C002818BF04462046FFF79CFF054640B900252046FEF78CFC2F
:20672000002818BF0025284670BD2046FEF78CFC06460028F0D12046B921FEF79FFC60B999
:206740002046FEF791FC0A262046FFF745FF731E0028E2D013F0FF06F6D120463546FEF771
:2067600083FCDAE73401010010B50446FFF796FF00B910BD2046BDE81040FFF7C3BF00BFF1
:2067800010B4064A064C1368206811688B42FAD11B0443EA10405DF8044B70470820094017
:2067A0000C20094070B50D46C10782B004461AD4A2070DD4630709D5104BADB21B68009516
:2067C0005C680F4800210C220223A04702B070BD0A4AABB212680093566809480021022252
:2067E0000123B047E6E7054AABB212680021009356680B4602480122B047D9E7A4010010EF
:2068000000A00C4010B5084B04281B684FF03401DC6807BF4FF0C0421D234FF080521C2376
:206820000248A04710BD00BFA401001000A00C4070B5064600F076FB0546074A1368064CBF
:20684000002BFBD0B0470123236005B170BDBDE8704000F06BBB00BF00800C4043F606028A
:2068600070B4038893421FD043F60702934217D040F60202934201D070BC7047C67B4369F7
:20688000002BF9D044F2380403F1140519681A4688B2A04203F1040309D0AB42F6D1EBE72E
:2068A00090F82460C369EBE7C3690226E8E7C1F303400028E0D0B31E1C2B44D8DFE803F0EE
:2068C000374343322D43434328432343431E43434343434343434343434343430F00254B78
:2068E0001B68C3F383430F2B42D09842C4D221F4702141EA0343136070BC70471E4B1B6884
:20690000C3F38343EFE71D4B1B68C3F38343EAE71B4B1B68C3F38343E5E71A4B1B68C3F31E
