:020000040000FA
:2000000000500020E9000000E1000000C9000000E5000000E5000000E5000000000000002E
:20002000000000000000000000000000E5000000E500000000000000E5000000E50000002C
:20004000991E0000E500000019270000E500000051120000711B0000E5000000E500000026
:20006000E50000006D270000E5000000E5000000E5000000E5000000E5000000E5000000A9
:20008000E5000000E5000000E5000000E5000000E5000000E5000000E5000000E500000038
:2000A000E5000000E5000000E5000000E5000000E5000000E5000000E5000000E500000018
:2000C000E5000000B5290000044B1A68B2F5806F03D01B689B0500D4FEE7704728ED00E09B
:2000E000FEE700BFFEE700BF08B504F03DFF104A104B9A420DD2D0430F4918440B4620F033
:2001000003000430084453F8041B834242F8041BF9D10A480A494FF000028842B8BF40F8AB
:20012000042BFADB02F03CFEFFF7CEFF08BD00BF0000002083030020B0AA0000880300207D
:2001400039280020F0B5002706463C463D4683B0304603F0ABFD0195019B9C4206DD00BF0B
:20016000019B01330193019B9C42F8DC304603F0C1FD0195019BC4F5C874A34206DA00BFFB
:20018000019B01330193019BA342F8DB0137B7F5487F06D0B7F5C87FCCBFC7F548743C46AE
:2001A000D6E703B0F0BD00BF38B5194D194C2B6820465B68012198472B6801210A461B6866
:2001C0002046984705F002F901F0BCFE01F03EFE00F0BAF803F0E0FD03F0B0FD0120FFF7E9
:2001E000B1FF0D490D4A0E4809680123136003600B691020A2F5FF521268984705F0EAF825
:2002000000F098FFBDE838400020FFF79BBF00BFD801001000400340B00100100C40094049
:200220000800094008B541F2342002F0D9FA01F039FC03F0A7FC0548082101F041F903F014
:20024000EBFBBDE808400220FFF77CBF8C20002070B584B0002302A80821294C00930193C1
:2002600001F02EF99DF80F309DF80E60E56A43EA062648F666010220A84731460320A847A8
:2002800019210120A847636B02A908221D4D0B209847A46A01206946A0472B68022B1ADC82
:2002A000022001A9A04758B92B68022B04DC0020FFF748FF04B070BD1348019906F028F990
:2002C0002B68022BF3DD114806F022F90020FFF739FF04B070BD0E490E4A0F4806F018F9E8
:2002E0000E4806F015F92B68022BD9DD0849094A094806F00DF90099094806F009F9CFE7A5
:20030000C09B000028020020509B0000DCA60000109B0000189B0000009B0000289B00000F
:20032000409B000001F058BC10B5064C042023685B699847236804205B6B98470128F9D12D
:2003400010BD00BFB8010010F0B593B005F03EF80746FFF7E9FF194B4FF4A0601B68DB699C
:200360009847174B0121174A196013689907FCD5002004F04DFC144801F05CFD442201A842
:20038000124909F095FA019C621C0FD0104E01AD336820469B6B9847336820469B694FF446
:2003A0000051984755F8044F631CF1D10FB113B0F0BD13B0BDE8F04005F00CB8B8010010E2
:2003C000282008602820084000000020649B0000B40100100120704708B501F059FE30B13B
:2003E000034B5888A0F10200B0FA80F0400908BDC000002008B501F04BFE30B1044B5B882A
:20040000022B0CBF0120022008BD022008BD00BFC000002030B583B002F0A4F8044601F075
:2004200037FE08B903B030BD0E4801A901F038FE0128F7D100F07CFE638803F44063002BF4
:20044000F0D16FF03F052D1A06E000F08DFF638803F44063002BE5D100F06AFEE842F4D4DF
:20046000E0E700BF0100010470B582B001F010FE234C10BB00256580E37B214E23F0100363
:20048000E373E37B304643F02003E373E37B01A943F04003E373E37B63F07F03E373A37F07
:2004A0005BB2C3F5FF6307339BB2238301F0F8FD012809D0284602B070BD6388022B08BFD4
:2004C0000120D7D102B070BD00F032FE73889BB2022B0DD06FF03F052D1A05E000F044FF00
:2004E00063889BB2022B03D000F022FEE842F5D4608880B2A0F10200B0FA80F04009E1E7E9
:20050000C000002008B50346B32994BF0A46B4220248194609F0CCF9002008BD0A06002024
:2005200070B50E4D0E4E2C68002006E02379022B06D024682B68A3420ED02379032BF5D134
:2005400033780120002BF4D1064803F0E3F824682B680120A342F0D170BD00BFBC03002012
:200560004F200020F401002038B50D4A0024136819681C725C721C71116002F057FA05468B
:20058000BFF35F8F074B1A7812B11C70FFF76CFFBFF35F8F2846BDE8384002F04FBA00BF42
:2005A000C40300204E2000202DE9F0432E4B83B080460F461D6800F0BBFD2C4E361A03E0DC
:2005C00000F0B6FDC6420AD52C79022CF8D0284B0020032C187008D003B0BDE8F0832C7964
:2005E000234B0020032C1870F6D1B5F80890B9F1060F27DDA9F10606BE4223DC0A3540467D
:200600002946324609F054F9DFF87480AA5DAB1988F800205B79A9F10501164F042229440B
:2006200001A83B7009F044F9019802F025F8124B124A1B7810605BB1FFF796FF304603B00C
:20064000BDE8F083FFF790FF002003B0BDE8F08398F80010042049B289B203F0BBFF3978BA
:20066000204603F0B7FFE7E7C4030020E2FAFFFF4A200020502000204F200020180C0020EF
:20068000810300200C2801D001207047042A01D0022070470029FBD0024B00201B680B60B2
:2006A000704700BF180C002070B582B001F0F0FC002837D01D4C6388022B33D11C4E00F03E
:2006C00037FD7388022B0BD11A4D2D1A04E000F04BFE7388022B03D100F02AFDE842F6D410
:2006E00001A9154801F0DCFC00F022FD6FF03F052D1A08E06388022B09D100F019FDC5424A
:2007000005D500F031FE01F0C3FC0028F2D16088A0F55050043880B201288CBF0020012005
:2007200002B070BD012002B070BD00BFC00000203001002000FEFFFF0100010410B5114BC7
:20074000114C1A680A21237E84F82410928882B003F0F80343F00803204601A96283237638
:2007600001F09EFC012802D0002002B010BD204601F0E8FCA0F10100B0FA80F0400902B072
:2007800010BD00BFCC0100200801002000B583B00A4801A901F084FC012803D0002003B093
:2007A0005DF804FB054801F0CDFCA0F10100B0FA80F0400903B05DF804FB00BFF000002013
:2007C00008B5FFF7BBFF012801D0002008BDFFF7DDFF0128F9D1FFF747FEC0B208BD00BFD7
:2007E00008B501F0F1FF012814D0FFF75DFF01F0A3FD01F005FC002210460749074B4A8095
:2008000003F510711A799033022A08BF03F88C0C8B42F7D1012008BDC0000020C80300203D
:200820002DE9F84F01F0D0FF012818D001F030FC88B901F0B3FB01F02BFC0446002840F0D3
:200840008E8001F097FC012805460BD001F074FD0020BDE8F88F574B5B88022BE9D101207C
:20086000BDE8F88F01F0E2FD53494FF42372534809F01EF8DFF88CB15148DFF88C91DFF8E6
:200880008CC1504F504E5149514B524A04704FF0020A8BF800504FF003084FF0040E0524A6
:2008A00006204D4D89F800A08CF8008087F800E0347008701A602B684749002BFBD0002025
:2008C000464A474BDFF84881086052F81CCC52F818EC52F8146C52F8105C52F80C4C52F802
:2008E000207C12E90300203343F8207C43F81CCC43F818EC43F8146C43F8105C43F80C4CDD
:2009000043F8080C43F8041C434502F12002DCD1344B354ADFF8FCC0DFF8FCE033493448A7
:200920002D4C344F344E00251862C3F824C00120C3F828E0DF621E632560116004F07EFAF3
:200940002E4804F0DFF9224613682349002BFBD000230B6001F074FC01287FF477AF01F06E
:2009600093FD2748002103460E46022588245A791E7102F0FC0265F383025A71DC809033CE
:2009800043509031B1F5107F1D4AF0D1C2F8B02101F01CFBFFF7D2FE012802D00020BDE88D
:2009A000F88FFFF7F3FE0128F8D1BDE8F84FFFF75BBD00BFC0000020BCA200001C0400219F
:2009C00090030021AE030021AB03002181030021C0030021BD0500211C100440289C000022
:2009E00000C0002180C600210010044001010E046039536311161216546B00700801002051
:200A0000C8030020790300217503002177030021A0C600212010101A136F236E70B582B0CF
:200A2000072800F2AC80DFE800F0212AAAAA5E6B70045E4B197001F02BFB00285DD05C4B91
:200A40005B88022B59D1FFF72FFE01280CBF0024032401F00DFD012800F0A080FFF7B0FE22
:200A600001280CBF2046032002B070BD012900F08E80002900F08580022002B070BD20298A
:200A8000FAD84C4C4FF47A72208AE38902FB03F302FB00F2A3F5D32302F57F42FF32A3F5B6
:200AA0005A73454803EB2243A0FB0323CAB2C3F387139A4221D0C82303FB01F13F4801F5D7
:200AC000D32303F55A73A0FB03213D4A890902FB01331B04A0FB03233A488AB29B0923826B
:200AE000E2810284A7E731F00403C5D1364BC1F380011A7819708A429DD1002002B070BDB7
:200B000031F00103B8D1C8B2AEE74FF6FF742F4DAE88A64208BFFF2309D02A460023083237
:200B200090880133A042DBB2F9D1013BDBB255F83330264C99429FDB236899429CDC019180
:200B4000FFF768FC4FF6FF739E4201992CD022461C460023083290880133A042DBB2F9D162
:200B6000013BDBB255F8332005EBC300914203F1FF3316DD5A1CF5D1FFF722FEBDE7012056
:200B800072E70191FFF72CFE019908466CE7FFF747FE012814BF0320002065E701F004FD57
:200BA0005CE70B4B1860E7E70023D9E780030020C0000020F00000201F85EB51D34D62106E
:200BC00018FCFFFF080100204F20002048A50000CC01002099B1F0B50C4683B0172800F2CC
:200BE000B980DFE800F05E9DB7B7950E8B58297886B7B7B70E7E126BB78274700E910220E3
:200C000070470020086003B0F0BD4FF6FF705B4DAB88834208BFFF2309D02A460023083252
:200C2000918801338142DBB2F9D1013BDBB255F8333000202360E6E701F02AFA002840F0F7
:200C40008D80FFF7EDFD012840F0938007460A2580266B1E13F0FF054FF000014FF0040204
:200C60000FD001A808F0FEFE40F2034301A86946ADF8043001F014FA18B19DF80260730617
:200C8000E7D0002F72D176B216F1800F26600CBF03200020B7E73A4B002093F900300B606F
:200CA000B1E701F0F5F930B1364B5888A0F10200B0FA80F0400920600020A4E72F4B0020C0
:200CC0001B680B609FE73E230B6000209BE7A0230B60002097E72C4B00201B785BB20B60C4
:200CE00091E720230B6000208DE706230B60002089E7264B00201B780B6084E7244B00208D
:200D00001B681B680B607EE718230B6000207AE70020204B08601B78F3B104230B6072E7C1
:200D20001D494FF47A72CB89098A02FB03F302FB01F2A3F5D32302F57F42FF32A3F55A7378
:200D4000164903EB2243A1FB0323C3F387132360002058E7012056E7184654E7094B5B88BF
:200D6000022B08BF00273FF472AF6AE7FFF738FD89E76FF07F032360032044E748A5000079
:200D800080030020C00000208103002050200020CC0100204F200020F00000201F85EB5130
:200DA00070B582B0044601F073F928B3244B5B88022B08BF00251FD12249221DA31C224C28
:200DC00092B29BB2100A2382E16148700A70FFF76BFC002001F098FB204601A901F060F9F4
:200DE00088B9012601F0AEFB00236380FFF73CFBE5B9304602B070BDFFF712FD01281AD0B3
:200E0000012002B070BD00F0AFFA104E317800E099B163880C4A03F44063002BF8D0508862
:200E200080B2B0F5505618BF0126DBE7FFF7D8FC304602B070BD0546BEE700F0C3FEE5E7E9
:200E4000C000002008060020300100204F20002010B50C46B32C014694BF2246B42204488A
:200E600008F026FD2046BDE81040FFF799BF00BF0A06002030B583B001F0A6FC01281BD000
:200E800001F006F9D0B1154B5B88022B1FD000258024134801A901F003F9012803D19DF835
:200EA00006406306F5D07DB90E4B64B293F90000A042D4BF0020012003B030BDFFF7B0FC95
:200EC000012806D10546E3E7FFF78AFCECE70120F2E7FFF785FC0120EEE700BF3001002037
:200EE000010003048003002010B501F0D1F880B10F4B5B88022B0BD10E4C237853B90E4BF7
:200F00001B689B0601D5012323702078C0B210BD002010BDFFF7AEFFB0FA80F040092070C6
:200F20002378002BF1D1044B6FF020021A60ECE7C00000204A20002008100440F8B51D4834
:200F400000F078FF04F06EFD012802D000242046F8BD194C002120464FF4107208F082FD69
:200F6000164F174B17481849DFF874E0174E4FF4DB720025CEF8004083E830008362C762F6
:200F80000D82CA813284FFF74BFC01280446DDD10F4B104A1D6013680F4843F02003136097
:200FA00001F0E6FA01F0EAFA29460C4802F092FBCDE700BFB8010020C8030020B00300203F
:200FC000BC030020C0000020F000002008010020081004400C100440F89B0000F4010020B5
:200FE000C403002010B5064C042023685B699847236804205B6B98470128F9D110BD00BFCE
:20100000B8010010F8B51A4A00200021C2E90001184B04201B685B6B9847012801D0FFF76A
:20102000E1FF144B00201B68DB699847124B0121124A196013689B07FCD5114A1149136839
:20104000096823F4807323F001030F4C13600B6820460E49984740F221200D4D0D490E4BA5
:2010600004273126012227602E6008601A60F8BD88030020B801001028200860282008406B
:201080000C000140C801001000000140002100043C000140080001400400244310B409497D
:2010A000094C0B68226808688342FAD1DB01074903EB52620023C1E900235DF8044BD1E9C2
:2010C00000017047082009400C2009408803002010B50B490B4C0B68226808688342FAD15A
:2010E000DB01094903EB52620023C1E9002302F08BF800B910BDBDE8104002F065B800BF72
:20110000082009400C2009408803002010B504F05DF9034B1C6808B904F05CF9204610BD20
:2011200008200940704700BF0146012000F052B803F07ABD2DE9F04104F048F91D4E1E4BEC
:201140001E4F32680124002580464FF480314FF480703D601C60186019601368284623211A
:201160009847336820461B6824219847336802201B6825219847124A1249136843F4E02317
:2011800013600D6003F050FD0F4B1049104A1B6800F50070086014603C601B69142098472B
:2011A000B8F1000F01D0BDE8F081BDE8F04104F011B900BF840100100420094000002443D4
:2011C0000020094008200940B00100101C200940A0022443431E012B10B41BD9042802D0A3
:2011E0005DF8044B704700231A4610F004001CBF0E4C216013B10E4B0121196012B10D4B84
:2012000001221A600028EBD00B4B01221A605DF8044B704710F0010302D0084A0123116043
:2012200010F00202E1D0064C2160DEE72020094080022443A0022443C0022443182009403C
:201240001C200940014B1868704700BFC006002008B5FFF76DFF184B1860FFF739FF174B57
:201260001B686BB9164B1B68E3B9164B1B6833B11549164B00204FF4803208601A6008BD04
:20128000124B4FF480721A6003F0CEFC00F205200F4B20F4FF7020F001001860084B1B6832
:2012A000002BE2D00B49094B0020012208601A6002F03EFAD9E700BFC0060020A0002443EE
:2012C00080002443C0002443C0022443042009401C20094080022443820702D5034B01222B
:2012E0001A60C30700D4704704F074B8000C084008B504F06BF8074B1A68012A03BF064987
:20130000022219600022002814BF104642F0010008BD00BF000C084051E5CC1A03490448FE
:20132000044B012208601A60704700BF00000840FFFF0F00000C084038B5FFF7D9FF064C2D
:20134000064D0749074A012325600B601360BDE83840FFF7C1BF00BF00000840FFFF0F006B
:201360000C0008400401004303490448044B012208601A60704700BF00000840FFFF0F001A
:201380000C00084008B5064802F010FD30B1054B0121054A196013689B06FCD508BD00BF63
:2013A000C4060020000222431410094070B5054604F00CF80B4C294606460B4802F0F8FCBC
:2013C000FFF7E0FF236868681B689847236868689B6898471128F9D106B170BDBDE8704002
:2013E00003F0F8BFA0010010C406002038B5044648B9134802F0DAFC28B1234605C81343E8
:201400000028FBD19BB90F490F480B680F4D104C0068002223F4C0530B602A602260C36854
:20142000012098470B4A13689B06FCD438BD054A136823F4C05343F40063136038BD00BFC1
:20144000C406002004100940A001001080012243000222431410094038B5054603F0B6FFFA
:2014600004462946054802F0E7FC0020FFF7BEFF04B138BDBDE8384003F0ACBFC4060020AF
:2014800070B50446B0B10078C0B1A9B10025661804E014F8010F38B1B44205D000F016FBE1
:2014A000631C05F10105F4D100F056FB0128FBD0284670BD0546F7E70D46F5E70546F3E79F
:2014C00010B40B4B0B4C13F8012FFF2A0ED1A342F9D1094A39B11144013801390B7891424E
:2014E00000F8013FF9D15DF8044B7047034AF1E7C7FF0100CFFF0100F0120050C8FF0100BA
:2015000000F0E4BA014800F0F5BA00BFD91700002DE9F047038805465BB1FA2B04D18229D2
:2015200015D00120BDE8F087002303800320BDE8F087874E874C8848884A012133802380E2
:2015400003801170FA232B800120BDE8F087DFF808C2DFF8FCE1BCF80030BEF800208049AA
:2015600001209342087000F0E5804FF0000177D3B3F5A26F1AD20C467A487B4F4FF0C00993
:201580004FF0DB08002900F09480C15CDD2900F0A980DC2900F0B480002101339BB2B3F54D
:2015A000A26F00F0CB80B4F5A06FEBD90024002A00F0CA806B486C4F00234FF0C0094FF003
:2015C000DB0800296CD00178DD2900F08180DC2900F09080002101339BB29A4205D9B4F549
:2015E000A06F00F10100ECD9002402F101081FFA88F8B8F5A26F00F09880AEF80080554BE0
:201600001E88B0451ED0DFF85C9140464F46864218D019F80030C02B7ED0431C9BB2B3F5E4
:20162000A26F4FF0000007D1F1E7F95CC02974D093B2B3F5A26FEAD0B34203F101024FF045
:201640000000F2D1ACF80080484B1C80002C3FF479AF474B1B6803B1984706F049F971E7B5
:201660000C464048404F4FF0C0094FF0DB0871B1C15CDD2926D0DC2948D0002101339BB2DD
:201680009A42B2D9B4F5A06FAED80029F0D1C65CDB2E23D004F1010A3E551FFA8AF4EDE79F
:2016A0000678DB2E24D004F1010A3E551FFA8AF491E7C65CDB2E13D004F1010A3E551FFA53
:2016C0008AF46AE7661C07F804800021B4B2D5E7661C07F804800021B4B27CE70121CDE72E
:2016E00001215AE7661C07F804800021B4B254E7012170E7661C07F804900021B4B26AE75A
:20170000661C07F804900021B4B246E7661C07F804900021B4B2B1E703461648AEF800304F
:20172000ACF8008001F0F6FF8EE700239846AEF8003064E70D4B00221A8003E72AB1B4F586
:20174000A06F7FF637AF4FE714464FF0010854E73E2000203C200020402000204B20002007
:201760004C200020C806002008220020F8210020D80B0020D0010020014B1860704700BF3E
:20178000D80B002070B50D460646C020FFF7B8FE002DC8BF344608DC15E0DB2818D0FFF70E
:2017A000AFFEA31B9BB2AB420DDA14F8010BC028F3D1DB20FFF7A4FEDC20FFF7A1FEA31BF7
:2017C0009BB2AB42F1DBC020BDE87040FFF798BEFFF796FEDD20E2E738B5254A1378022B1E
:2017E00021D0032B19D0DB2804BF0223137021490C88631C9BB2B3F5A26F02BF00252B4699
:201800000D801D4D18BF0B802D889D4227D01B4BC028185514D0002038BDC028FBD1012358
:201820001370002038BD00F12403DBB2012B13D9134B10491888032308801370002038BDB6
:201840000F4A13889C4211D09D420E4808BF148001F060FF012038BD01231370C7E7084B37
:2018600003201B8810700B80002038BD0C80D2E74B2000203C20002040200020C8060020C8
:201880003E200020D001002038B50C4D02202B685B6998472B6802205B6B9847012804466E
:2018A000064BF7D11B684FF40070DB699847044B044A1C6013689B07FCD538BDB8010010F1
:2018C00028200860282008402DE9F04340F2F275DFF8DC8083B0FFF7D7FFD8F800302A4E3C
:2018E000DB682A4898473368294C5B69152098472368DFF8C090274F23F4FE63D9F80020DB
:2019000023F0020323603D60D36B032098472249D9F800300820122208600092D3F840C0C2
:201920001A48022103221323E047D8F800301748D3F804C019494FF4E1326023E04740F21E
:20194000011240F2013E1649164B142008601968154841F01001196003681449002B0CBF50
:20196000134673460B603D60036853B12368326843F0500323601369152003B0BDE8F04374
:20198000184703B0BDE8F083B001001000100040381000404410004090200240006CDC02B4
:2019A000341000402C100040DC0B002030100040D0010010B401001008B5064B02201B6847
:2019C0005B6B9847012803BF034B186800F00100002008BDB80100106C20084038B50446FF
:2019E000FFF7EAFF18B1254A13681907FCD4032C03D0234B1B6803B138BDFFF7DDFFE0B95E
:201A0000204D4FF400702B681B6A9847032C2AD01D4B01211D4A196013689B07FCD503200B
:201A200000F024FA022000F021FA132000F01EFABDE83840122000F019BA154B15481B68DE
:201A4000DB689847144B15201B685B69984740F2F270124A1249136823F4FE6323F0020354
:201A600013600860CCE72B684FF400709B6A98472B684FF400701B6B9847C9E718100040EB
:201A8000DC0B0020B80100102820086028200840D001001000100040B001001038100040BC
:201AA0004410004010B503F091FC0446054800F0C1F9054B00221A6004B110BDBDE81040A9
:201AC00003F088BCE0010020DC0B002010B50446FFF772FF08B9FFF7F7FE044B2146BDE84A
:201AE00010401B680248DB69184700BFD00100100010004010B5134B134C1860134A236854
:201B0000A8B1022111615B6A4FF40070984723684FF40070DB6A98470D4B01210D4A1960D4
:201B200013689B07FCD5BDE81040FFF7CDBE10619B6A4FF40070984723684FF400701B6B75
:201B40009847E9E7DC0B0020B8010010E0010020282008602820084008B5FFF72DFF18B11D
:201B6000024B1868C0F3C00008BD00BF1810004038B5FFF789FE40F2F2710C4B0C4A1B680A
:201B8000116013F0500F10D00A4C0B4D05E02B681B699847094B1B6823B923680848DB069A
:201BA000F5D538BDC0B29847F7E738BD401000404410004018100040D0010010DC0B0020CE
:201BC00000100040034A136823F00403136030BF704700BF10ED00E070B503F0F7FB01F023
:201BE00043FD18B1BDE8704003F0F4BB814802F0DDF80225044648B1636823B19847A84283
:201C000028BF2846C5B22468002CF5D1FFF790FA794B04461B68002B40F08B8001F0F4FA24
:201C2000002840F09280012D014600F0D680022DD8D1002840F0C3802846611EFFF7CAFA65
:201C40006C4802F0B3F806250446002800F0B080A368022003B198472369246825EA030587
:201C6000002CF5D1FFF780FB6B0705F0060400F1A280002C40F0A78000F0C2F90020FFF739
:201C8000B5FB5E495E4A0B685E4823F003030B601368016843F00F0313608B6939209847E0
:201CA000594A5A4900231360184613600B6003F0C5F9062C00F08D80554C564D564E2B68B1
:201CC0002368326823F00303236053685348032198474C4B1B689B6B98472B6803F006FB64
:201CE0004F4A3368002111604C485B680121984723684C4A012143F00303236011602B68C3
:201D000003F026FBFFF73EFBFFF7E2F9FFF72CFB384802F04BF8044628B1E36803B19847DC
:201D20002468002CF9D103F055FBBDE8704003F051BB3D4B1B681B1A022B34D4A3F28F23CE
:201D4000002BBFF66BAF01232EE001F065FA0646FFF7A4F9361A002E7FF744AFFFF772FADF
:201D6000324B00EB46211B1BCB423CD4012085427FF45DAF6FF007031B1BCB4230D404F531
:201D80008034631A31EA230128BF21460220FFF721FA274A136823F00403136030BFBDE845
:201DA000704003F017BB00239D4228BF1D4635E7FFF7DAFA06241B4B00221A6059E72846A2
:201DC000FFF708FA3CE70F4B20461B689B69984752E7022003F002FB6EE704F58031D5E7BC
:201DE00004F10801D2E7022DC4D0012D7FF4FAAEC0E700BFE00B002080022443001009406D
:201E000008100940B80100104010094020042243242208402C200940D801001000400340E7
:201E2000800104430C4009401820094071FDFFFF10ED00E00146014801F0BABFE00B002076
:201E40000146014801F0F8BFE00B002010B5054801F0A8FFBDE81040034B03201B6820216B
:201E60001B681847E00B002084010010421C0ED010B50446064B4FF4C0421B6800211B68D8
:201E80009847044AA3001A430023136010BD7047B4010010001A4442024B1868186001F060
:201EA00067BF00BFE020024070B51B4B0C461B6805465B68984714F00C0320F0E06222F433
:201EC000EC2207D0042B20D0082B21D00C2B08BF42F4403214F003030DD142F4C0422306EB
:201EE0000D4B2846BDE870401B6848BF42F480221B6800211847022B04D0012B08BF42F438
:201F00008042ECE742F40052E9E742F40032E1E742F48032DEE700BFB4010010064B1B689F
:201F2000C340DB074CBF054B054B1B6823FA00F000F00100704700BFD02002408020024006
:201F4000C020024010B584B00022412302A802920393FFF72BFA042002F0A8FE032813D027
:201F60000420032102F072FE042002F09FFE03280346F9D1074A084812680093546800213B
:201F80004FF040521C23A04702A8FFF765FA04B010BD00BFA401001000A00C4000B583B082
:201FA0000022412368468DE80C00FFF7FFF9012002F07CFE012803D00320012102F046FE7A
:201FC0006846FFF749FA03B05DF804FB00B583B00022412368468DE80C00FFF7E7F901207F
:201FE00002F064FE012803D0044B986B02F074FE6846FFF731FA03B05DF804FB48000010AD
:2020000010B582B041236846002401930094FFF7CDF90320214602F019FE012002F046FEC5
:2020200018B1044B986B02F057FE6846FFF714FA02B010BD4800001070B5038804465BB1AF
:2020400040F2BB22934203D182290AD0012070BD00230380032070BD40F2BB23238001202B
:2020600070BD094B094E1D69FFF77EF902F05CFA02F014FA8021A847002880B2ECDD02F0A8
:2020800007FAF3689847EFE7C09B000024A90000024B186800F00100704700BF9C210840CE
:2020A00010F0030370B506460D4602D1028811051FD403F08BF91F4B00301B6818BF012064
:2020C000DB0720D51C4B1D4C1E6023684CF250322B6003E02368013A2B6014D013F0FF0FDC
:2020E000F8D018B32878A0F10100B0FA80F0400970BD438003F06AF90E4B00301B6818BF8F
:202100000120DA0702D468B1002070BD338813F4405FD7D003F44063B3F5006F04BF084BB2
:202120001E60CFE703F056F9002070BD03F052F9D8E700BF9C21084000100440041004406F
:20214000080C00200A4A01E0013A0ED0438803F44063B3F5806FF7D1428802F44062A2F540
:202160008060B0FA80F0400970471046704700BF20A1070030B583B003F028F9254C0546E9
:20218000236819201B6A9847236812201B6A9847236819205B699847236812205B690834D2
:2021A0009847236801205B699847236801205B6B98470128F9D11849184B194A08601860A6
:2021C00013689B07FCD5134C164817492268002303600B60136919209847236812201B69A4
:2021E0009847A5B140F2FF35104B114A11481249002405600C60114801A91A60FFF750FF23
:20220000A0F10100B0FA80F0400903B030BD03F0E1F8E7E7B00100102C200840282008608A
:202220002820084010100460141004600010044051000706000004601C1004400100060471
:2022400010B586B00021142201A807F00BFC40F60A0215499DF811300C68012161F303031F
:2022600001A8694605948DF81130ADF80420FFF717FF012802D0002006B010BD0B4801E000
:202280000138F9D0BDF8063003F44063B3F5806FF6D1BDF8060000F44060A0F58060B0FAEB
:2022A00080F0400906B010BD1C0C002020A1070000B587B00021142201A807F0D3FB40F6EB
:2022C00009029DF81130012161F3030301A869468DF81130ADF80420FFF7E2FE012803D0E8
:2022E000C0B207B05DF804FB104801E00138F8D0BDF8063003F44063B3F5806FF6D1BDF88F
:20230000063003F44063B3F5806F03D0002007B05DF804FB064B1A782AB9064A0599012083
:2023200011601870DDE70120DBE700BF20A107004D2000201C0C002030B587B003F046F854
:20234000314C0546236819205B699847236812205B6998472D4B1B68DA071AD52C492D4A37
:2023600000230B6002A819461360102207F07AFB40F60D029DF81530012161F3030302A870
:2023800001A98DF81530ADF80820FFF789FE01282CD0FFF78DFF2048204B00240121204A55
:2023A0000460196013689B07FCD51E4C012023689B699847236801205B6B98470228F9D114
:2023C000114C192023681B6A9847236812201B6A9847236819201B699847236812201B69EF
:2023E00098470DB902F0F6FF07B030BD0E4A01E0013ACED0BDF80A3003F44063B3F5806F7B
:20240000F6D1BDF80A30C4E7B00100109C21084010100460141004602C2008402820086045
:2024200028200840B801001020A1070008B503F021FB052803460BD003280DD018B1012864
:202440000FD0002008BD094B03221A60012008BD064A0120136008BD044B02221A60012028
:2024600008BD024A0521116008BD00BFD021084008B5FFF71DFFFFF7E3FE012802D0FFF760
:202480005BFF002008BD00BFF8B5174B174A19781268174B002914BF00241C46D30700D431
:2024A000F8BD02F093FF0646124A134B1348144F144D00213B60046011602B6819201B6ADC
:2024C00098472B6812201B6A98472B6819201B6998472B6812201B69984706B1F8BDBDE88C
:2024E000F84002F077BF00BF4F2000209C2108400000C0801010046000004080141004601D
:2025000018100460B0010010084B1B7833B1002002460749074B0A6018607047064B074960
:20252000074A002814BF18460846F2E74F20002010100460141004600800C0800200C080A5
:202540000000C080044A054B1178054A002918BF00231360704700BF4F2000200000C080EA
:2025600014100460014B1868704700BF080C0020014B1860704700BF100C002038B5064BA9
:20258000064C1D6806484FF43441064A0023256000F002FF012038BD04300440E40B0020D8
:2025A000E80B002019260000164B1B68DBB170B59B68984708B9002070BD02F007FF124BEF
:2025C000124C1D680646002115F1804022684FF0000341F10001994208BF904209D3256011
:2025E0001EB1012070BD0020704702F0F3FE012070BDFEF79DFD064A064913680860013371
:202600001360ECE7100C002004300440E40B00200C0C0020140C002070B5134B1B68B3B1CF
:202620009B689847D8B9114D2B6A984701280ED1FFF7BAFF6B6A0446984744B1BDE8704056
:202640000B484FF434410B4A002300F0A5BE08488021084A0023BDE8704000F09DBEFFF7A8
:20266000A3FF0446E9E700BF100C0020C09B0000E80B002019260000F8B5224C2368002B25
:202680003DD09B680646984700B3FFF78DFF1E4BB6F1404F1F6825D822681C4BB2F90C40BF
:2026A0001968E517641A65EBE1750022A41945F10005A01845EB0701090241EA106143F68F
:2026C00009520023000206F0E9FDF8BD104D2B6A9847FFF769FF6B6A98470B4BB6F1404F7A
:2026E0001F68D9D9FEF724FD0A4B1B68C3F17E4303F57203C34248BF07F1FF37CCE7184686
:20270000F8BD00BF100C00200C0C00201C0C0020C09B0000140C002010B5104B1B68DA076A
:2027200004D4FFF727FD012800D010BD0C4C23685B0204D40A4B6FF000421A6010BD094B38
:20274000012209481A7000F0E5FF6FF480032360034B6FF000421A6010BD00BF9C21084044
:20276000101004604E200020F401002008B5124B1B68D90707D4114803F0CAFEFFF7FAFCDA
:20278000012800D008BD02F021FE0D4B1A6812020BD40B4B1A6812F00A0F1CBF6FF00A0264
:2027A0001A60BDE8084002F015BE6FF400021A60044800F0AFFFECE79C210840DCA50000CB
:2027C00010100460F4010020014B1878704700BF5120002008B500F08BF880B208BD00BF97
:2027E00000F010B938B50C4D04202B685B6998472B6804205B6B984701280446064BF7D198
:202800001B6840F20140DB699847044B044A1C6013689B07FCD538BDB8010010282008602A
:2028200028200840034B1B68002B14BF01200220704700BF200C0020F8B503880446002B87
:202840002ED0B3F5847F05D1184B1B788B4205D00120F8BD002303800320F8BD144D2B6819
:2028600073B1144B144A1B6812685B680220174698470026301847F100012B6898472E60B2
:202880000E4B40F201401B689B6A98470C4B01210C4A196013689B07FCD50B48FFF7D0FABC
:2028A0004FF4847323800120F8BD00BF82030020200C0020CC01001004800240B801001049
:2028C00028200860282008400402002008B5064B04201B685B6B9847012803BF034B18687F
:2028E000C0F34000002008BDB80100103C20084070B5274B1B689BB1264C0023224612F826
:20290000011B29B90133042BF9D10020014670BD214A002502EBC302E55492E8030070BDD3
:20292000FFF7D4FF00282FD01C4A1D4B1268134073B91C4A01211346116018680028FCD119
:2029400002464FF4807103F0F1F8174B01221A6002F03CFD0646114A1368DB07FCD5134BC2
:20296000134A1B6814685B680220984723460022141843F1000516B12046294670BD02F08C
:2029800029FD2046294670BDFFF72CFFCCE700BF200C0020240C0020900300200880024063
:2029A00001000080F09F0240A8025042CC0100100480024038B50E4D00240E4A2C6013681B
:2029C0000D4923F00103096813604B6931209847204622464FF4807103F0A8F80122074BB8
:2029E0002A6019782246BDE83840054800F046BEA80250420C800240B00100108203002086
:202A00001802002010B5074C2378802B00D010BD00F0B2FD207000210348BDE8104000F001
:202A200059BE00BF820300201802002008B502F0CDFC003018BF012008BD00BF80F31088B2
:202A4000704700BF827A044B03EBC2035B68C01AB0FA80F040097047280C0020F0B54749C2
:202A6000837A85B001EBC303D3E84F2F12F0FF0F09D10124C3E8424F1346BFF35F8F3BB109
:202A8000032005B0F0BD0123BFF35F8F002BF7D10446827A3A4B01EBC20148601B68C0781D
:202AA000DB6B384F9847384DA37A3A6805EB0313526958689047A37A3A6805EB0313586849
:202AC000536B9847012806462E4A2F4BF3D1A17A126803EB0113D269986890472B4B2C4A99
:202AE0001E6013689B07FCD5A37A03201B01EA582849536923F00F035361A37A1B01EB584A
:202B00001862A37A0A6826891B01E85817683EB1237A002B2CD0637A002B14BF0326022643
:202B20006168082332468DE80A001B490023B847A37A134A26781B01E85813686178A27842
:202B400000965E6C4FF0FF33B047A37A114E1B01EA58536843F002035360A37A32681B015A
:202B6000E85803A9136998470028F6D105B0F0BD637A002B14BF01260326D1E7280C002086
:202B8000B4010010B801001040A600002820086028200840C4010010006CDC0270B5214DCF
:202BA000837A05EBC3025268904201D0042070BD1D491E4A096802EB031304460A6A9868B5
:202BC00090471B4B01221A601A4A13689B07FCD5194E607833689B6B9847336860784FF454
:202BE00000519B6998473368A0789B6B98473368A0784FF400519B699847336820789B6BA6
:202C00009847336820789B694FF400519847A37A002005EBC3035860A37ABFF35F8F05F8C6
:202C2000330070BD280C0020B801001040A600002820086028200840B40100102DE9F04FD7
:202C4000344C857A85B004EBC5046468A04203D0042005B0BDE8F08F1F462F4BDFF8C49080
:202C60001B6809EB051504465B6B686890460E469847012803D0052005B0BDE8F08FA37AC3
:202C8000264909EB0312D26809681142F3D00E9A0F9902EB010AC2455246B8BF4246002AEB
:202CA000019235D0D8BF03AD26DDDFF874A04FF0000B03ADD845CCBF16F80B1000210391C7
:202CC000DAF800201B0159F8030053689847A27ADAF800301201DB6859F8020029469847E3
:202CE0000E9B5B45C4BF039B07F80B30019B0BF1010B9B45A37ADDD1094E00E0A37A3268F3
:202D00001B0159F803002946136998470028F5D100209EE7280C0020B801001078200840E9
:202D2000C401001040A6000070B5094C236863B10E46054602E054F8043F33B128463146E6
:202D400098470028F7D0012070BD002070BD00BFE0A90000FEF716BD70B5067804460D2ED2
:202D600018DCD6B140780C2814D806EB46060136012502E060780C280CD8A178E3780335E8
:202D800043EA012101F026FCB54204F10304F1D1304670BD4FF0FF3070BD0126F8E700BF19
:202DA00070B5664CFDF700FAFEF72CF900F0BEFC00F0EAFB6248002100F08CFC00F0B2FAD6
:202DC000FEF7ACFA00F04EF900F0EAFCFDF72AFA01F04CFC00F050FA2368022B3ADC0822C8
:202DE0005849594806F064FD5848002100F072FC4FF0FF3004F0DAF823680546022B4F4E47
:202E000011DCFDF725FA524800F020F9FEF794FA00F0D4FB0446FEF7A7FA14F0FF0FF7D113
:202E2000FDF780FAF4E74B494B4A4C4803F070FB4B4803F06DFB3368022BE2DD002D7AD042
:202E4000A81C00F0C9F82368022BDADD454803F05FFBD6E73F49404A404803F059FB42488C
:202E600003F056FB2368022BB9DD3A493A4A3B4803F04EFB3D4B3E48196803F049FB2368A9
:202E8000022BACDD3349344A344803F041FB394B3948196803F03CFB2368022B9FDD2D497D
:202EA0002D4A2E4803F034FB344B3548196803F02FFB2368022B92DD2649274A274803F000
:202EC00027FB304848F6660103F022FB2368022B85DD2049204A214803F01AFB2A48192199
:202EE00003F016FB2368022B7FF779AF19491A4A1A4803F00DFB254B2548198803F008FBE1
:202F00002368022B7FF76BAF1249134A134803F0FFFA204803F0FCFA2368022B7FF75FAFDD
:202F2000084800F069F82368022B7FF758AF0D4803F0EEFA53E7284683E700BF2802002070
:202F40002C0200208C200020002200202C030020D8A90000109B000060A60000009B0000F9
:202F600028A70000DCA6000068A600007CA900009CA60000A0AA0000ACA6000024A9000022
:202F8000B8A60000C4A60000E0A600004220002000A7000010A7000010B541600446FEF75E
:202FA000B5F8206010BD00BF10B50446FEF7AEF894E80A00034A0B44C01A90428CBF002075
:202FC000012010BDFEFFFF7F10B590E818001C44FEF79CF8201A10BD00B58BB002462821C2
:202FE000684604F037FA6946024803F091FA0BB05DF804FB4CA70000D0B170B5054601266D
:203000000024C4B1E30709D50D48297803F080FA082E0CD0013601350134F2E7094803F01B
:2030200077FA0748297803F073FA082EF2D170BD054803F06DBA2978014803F069FAE9E732
:2030400080A700007CA700006CA7000010B50446006830B1002100F03DFB54F8040F0028EB
:20306000F8D110BD704700BF10B50E4C2368B3B1FEF714F822685168136892681944091AFD
:203080004AB192E8180023441B1A9268994228BF1946002AF5D1044B0844186010BD024AD0
:2030A000136010BD380C00203C0C00202DE9F041038805467BB1592B08D1872912D0822921
:2030C00020D059232B800120BDE8F081002303800320BDE8F081254A0120136059232B8099
:2030E000BDE8F081214F3B68002BEAD0D9688A4203D024E0D9688A4220D19B68002BF9D1E8
:203100003B60DEE7194F4FF000083C68002CD8D0002604E0A3682646002BD2D01C46204612
:2031200000F030FB0028F5D0E0688821224600F0A5FA78B10E4800F0EDFAEBE73B609968DB
:203140000029BED0C86882420BBF89680B4699608968F5E7E060A3682EB1B360C4F8088071
:20316000FFF782FFD1E73B60F8E700BF380C00202C02002010B50446104800F0CBFA1049C0
:20318000E3680A684BB142B194420FD0134601E09C420BD09B68002BFAD10A4BA2601B6808
:2031A0000C60E360BDE81040FFF75EBF054B1B68E360BDE81040FFF757BF00BF2C02002034
:2031C000380C0020440C0020014800F0A3BA00BF2C02002010B5044600F0BEFA2046BDE8B6
:2031E0001040FFF7C7BF00BF10B5044600F0BCFA2046BDE81040FFF7BDBF00BFC068B0FA31
:2032000080F04009704700BF024B1868003018BF01207047380C0020024B186808B1024B9C
:2032200018687047380C00203C0C002010B5114B04461A68904218D05AB19368834208BF52
:2032400013460AD02BB19A68A24206D01346002BF9D10023A360E36010BDA2689A60FFF725
:2032600003FF0023A360E36010BD82681A60FFF7FBFEEEE7380C0020034A04499079D3799B
:2032800003EB00230B8070478C20002042200020F0B5038883B005465BB14A2B04D18829D8
:2032A0001BD0012003B0F0BD00230380032003B0F0BD194800F07AFD044630B1201DA16840
:2032C000FFF788FF2468002CF8D1144B01221A704A2301202B8003B0F0BD0F48019200F071
:2032E00065FD04460028F3D0019A031D9A4205D02468231D002CEBD09A42F9D106482146BD
:2033000000F09AFD064E6269A369376832600BB1E06998473760DBE7400C0020522000208F
:20332000440C002010B5064B002406481C7000F039FD2146BDE81040034800F0CBB900BF09
:2033400052200020400C00203C02002070B504460D48049D0078A261E361656130B9A1603D
:203360000A482146BDE8704000F022BD084D094B2E68201D2B60FFF72DFF2E602146BDE8AD
:203380007040024800F014BD52200020400C0020440C00203C02002010B5044C82B02468D3
:2033A0000094FFF7D3FF02B010BD00BF440C002070B5094B04461B783BB1084D084B2E6883
:2033C00004302B60FFF710FF2E602146BDE87040044800F0EDBC00BF52200020440C002039
:2033E0003C020020400C002010B50A4B04461B783BB9C36003612146BDE81040064800F0F7
:203400001BBD0430FFF712FF2146BDE81040024800F012BD52200020400C002038B50B4BF3
:203420001D785DB904460A4800F0C0FC10B90AE0006840B18442FBD1002038BD0430BDE80D
:203440003840FFF7DBBE012038BD00BF52200020400C00202DE9F843DFF8A480274DD8F802
:2034600000702E68874247D077B33B4601E0002B3BD01B689842FAD133B3837B894604467F
:2034800023B3002383736FB1BC424FF0870106D0BB7BDB0703D53846224600F033F83F68EA
:2034A000002FF1D1A3683BB14C4505D02C6004F10C00832100229847D8F80000844208D11D
:2034C0002368C8F800302E60BDE8F88338468442F6D00028F7D00368A34208D0002BF2D0B5
:2034E0001A68A24204D01346F8E7BDE8F883034622681A602E60E7E73B46BDE7440C0020FC
:20350000480C002070B586687EB104460A4802230460A37304F10C000D46B047023801280C
:2035200004D9832D02D00123A37370BD20462146BDE87040FFF78EBF440C002070B50C4A75
:203540000C4B146800251D7084B1012601E0246864B1E37B002BFAD0A673E573204682213B
:203560000022FFF7CFFF2468002CF2D170BD00BF480C002055200020024B1878421C1A7030
:20358000704700BF5620002070B407480749084A0023084D084C8A2603700B6013602E709F
:2035A000237070BC704700BF54200020480C0020440C002056200020532000202DE9F041EE
:2035C000244D2B780BB1FFF7B9FF234E3378D3B1DFF890E0214F9EF80020013B02EB4201F4
:2035E00089007C180132A068DBB202F01F0233708EF800207F5CD4F8048098B1812F06D090
:20360000827BD20705D428781844BDE8F0810123837339464246FFF775FF337828781844B7
:20362000BDE8F0810E4A146834B9ECE7A37BD9070AD42468002CF0D02B78002BF6D0FFF702
:203640007DFFA37BD907F4D5204639464246FFF759FFEEE755200020542000204C0C0020F6
:20366000480C002053200020024A034B10781B78184470475420002055200020F0B40C4D55
:203680002C78202C11D00B4B0B4E1B78671C234403F01F0303EB43039B00F418A06062607B
:2036A0002F70F1540020F0BC70470120F0BC704754200020532000204C0C002038B5837B95
:2036C000034CDB07256801D5FFF71CFF256038BD440C002070B404460D4D2868A04206D04B
:2036E00038B1034600E023B11B689C42FBD170BC7047002CFBD0012600232060A673A381D6
:203700000A4620462C60812170BCFFF7D7BF00BF480C002038B1837B013B012B03D8024A64
:2037200001231370C373704755200020FDF7FABC10B5084C206858B10022436881682260D4
:203740009847236823B1BDE810401868FDF7ECBC10BD00BFCC0D002010B541600446FDF7F1
:203760009DFC206010BD00BF10B50446FDF796FC22686168C2F101031844884284BF521832
:20378000226010BD10B50446FDF788FC23686268C3F10103184482422CBF0020012010BD2D
:2037A00000B50B4B83B001A90A4A99421160019388BFCD2005D95A1C01921870019B8B42E1
:2037C000F9D305480021FFF785FF03B05DF804FB39280020D00D00204C02002038B5134CF6
:2037E000FDF7C2FD2378124DCD2B08D0AC4202D316E0AC4214D014F8013FCD2BF9D1AC42C5
:2038000002D30DE0AC420BD014F8013FCD2BF9D0FDF7AAFDAC42064804D2001B80B238BD21
:20382000FDF7A2FD4FF6FF7038BD00BF392800200050002070B5038804465BB1902B05D105
:203840001848FFF7DBFC70B9012070BD00230380032070BD13484FF4A061FFF7BBFC9023CF
:203860002380012070BDFFF7B9FF0F4D0F4B06465D1BADB2A8420DD90D4B1B68002B09DD14
:203880000C490D4A0D4802F043FE31462A460C4802F03EFE0348FFF7A7FC90232380012030
:2038A00070BD00BFD40D002039280020005000202802002038A800003CA80000009B000081
:2038C00044A8000010B5044690F84C308021013384F84C3020302346054AFFF75DFD054B74
:2038E0002246BDE8104019780020FFF7C7BE00BFC53800003528002070B5038804464BB110
:20390000CB2B03D1822909D0012070BD00230380032070BDCB232380012070BDFFF786F8C2
:20392000BFF35F8F104B00221E681A60BFF35F8F0E4DFFF783F8286820B9EBE755F8040F63
:203940000028E7D090F8453026FA03F3DB07F5D5FFF764FD0028F1D0286802210346044A3F
:20396000FFF71AFDEAE700BFF00D0020B4000020B1390000034A1368034303481360FFF70D
:20398000C9BE00BFF00D00205C02002010B5044690F84500FEF7C2FA10B994F8440010BD53
:2039A000012806BF94F8440080F00100002010BD70B50446FFF732FD00B970BD04F1200557
:2039C0002846FFF72BFD06462046FFF7DFFF01280ED00028F1D1002EEFD12846FFF704FD91
:2039E0000A4B30462246BDE870401978FFF746BE002EE2D000262346284684F84C607E2110
:203A0000034AFFF7C9FC034BEBE700BF34280020C5380000362800202DE9F843FFF7ACFDD8
:203A2000244B254C1870FFF7A7FD244BDFF8A0801870FFF7A1FD224D2368224A00212870E3
:203A4000C8F80810C8F8042053B3DFF888901E4F0126D9F800209D6C926B93F84500904783
:203A6000236845F08C05294693F84500FEF71CFA2268D9F8003092F8450006FA00F23A60C5
:203A80001B6B98472368D8F8082093F8451054F8043F06FA01F10A43C8F80820002BD8D1D4
:203AA0000A480021FFF716FEBDE8F843084800F059B900BF36280020B400002034280020CA
:203AC0003528002075390000E02002405C020020E40D0020B4010010F8B5048805466C2C09
:203AE0000CD07E2C1BD01CB1002303800320F8BDFFF742FD1E4A1F4B10701C601D4C264632
:203B000004E00A2813D023687E2B2BDD1A4800F01FFA431CF5D16C232B800120F8BD852922
:203B200001D00120F8BD134C00232360E6E7114C124F23680E49002603F1010E3A46097842
:203B40003046FE54C4F800E0FFF798FD0C4B324618688521FFF792FD0028E5D17E232B80D2
:203B60000120F8BD05495A1CC8543260CEE700BF37280020FC0E0020740E00207C0E002094
:203B8000440C002008B505480549802200F0D8F9BDE8084003480021FFF79CBD740E0020B0
:203BA000F40D00206C02002010B1837A012B01D901207047FEF752BF10B1837A012B01D9F0
:203BC00001207047FEF7EABF10B50446FEF73AFF08B9042010BDE178024A01238B40136079
:203BE000002010BDA0200240C178034A01238B4013600020704700BF9020024010B584B06D
:203C00008DF80F1010B1827A012A02D9012004B010BD0446FEF716FF10B9032004B010BDDA
:203C200000232046009301930DF10F010122FFF705F8ECE780B170B5847A82B0012C02D94F
:203C4000012002B070BD044615460E46FEF7FAFE20B9032002B070BD012070470023204642
:203C600031462A4600930193FEF7E8FFE9E700BF80B170B5857A82B0012D044602D90120D0
:203C800002B070BD16460D46FEF7DCFE20B9032002B070BD012070470021009620462B4686
:203CA00001910A46FEF7CAFFEAE700BFF0B40E4C0E4F22460E4E0023012540FA03F1C9076E
:203CC00006D5517851B114F8131005FA01F1316002320BB1F0BC70470123EEE714F8131012
:203CE00005FA01F13960F3E7609B000090200240A0200240F0B40E4C0E4F22460E4E00232F
:203D0000012540FA03F1C90706D5517851B114F8131005FA01F1316002320BB1F0BC7047D5
:203D20000123EEE714F8131005FA01F13960F3E7609B0000A02002409020024038B5074DC7
:203D4000074C2B682078DB6B98472B68A078DB6B9847BDE838400320FFF7CCBFB40100106A
:203D6000609B00000146014800F022B8000F002038B50546074800F019F8044640B1A068F4
:203D8000284002D0636803B198472468002CF6D138BD00BF000F0020014800F003B800BF76
:203DA000000F002000230360704700BF00687047026842B1914203D11BE099420ED01A46A1
:203DC0001368002BF9D100230B6002680AB90EE01A461368002BFBD1116070470B681360EA
:203DE00000230B6000230B600268002AF1D1016070470B680360F3E710B404684CB1A14279
:203E000017D0224602E0994208D01A461368002BF9D10C6001605DF8044B70470C460B6801
:203E200013600023236004680C6001605DF8044B70470B680360F4E7026842B18A4203D127
:203E40000BE0994204D01A461368002BF9D170471968116000221A607047134612680260C7
:203E6000F8E700BF03682BB100201B680130002BFBD170471846704700B10068704700BF37
:203E800010B5044600216288406805F0EBFD23886288A06802FB03F2BDE81040002105F0E9
:203EA000E1BD00BF30B44588BDB141680B7863B14A1C002303E01478114601322CB10133B3
:203EC000AB42F8D1002030BC704701220A700288806830BC03FB020070472846F3E700BFB0
:203EE000F0B44588074682686DB18A420ED006880023324402E0914209D022460133AB4214
:203F000002EB0604F7D1FF20F0BC704700237A68D05C0028F8D00138D0547A68F0BCD05C28
:203F2000704700BF83688B4208D84288008800FB023081422CBF0020012070470020704777
:203F40000023013A0160027143718371704700BF0346807959791A79091A114208D010B458
:203F6000411C1C680A40205C9A715DF8044B70474FF0FF30704700BF08B50448FFF780FFD2
:203F8000BDE808400248FFF77BBF00BF880200207C02002038B50F48FFF784FF044688B173
:203FA0000D48FFF77FFF0546206060B100F04AFA05F19C01A5F8800005F1820000F0E4FA32
:203FC000204638BD38BD21460248FFF789FF284638BD00BF7C02002088020020016801F19D
:203FE00082009C3100F0D0BA10B5044607482146FFF798FF00B910BD21680548FFF770FFE5
:204000002146BDE810400148FFF76ABF7C0200208802002010B5044609482146FFF782FF56
:2040200000B910BD2468B4F88010204600F08CFA04F1820004F19C01BDE8104000F0B6BAF8
:204040007C020020036803EB4101B1F882007047F9B1EAB130B4CD684C68521B92FBF4F253
:20406000541C18D053B90C68835C012101FA04F423EA04038354084630BC70470B68845C45
:20408000012101FA03F32343835430BC084670471146084670470021EDE700BF38B50F4D86
:2040A000002818BF05460E48FFF780FE044650B12846211D00F0F0FA40B92046FFF7DCFEEC
:2040C00004460028F4D14FF0FF3038BD054B06489B68E41AA41000FB04F038BD90A80000D7
:2040E000B414002094020020ABAAAAAA78B179B1C2684368891A91FBF3F14B1C06D0054AB2
:204100000368505C184100F00100704700207047084670477815002010B10368072B0ED9B9
:204120000C4A1368072B12D830B40B4D5C1C03608160146045F82300012030BC7047064AB2
:2041400052F823309842EBD18160012070470020704700BFA815002088150020F8B5074649
:204160000C46184D184E1FB344B3FB687868E41A94FBF0F4611C04EB440421D0AB6803EBFF
:204180008400FFF779FEB0B1AC68001B841006FB04F35A1C0FD07C68FA6804FB032454B14C
:2041A00038462146FFF7A2FF0028DCD02046F8BD3846FFF761FE00242046F8BD2046E0E755
:2041C0000020DEE794020020ABAAAAAA38B505461148FFF7EBFD044668B1104A104B92681A
:2041E000841AA41003FB04F4A5B1631C10D06B68EA6803FB042428462146FFF777FF08B17D
:20420000204638BD28462146BDE83840FFF7A6BF0024F0E72C46EEE7B41400209402002016
:20422000ABAAAAAA2DE9F04F5A4D85B0002918BF0D4604462846FFF731FF431C064612D0E6
:2042400054B36268E36802FB06360021304605F009FC2146504832460123FFF7F9FE30467A
:2042600005B0BDE8F08F4D48FFF71CFE0646B0B180464A4F4A484146FFF79AFDBA68494B58
:20428000B61AB61008F10400294603FB06F600F0FFF90CB1731CD4D162680026D5E7404815
:2042A000FFF784FD002872D03C4FDFF80091DFF8F480DFF8E4A0B34602E0FFF7DDFDD8B150
:2042C000BB68C31A9B1008FB03F319F80320002AF3D11AF803303049002B51D013F0010FFB
:2042E00018BF01325B10F9D10EB19345E5DD9346002A49D00646E0E70196002E47D0264BAA
:204300000293019BBA680395C2EB030A55461E46DFF89CB0A24615E0846814B3214B03FBDC
:2043200008F8B8F1FF3F1BBF4168C2684FF0000901FB08294946FFF7D9FE01280CD01A4BAE
:204340009B4511D05BF8040F4FEAA5080028E3D1144B03FB08F8F2E74846A047BB68019A0B
:20436000D51A4FEAA508F3E70199029A00230C4802F808305446039D8846FFF75DFD79E7F7
:2043800016B1BBF1000F98D002910190B9E7002665E700BF90A800007815002094020020A3
:2043A000B4140020ABAAAAAAA4150020A41400208415002038B505460846FFF76FFE85B1E3
:2043C000431C0CD06C68EB6804FB003428462146FFF78CFE002814BF2046002038BD002459
:2043E000F4E72C46F2E700BF70B505460C460023294622460548FFF72BFE0646294622468D
:2044000000230348FFF724FE304670BD78150020A414002088B189B1C2684368881A90FB79
:20442000F3F0431C08D0064B00EB40009B6813EB800002D0043070470020704708467047CC
:2044400094020020F8B50E4D0E4C2A7823881344802B01DD0020F8BD06460B4F394605F028
:2044600027FA0A4B29781B7870181944C9B23944228805F01DFA287823881844F8BD00BFE4
:204480005720002044200020AC15002046200020014B1880704700BF44200020044B054A1E
:2044A0001B78127804481344DBB21844704700BF4620002057200020AC15002000487047E0
:2044C000AC150020014B1888704700BF44200020054A064B10781B78054A03441088DBB29F
:2044E000184480B2704700BF57200020462000204420002038B5094D094C00211A220948D1
:2045000005F0B0FA2846214600F0C2F805F108002146BDE8384000F0BBB800BF6020002039
:2045200090A800007020002004480549054A002303800B801370FFF7DDBF00BF462000201F
:204540004420002057200020802928BF802170B50C4606460849094A094D00230B80137021
:204560002B80FFF7C7FF31462246064805F0A0F92C80204670BD00BF4620002057200020FE
:2045800044200020AC15002010B50C461A22054905F08EF92046BDE810400349102205F0CB
:2045A00087B900BF7020002060200020034610B50C461A221946054805F07AF92146BDE8F0
:2045C00010400348102205F073B900BF7020002060200020024B23F810100120704700BFBF
:2045E00070200020014B33F8100070477020002008B5044B0D3803EBC00000F049F80120CC
:2046000008BD00BF60200020024B0D3803EBC000704700BF602000200148024900F03CB8A8
:204620006820002090A8000070B505460E480E46FFF7BCFB044660B1012D0CD01DB96368CD
:204640000BB1984770B92046FFF716FC04460028F2D1002070BDA368002BF4D03046984757
:204660000028F0D070BD00BF2C160020054B10B51B689847044B5B689847BDE81040034B59
:204680005B681847C09B000024A90000A0AA0000082205F00DB900BF08B5082205F0D6F838
:2046A000B0FA80F0400908BD08B50848FEF780FE0748FFF78BFD40B1037A01465B080372F8
:2046C0000348FFF74BFD0028F6D108BD94200020A002002010B500210548FFF71DFDBDE81F
:2046E000104004484FF4E131034A0023FEF754BEA002002094200020A9460000F8B5FCF72D
:20470000CDFC104F06463C4600250D20FFF77CFF2146FFF7C1FF103420B90135102DF4D16E
:204720000020F8BD0720FFF75DFF07EB05152B7B8342F5D1A868301AB0F5206F8CBF0020F5
:204740000120F8BDF0160020F8B5194F00243D460D20FFF759FF2946FFF79EFF18BB01341C
:20476000102C05F11005F3D112480F24013C07EB041600E0013C3146102205F099F8304696
:20478000103E002CF6D10720FFF72CFF3873FCF785FCB8600D20FFF737FFBDE8F8400146DC
:2047A0000348FFF775BF002CEDD02846DEE700BFF0160020E0170020844618B10846114634
:2047C0001A466047704700BF002070470020704730B591B0FFF776FE0546FFF75FFE294611
:2047E0006A466C4600F0B2F8B8B19DF817305BB1022B0CBF022308236B4403E013F8012D59
:20480000FF2A0DD1A342F9D102A90D20FFF7F0FE07209DF81A10FFF7DDFE002011B030BDA1
:2048200021460E20FFF7E4FEEEE700BFB8B1037A30B4022B14D00378022B1DD00379F3B9DF
:20484000447A14F0030418BF0124C37913F0030318BF012301B10C6002B1136030BC70476C
:20486000C579447A037965B1B4B1032D29D1032C31D0022C16D0D3B100231C46EAE70024D9
:20488000E3E70CB9012B23D0002BF5D1023C012C8CBF00240124DDE72BB1032D11D123465F
:2048A0000024D7E7A3B90DB90123EFE70123022DECD0032DF4D1A4F10204B4FA84F46409C8
:2048C000C8E7022DD5D1002CECD143B12346C1E701230024BEE7002BE8D00023E0E7234643
:2048E000D4E700BF2DE9F0470278437884B0C2F3001CC2F3401E02F00709C2F3C008C2F370
:20490000801403F0010AC3F34007C3F38106C3F3011508469B0901A90A228DF804908DF899
:2049200005808DF806C08DF807E08DF808408DF809A08DF80A708DF80B608DF80C508DF8EB
:204940000D3004F0B5FF04B0BDE8F087012950DD2DE9F041144686B00F4603A90546FFF732
:20496000C1FF03A904F110000A2204F0A1FF9DF81130002B39D0AE1C03A801A902AAFFF73B
:2049800055FF9DF81380B8F1000F43D0029B002B34D0727816F8023B03EB0223A383B8F1ED
:2049A000020F56D0B8F1030F3BD09DF81580B8F1000F27D0019BF3B1717816F8023B029A11
:2049C00003EB01239BB2E383D2B1B8F1020F4AD0B8F1030F31D0701B3B1A8742B8BF0020BF
:2049E000A663E36306B0BDE8F081AB78EE1CA376C2E700207047A38BE383E6E7A383CEE79A
:204A0000A383E2E704F108001C49FFF741FEA4F81E80E0E720461949FFF73AFEA4F81C80E1
:204A2000C3E706F108000346621E13F8011DB34202F8011FF9D10646B7E708363246E31D62
:204A400004F10F0012F8011D03F8011F8342F9D1C1E720460949FFF71BFE7378237016F885
:204A6000023B6370A1E704F108000449FFF710FE7378237216F8023B6372ACE790A80000E5
:204A800030B504461A4A83B010680023019020468DF800308DF80130FFF796F810B1FE20F0
:204AA00003B030BD01A920460422FFF7C3F828B12046FFF799F8FF2003B030BD20466946D5
:204AC0000222FFF7D5F805462046FFF78DF80DB1FF20E5E79DF80030C22B01D02846DFE763
:204AE0009DF80100A0F11400B0FA80F04009D7E7A4A8000030B5052383B08DF804300446CB
:204B0000FFF762F840B9204601A90122FFF792F848B12046FFF768F8002003B030BD9DF88F
:204B20000730DB0708D520460DF107010122FFF79FF80028F3D0ECE72046FFF755F80120DB
:204B400003B030BD10B5184C82B0002818BF04462378FF2B03D02046FFF726F810B100201E
:204B600002B010BD2046FFF73FF8AB2320468DF80730FFF729F848B920460DF1070101228C
:204B8000FFF758F858B12046FFF72EF82046FFF777FF0128E4D02046FFF70EF8DFE7204607
:204BA000FFF7A8FFEFE700BFA8A8000070B5174C002818BF04462046FFF79CFF054640B967
:204BC00000252046FEF7F8FF002818BF0025284670BD2046FEF7F8FF06460028F0D12046B2
:204BE000B921FFF70BF860B92046FEF7FDFF0A262046FFF745FF731E0028E2D013F0FF062F
:204C0000F6D120463546FEF7EFFFDAE7A8A8000010B50446FFF796FF00B910BD2046BDE8CD
:204C20001040FFF7C3BF00BF10B4064A064C1368206811688B42FAD11B0443EA10405DF882
:204C4000044B7047082009400C20094070B50D46C10782B004461AD4A2070DD4630709D5EC
:204C6000104BADB21B6800955C680F4800210C220223A04702B070BD0A4AABB2126800934F
:204C800056680948002102220123B047E6E7054AABB212680021009356680B460248012282
:204CA000B047D9E7A401001000A00C4010B5084B04281B684FF03401DC6807BF4FF0C04216
:204CC0001D234FF080521C230248A04710BD00BFA401001000A00C4070B5064600F076FB14
:204CE0000546074A1368064C002BFBD0B0470123236005B170BDBDE8704000F06BBB00BFAA
:204D000000800C4043F6060270B4038893421FD043F60702934217D040F60202934201D035
:204D200070BC7047C67B4369002BF9D044F2380403F1140519681A4688B2A04203F1040338
:204D400009D0AB42F6D1EBE790F82460C369EBE7C3690226E8E7C1F303400028E0D0B31E27
:204D60001C2B44D8DFE803F0374343322D43434328432343431E4343434343434343434361
:204D8000434343430F00254B1B68C3F383430F2B42D09842C4D221F4702141EA0343136043
:204DA00070BC70471E4B1B68C3F38343EFE71D4B1B68C3F38343EAE71B4B1B68C3F3834335
:204DC000E5E71A4B1B68C3F38343E0E7184B1B68C3F30323DBE7174B1B68C3F383430F2BBD
:204DE000D7D121F4702141F48021116098E7114B1B68C3F383430F2BCBD1053E192EF0D81C
:204E000001200D4BB0400340002BEAD021F4702343F4E023136083E7053EF1E708110050BE
:204E20000411005000110050FC100050F810005020130050801300502104000210B9054B52
:204E4000187070470449034B0020202208701A70704700BF02620840006208402DE9F04101
:204E600007460E46904600F0B1FA084D2B68074C002BFBD0012347F80680236008B1BDE825
:204E8000F081BDE8F04100F0A5BA00BF00800C4038B50546284B0121284A19601368002B93
:204EA000FCD0274AC021274B11601B689B070AD4254BA2F57F321B68A2F5D572C3F30343D9
:204EC00043F0F0031370214A214B002111601C68204600F00DFB2846214600F09FFC40F24C
:204EE0001D221C4B1B689BB2934212D81A4A13681268C3F30363C2F30342CBB9911F0129B0
:204F000083BF023202F00F0212017022134913430B70204600F04CFB114B02201B68DB6865
:204F2000984707490F4B4020012208601A6038BD013BDBB2E2E700BF1010094094022243D9
:204F400000600C40B03F0050AC3F005040100940B43F005014130050BC1200500260084010
:204F6000A00100109404604238B51E4B00251C68631C08BF002400F0CDFD1B481B491C4AF6
:204F8000012305600B60136000F016FD194B1B6823B1194B20461B68FFF77AFF174B0021AD
:204FA000174A19601368174923F07F6323F4702343F09C7343F4803313600B68C3F30133A1
:204FC000012B04D0104A1368002BFCD138BD0B6823F0407323F4403343F400320A600B600E
:204FE000F0E700BF1C130050840460425C600C400822044380012843000120438C210840B4
:2050000048200340040009400C0068420849094B094A1B680878126840B2A2F5407202FB35
:2050200000F043F31003A3EB20108030001270470C13005030500940285009402DE9F84FAA
:20504000984B1B6813F0020407D09749974B984A082088711A60BDE8F88F0646FFF7D6FF88
:20506000944B1B681A179F0202F1010540F1B58003F04072B2F1807F00F0BE808E4A1168D7
:205080008E4AC1F3046112681529C2F3044788BF2039152F00D9203F4A19152A00F399809D
:2050A00012F10A0F80F2E88041F616716FF00902DFF824E2824DAEF80010296811F00305D6
:2050C00018BF0125490748BF45F002050EB145F00405754E96F90710411A042903DCB17949
:2050E000A94200F0C780B0F10F0100F1BA8001EB01110C12072C00F2AC8000F0CA8004F116
:205100000108DFF8D8E14FEA8808DFF8D4C1C644C444F0462402DEF800E0DCF800A015F024
:20512000040CCEEB0A0A5FFA8AFB1CBFCAF3072EF34415F0020E1CBFCAF30749CB4415F09F
:2051400001097CD10C1B04FB0BF48034240AD8F800805FFA88F1BCF1000F02D0C8F3072C53
:205160006144BEF1000F02D0C8F3074E7144B9F1000F01D001EB1861BA1A002A0C444FF0B9
:205180003401C8BF5143DAB202FB01F24FF6FF71B2FBF4F38B4228BF0B467F289AB2B280D0
:2051A0004BDC10F1800FB8BF802370DAF371B571444B1E2A19683C48134631602BD81F233F
:2051C0008380414B3948414A002103601160BDE8F88F41F6157115226AE7C0F13E02D210FB
:2051E000082AA8BF08229542B8BF154603F04072B2F1807F7FF442AF354A1168344AC1F36E
:20520000042112681529C2F3046788BF2039152F7FF642AF3FE7B2F5007F28BF002230D3EF
:205220005B08B3F5007F02F10102F9D229490F3B1B09114341EAC303C4E77F23B6E70BEB1E
:205240001A6A091B01FB0AF48034240A4FF001097DE7DFF890804FF4E064C446DFF888E066
:2052600059E705F0040C05F0020E05F00109DFF870806CE7B2889BE702F01F0141F4F8517F
:2052800016E70F3A1209134BD20013439AE7C3B28CE7DFF85080DFF850E0C4464FF4E0647F
:2052A00039E700BF00000940F017002030100940FDFDA400B43F0050B81200503C1100507E
:2052C000242208400820094008E7A480341009408813005000E7A4806E6208409813005026
:2052E0009C130050B8130050B413005038B5154B1C68A4B204B938BDFFF788FE124B93F93F
:205300000720904216DB9A880F49944210D34FF6FF700E4B0D681B68A41A02335B1B1F2BB8
:2053200028BF1F235B08DC401444844228BF04468C8038BD6FF07F029042B8BF1046D871AD
:20534000E1E700BF34100940F017002008200940194B1B6813B3194A116801F04062B2F1E2
:20536000406F1BD016480268920717D4154A1268920713D410B4144A0468126814F0050FCE
:20538000C2F3035202F11C024FEA021207D0934202D224F0050404605DF8044B7047934274
:2053A000FAD90A0158BF44F001044B01044B58BF44F004041C60EFE728500940B43F00507B
:2053C00000000940B03F0050AC3F0050EFF3108072B67047EFF3108062B6704701280AD075
:2053E00018B1084B01221A607047074A136823F0050313607047044A136843F005031360B5
:20540000704700BF8001044300000940064B1B68C3F30260C3F3C162800040EA0220C3F3BE
:2054200081531843704700BF98130050064B1B68C3F30510C3F3892200041B0340EA8250AE
:205440009BB21843704700BF98130050F0B5234B1B68C3F30467152F214B34D91B78203FCD
:2054600003F01F03152B1ED81E4A002111601E4C1E496FF00106012010E0B242B8BF3246BC
:20548000134403F01F0242F4F852BB420D68DFF85CE022804FF0010C086008D0FA1A022A2E
:2054A000EBDD0222ECE7203B9F42DDD1F0BD0D4BDEF80020CEF800C0DEF80020C3F800C051
:2054C000DEF80030F0BD1A7802F01F03152B01D9203BC9E79F42C7D1F0BD00BF881300507E
:2054E00006620840980020436C6208402C20094000F04073B3F1807F70B504462BD0224B39
:205500001B68C3F30463152B36D803EB24730133152B1DDC13F10A0FB8BF41F616732DDA50
:205520001A491B4A0B8013681A4913F002030ABF194A44F040641360C4F3C063174AC4F3C9
:20554000806483F0010384F001040B60146070BD41F61573E4E74FF6D8051149114A124EAA
:20556000802333700D801370FFF770FF0F4B1B68C3F30423152BC8D9203BC6E703F01F03B8
:2055800043F4F853CCE700BFB81200506E620840000009400000204394042A4308002043C9
:2055A00066620840156208402562084088130050F8B5C0F38143012B2CD0022B2ED14F4B50
:2055C0001B681B0702D44E4B40221A604D4A4FF400714D4B11601B68C0F38150C3F3C143C6
:2055E00043F03003012882F8883037D020D3022819D104200321FFF729FB47F61800434B97
:20560000434C1B68434903F03F03434A237008801368F8BD3C4B1B689A034BD53F4B4FF04F
:2056200000421A60CBE704200221FFF70FFBE4E743F2BD7604200121FFF708FB384D39483D
:20564000394B86240121394A2E60046019601368002BFCD0344B00221A60CEE7FFF726FBB3
:20566000044604202146FFF7F1FA0420FFF71EFBA042FAD12E4B2A4E18682A4C2A4B87B2FF
:20568000C0F307450121294A3760256019601368002BFCD0274B244A1B68002111601B68F7
:2056A0004FF06022000E072198471C4B4FF480621A609EE7194A20494FF4804414600A68D0
:2056C000C3F3033422F08F022243C3F3004442EAC4121A4C0A602268C3F3032122F00F0282
:2056E0000A431749256822600A6803F0E70322F0E70213430A680B6061E700BFB03F00502B
:2057000068A00C4080A00C408C1300506C1300500BB00C4070B00C402C20094040A00C40D7
:205720003C600C4040600C4044600C4084088C43A83F0050B40100100C6008400B600840E7
:205740000A600840174B82031B68C3F38361C3F38F230ED440F30722002A0DDA5B0806D1A2
:2057600049084FF001030CBF19464FF6FF730132F4D143EA01407047FBD05B0043F001033A
:20578000B3F5803F4FEA410007D340F001010F2986BF4FF6FF730F210123013AEDD143EA6E
:2057A000014070475013005070B4194A194B11681B68C1F3035213F00103C1F303450ED06D
:2057C00012052B048CB2212842EA040243EA020384BF01F080410B43184670BC70470E4CBA
:2057E000246844F30326B2180DD40F2A0DDD4FF4700244F303346419E4D40F2CD4BF2304A2
:205800004FF47023DEE71A46F3E71205F1E700BF78130050B03F0050AC3F005030B5044681
:2058200083B00846FFF78EFF182102465448FFF715FB544B54491A681B68C2F3870203F0CF
:20584000030342EA03230A68009355684C482C2140F2FF320023A8474C4B49481A681C21F1
:20586000C2F30D02FFF7FAFA494B45481A68142102F0FC32FFF7F2FA464B10211A684048D4
:2058800022F07F4222F44032FFF7E8FA2046FFF78BFF0C2102463A48FFF7E0FA212C20D8E3
:2058A0003D4B222111221F2C19701A704FD8344828210022FFF7D2FA384A3948394B6025B0
:2058C000157080244FF47C41374A047019802C480821FFF7C3FA354B4FF480021A6003B04F
:2058E00030BD334C2C4A2368C3F300735B0043F02003DBB213702368C3F3407343F0100317
:20590000DBB21370FFF782FD282102461C48FFF7A5FA284B214A1B682149C3F301535B0048
:2059200043F0600313702368C3F3C063DB0063F07F03DBB20B702368C3F345539B0043F487
:205940007C43A2F89030FFF771FD0246BFE7FFF75DFD282102460A48FFF780FA154B0F4D7D
:205960001B680F48C3F301535B000E4A43F0600380244FF47C412B7004701180E3E700BF2D
:2059800000A00C4050130050A40100107C130050741300507013005049A10C404CA10C40BB
:2059A00041A10C40DCA10C4000803F4040A00C408C13005098130050164A1368002BFCD108
:2059C0001549164A0B68126823F00053520723F0070319D410B4124A43F00053146843F0FE
:2059E0000400A4070CD043F007030B60136803F00303032BFAD1084B18605DF8044B7047E1
:205A000008605DF8044B704743F0005343F005030B6070470C00684204400340B03F005064
:205A2000004003404BF69A11114A1368C3F30F338B4212D04BF6BE12934216D04BF64132FA
:205A4000934207D04BF62030834214BFFF20022040B27047032040B2704713681B0F0B2BE0
:205A60000CBF0420002040B27047012040B270471813005010B50A4B1C68FFF7D3FF01289A
:205A8000C4F303340AD1082C05D00F2C0CBF0120FF2040B210BD002040B210BDFF20F8E752
:205AA0009412005038B5194A194B1B6814681D0FE4B2802C28BF0024FFF7B4FF04281BD8FC
:205AC000DFE800F00E0803030400ADB90A34E0B240B238BD6DB1022D0ED11434E0B2F7E7EE
:205AE0006B1E072B08D8DFE803F004070C0707070E090A2040B238BDFF20E9E71634E0B232
:205B0000E6E71420E4E71520E2E700BFA01000501813005008B5FFF785FF012800D0FEE76C
:205B2000FFF7C0FF1328FADD08BD00BF4FF6FF3330B40A4D12022C6802F47062090AC0F332
:205B40008710090410432340054A24F4806408430B432C602B60106030BC70471480024007
:205B600018800240102970B50C46054602D80AE0102C0BD92B686868084910229847103C5B
:205B80000028F5D070BD08460029FBD022462B6868680249BDE87040184700BFB4A80000C4
:205BA0002DE9F04F82460F468FB007924FF0000B3B78002B00F0E880252B08BF3E461BD095
:205BC0003C4602E0252B04D014466378621C002BF8D1974216460CD0D51B39462A46DAF8D4
:205BE0000030DAF804009847002840F079826378AB44002B00F0C88073780136002B00F003
:205C0000C38019460025A1F12003102B1BD8DFE803F0171A1A141A1A1A1A1A1A1A111A0ED2
:205C20001A1A090045F0100516F8011FEBE745F00105F9E745F00605F6E745F00805F3E789
:205C400045F00205F0E7A1F13102082A0B46374600F2DC80A1F13002092A4FF000040AD802
:205C600004EB840403EB440417F8013F303CA3F13002092AF4D92E2B00F0D1804FF0FF36E8
:205C80006C2B00F03D81682B00F04281782B00F28180DFE813F079007F007F007F007F00A4
:205CA0007F007F007F007F007F007F007F007F007F007F007F007F007F007F007F007F00F4
:205CC0007F007F007F007F007F007F007F007F007F007F007F007F007F007F007F007F00D4
:205CE000BE027F007F007F007F007F007F007F007F007F007F007F007F007F007F007F0073
:205D00007F007F007F007F007F007F007F007F007F007F007F007F00BB027F007F007F0055
:205D2000B802B502B2027F007F007F007F007F007F007F007F007F007F007F007F007F00CB
:205D40007F007F007F00AF027F007F007F007F007F007F007F007F00AC027F00A902A6029D
:205D6000A302A0029D027F00A6027F007F007F007F009A0297027D007F007F0091027F0058
:205D80008E027F007F00940258460FB0BDE8F08F45F4407505F4E063B3F5806F07F101079D
:205DA00000F0CE804FD9B3F5C06F00F0A581B3F5E06F00F09A81B3F5A06F7FF4F9AE079B1B
:205DC000012C1A6803F1040307938CBF04F1FF340024EB078DF8202000F1D08150462146F2
:205DE000FFF7C0FE002840F07B81DAF80030DAF8040008A901229847002840F071810BF1CA
:205E0000010C0CEB040505EB040BD1E62A2900F08C800B462E2B4FF000047FF42FAF7B783F
:205E2000791CA3F13002092A7AD80F46002606EB860603EB460617F8013F303EA3F13002CD
:205E4000092AF4D91CE7B3F5807F00F0B080B3F5407F7FF4ADAE079BC34A1968C34815F4FF
:205E6000804F03F1040308BF9046079318BF80460A460023002900F094810DF1330948461B
:205E8000110941EA03714FEA131E02F00F0673460A4618F8061000F8011D52EA0301EFD193
:205EA000B9EB0006034600F07E810336B4424FF030024FF078014FF0230300F8022C8CBFD2
:205EC000A41B0024EA0700F8011C00F8033CA0F1030800F1A18150462146FFF743FE002897
:205EE00040F0FE804146DAF80030DAF8040032469847002840F0F4805E4406EB040B57E693
:205F00007B786C2B00F00481013745F06005BDE67B78682B00F09381013745F04005B5E636
:205F20002A2B00F091810F46A8E6079B771C1C680433002C0793B8BF45F0010573789AE654
:205F4000079BD3F8009004330793B9F1000F00F08F8299F80030002B00F0B2824B4613F80D
:205F6000012F002AFBD1C9EB0308002E02DBB04528BFB04644458CBFC8EB04040024E907BC
:205F800000F1E08050462146FFF7ECFD002840F0A7804946DAF80030DAF804004246984787
:205FA000002840F09D80D84408EB040B00E6002EABBF25F0100501230196019315F40053FB
:205FC000049305F0E00300F0A880402B00F07F8200F24181002B00F02D82202B40F05A8209
:205FE000079B1A1D079293F90020D317002A73F10001C0F22A82CDE902230023059305F41D
:20600000C053B3F5805F00F09281B3F5C05F00F0BF81B3F5006F00F067810DF136064FF084
:206020000008019B41F20802984541F6080303EA050380F0338101999342C8EB0101019191
:2060400000F0468141F6080201999342414400F031814FF000094A46049B73B1059B002B4C
:2060600040F0838105F00603022B00F01B824048062B04BF02464FF0010909EB01039C4251
:206080008CBFE41A002415F00103049306D1E80640F1F681019B2344049C0193B9F1000F96
:2060A00007D01146DAF80030DAF804004A469847B0B9019B08EB0B05102B40F291819B4603
:2060C00003E0BBF1100F40F28E81DAF80030DAF80400284910229847ABF1100B0028F0D0D8
:2060E0004FF0FF300FB0BDE8F08F079B1A680433C2F800B007935BE5DAF80030DAF80400D8
:206100001D49012298470028EAD10BF1010B4FE5BB7845F080050237B8E5402B00F0C68193
:2061200000F2A980002B00F09881202B40F02181079B049A05921A1D07921A780023CDE9E1
:2061400002235CE74946DAF80030DAF80400424698470028C4D150462146D844FFF702FD3E
:2061600000283FF421AFBBE7E8A80000D4A800000CA90000C4A8000018A90000DAF8003062
:20618000DAF8040008A9012298470028A8D1504621460BF10105FFF7E5FC00283FF433AEC3
:2061A0009EE70DF13303302203F8012C581E04267CE645F41065EDE545F48065EAE545F404
:2061C000C855E7E545F48855E4E545F4E065E1E545F48135DEE545F40075DBE545F4024513
:2061E000D8E545F42455D5E545F4A065D2E545F4C135CFE545F4B245CCE545F4A135C9E500
:2062000045F48445C6E545F44245C3E545F4E135C0E545F4C065BDE54146DAF80030DAF81A
:2062200004003246984700287FF45AAF504621465E44FFF797FC00283FF45FAE50E7BB7865
:2062400045F02005023721E5079ABB78111D07911668023714E5602B00F0EC80802B40F099
:206260001981079B073323F0070303F108020792D3E90023BAE6602B00F0EF80802B78D197
:20628000049B0593079B073323F0070303F108020792D3E90023CDE90223B0E6934200F022
:2062A000EC800022019241F608020199934241447FF4CFAEDDE9022313433FF4CAAE874BDA
:2062C00015F4804F864A4FF0020908BF1A46C3E60B46002908BF01230193019B4FF000091F
:2062E0004A4603EB0801B7E6DDE9028942464B46134300F0E7800DF136031E4606934046A9
:2063000049460A22002302F0C9FF30324046494606F8012D00230A2202F0C0FF80468946AD
:2063200058EA0903EBD1069BC6EB030879E6DDE90223134300F0C6800DF1360306939E466C
:20634000DDE90223D00840EA4370DE0802F007013346024630310EF8011D52EA0301F1D175
:20636000069B7646CEEB03085BE64FF001095D4A83E605F4C053002200200021B3F5805F6C
:206380000592CDE90201D2D0B3F5C05F40F08580DDE90201544A554B15F4804F14BF904687
:2063A000984602460B46134300F08C800DF1360306931E4602460B46110941EA03714FEA55
:2063C000131E02F00F0073460A4618F8001006F8011D52EA0301EFD1069BC6EB030820E6E3
:2063E000019B9B464BB15A46DAF80030DAF804003F49984700287FF473AE31464246DAF8B8
:206400000030DAF804004D44984700287FF468AE019B2B441E46049B002B3FF46EAD504638
:206420002146FFF79FFB00287FF45AAE06EB040BFFF7BEBB079B1A6804330793002A4FEAFB
:20644000E27373F10001BFF6D6AD524263EB4303CDE9022301230593D1E5049A079B0592FE
:206460001A680021104604330793CDE90201C6E5DFF884904FF0060877E5012301932CE78F
:20648000504621460292FFF76DFB029A00283FF405AE25E600220023ADE5DDF814800DF11A
:2064A0003606BEE5134A4FF00109E6E5079B049A05921A1D07921A880023CDE902239EE5C2
:2064C000984652E54FF000080DF13606A9E5079B1A1D0792B3F90020D31787E500A900005B
:2064E000FCA8000004A90000D4A80000E8A80000C4A8000008A9000010A900000AB9002086
:20650000704708B508461146FAF7BAFF002008BD0FB400B583B004AB53F8041B04481A4663
:206520000193FFF73DFB03B05DF804EB04B07047B002002038B515460446436800689342EB
:2065400098BF03F1FF352A4603F0B2F994E80C002A445D1B84E82400002038BD0CB430B5F6
:2065600087B00AAB53F8044B094D029003911A46214604A802AC019304950594FFF710FB31
:20658000029B00221A7007B0BDE8304002B0704735650000014B1B6A184700BFC09B000099
:2065A000014B5B6A184700BFC09B0000F0B593B0FDF788FF0446FDF771FF0546FDF782FF80
:2065C000032819D0264B9B689847002814DB0E20FEF71AF82349FEF75FF878B1FEF78EF8AC
:2065E000064680B102AF284621463A46FEF7AEF99DF81830012B12D013B0F0BDFEF70CF828
:206600000028EBD1F8E702AFFEF79EF8284621463A46FEF79BF99DF81830012B04D19DF82A
:206620001B3033B9002EE7D10F4B9B68984713B0F0BD38460B49FEF72FF80028F2D09DF824
:2066400022000A4B002102228DF806008DF80510DB688DF8042001A803219847E2E700BF39
:2066600098A800008C200020A0AA0000C09B000000F072B910B500F01DFABDE81040014B41
:206680001B6A1847C09B000070B590F82D300546012B0EDD1F24FCF79DF8B0FBF4F12B4683
:2066A00001FB1401054A05F10C00BDE87040FCF773BE033301249C40013CECE755670000FC
:2066C0002DE9F0470D4614468B680746506BD3F80090D3F8048092F82C60FDF7ADFB686899
:2066E000FDF782FCA9681748FDF7FAFB29461648FDF7F6FB606BFDF759FB78B1002384F842
:206700002C3084F82D302046FFF7BEFF484641463A463346BDE8F047FEF74EB804F10C0045
:20672000FCF762FE21460948FDF786FB21460848FDF7D6FB484641463A463346BDE8F04773
:20674000FEF73AB8B8020020C40200206C180020D0020020002800F0B6802DE9F043064619
:2067600085B0406BFDF722FB002878D04068FDF751FC76490D20FDF73BFF01210820FDF777
:2067800029FF734B5B68984700286BDBFDF796FE704C87786568FDF791FE8046FDF798FE20
:2067A00001464046A847FDF737FFA369054601939847002840F08580002D7BD1D4F81C80EB
:2067C000C04700287DD1A3681D46FDF781FEA847002874D1FAF7ACFC6FF0A209C0EB09099F
:2067E00006E0FAF7A5FC19EB000F04D5FAF7BCFDC0470028F5D0019B984718B9C04700281C
:2068000000F09E80FAF794FC6FF040052D1A05E0FAF78EFCC54204D5FAF7A6FDC0470028FB
:20682000F6D0C04700287FD102271CE096F82D200132D2B2052A86F82D2096F82C2006D9A9
:2068400001320021D2B286F82C2086F82D101B7A934245D8214632460120FFF731FF05B079
:20686000BDE8F0830527706BFDF7A0FA044630B9F5E72046FDF700FB04460028EFD00721AE
:206880006068FDF7DFFB05460720FDF7ABFE8542EFD1A368002BE2D0032F35D801A252F8B8
:2068A00027F000BFEF6800002D680000C96800005F680000A468FDF70BFEA04790B30228C1
:2068C00028D10127CFE7704796F82C2000210132D2B286F82C2086F82D101B7A93421BD995
:2068E0003046FFF7D1FE6068FDF778FBB7E796F82C3000200133214686F82C3086F82D0066
:206900003246FFF7DDFEAAE7384621463246FFF7D7FEA4E70427A6E7214632460220FFF73B
