:020000040000FA
:2000000000500020E9000000E1000000C9000000E5000000E5000000E5000000000000002E
:20002000000000000000000000000000E5000000E500000000000000E5000000E50000002C
:20004000391B0000E5000000B9230000E50000005D12000011180000E5000000E500000044
:20006000E50000000D240000E5000000E5000000E5000000E5000000E5000000E50000000C
:20008000E5000000E5000000E5000000E5000000E5000000E5000000E5000000E500000038
:2000A000E5000000E5000000E5000000E5000000E5000000E5000000E5000000E500000018
:2000C000E500000055260000044B1A68B2F5806F03D01B689B0500D4FEE7704728ED00E0FE
:2000E000FEE700BFFEE700BF08B505F0D3FF104A104B9A420DD2D0430F4918440B4620F09C
:2001000003000430084453F8041B834242F8041BF9D10A480A494FF000028842B8BF40F8AB
:20012000042BFADB03F0F8FAFFF7CEFF08BD00BF00000020750800202027010078080020EA
:20014000412E0020F0B5002706463C463D4683B0304604F0DDFA0195019B9C4206DD00BFCD
:20016000019B01330193019B9C42F8DC304604F0F3FA0195019BC4F5C874A34206DA00BFCB
:20018000019B01330193019BA342F8DB0137B7F5487F06D0B7F5C87FCCBFC7F548743C46AE
:2001A000D6E703B0F0BD00BF38B5194D194C2B6820465B68012198472B6801210A461B6866
:2001C0002046984706F098F901F00CFD01F08EFC00F0C0F804F012FB04F0E2FA0120FFF74E
:2001E000B1FF0D490D4A0E4809680123136003600B691020A2F5FF521268984706F080F98D
:2002000000F09EFFBDE838400020FFF79BBF00BFD801001000400340B00100100C40094043
:200220000800094008B541F2342002F029F901F089FA04F0D9F9074801F0ACFA064808217E
:2002400001F052F904F0F0F8BDE808400220FFF779BF00BF954500003C25002070B584B0D6
:20026000002302A80821294C0093019301F03CF99DF80F309DF80E60E56A43EA062648F609
:2002800066010220A84731460320A84719210120A847636B02A908221D4D0B209847A46AEE
:2002A00001206946A0472B68022B1ADC022001A9A04758B92B68022B04DC0020FFF742FF16
:2002C00004B070BD1348019907F0B8F92B68022BF3DD114807F0B2F90020FFF733FF04B019
:2002E00070BD0E490E4A0F4807F0A8F90E4807F0A5F92B68022BD9DD0849094A094807F0E6
:200300009DF90099094807F099F9CFE788FA00005806002018FA00003C1B0100D8F90000E3
:20032000E0F90000C8F90000F0F9000008FA000001F0A2BA10B5064C042023685B69984782
:20034000236804205B6B98470128F9D110BD00BFB8010010F0B593B006F0CEF80746FFF71A
:20036000E9FF194B4FF4A0601B68DB699847174B0121174A196013689907FCD5002005F0E9
:20038000DDFC144801F0A6FB442201A812490FF015F8019C621C0FD0104E01AD3368204619
:2003A0009B6B9847336820469B694FF40051984755F8044F631CF1D10FB113B0F0BD13B00C
:2003C000BDE8F04006F09CB8B80100102820086028200840280400202CFA0000B4010010BE
:2003E0000120704708B501F0A3FC30B1034B5888A0F10200B0FA80F0400908BDE804002002
:2004000008B501F095FC30B1044B5B88022B0CBF0120022008BD022008BD00BFE8040020D8
:2004200030B583B001F0EEFE044601F081FC08B903B030BD0E4801A901F082FC0128F7D14E
:2004400000F07CFE638803F44063002BF0D16FF03F052D1A06E000F08DFF638803F44063F0
:20046000002BE5D100F06AFEE842F4D4E0E700BF0100010470B582B001F05AFC234C10BBED
:2004800000256580E37B214E23F01003E373E37B304643F02003E373E37B01A943F040030B
:2004A000E373E37B63F07F03E373A37F5BB2C3F5FF6307339BB2238301F042FC012809D0B6
:2004C000284602B070BD6388022B08BF0120D7D102B070BD00F032FE73889BB2022B0DD0D6
:2004E0006FF03F052D1A05E000F044FF63889BB2022B03D000F022FEE842F5D4608880B2A5
:20050000A0F10200B0FA80F04009E1E7E804002008B50346B32994BF0A46B422024819460D
:200520000EF04CFF002008BDFA0A002070B50E4D0E4E2C68002006E02379022B06D02468C8
:200540002B68A3420ED02379032BF5D133780120002BF4D1064803F0E5FD24682B68012096
:20056000A342F0D170BD00BFAC080020F52400200C06002038B50D4A0024136819681C72B8
:200580005C721C71116002F0A1F80546BFF35F8F074B1A7812B11C70FFF76CFFBFF35F8FE5
:2005A0002846BDE8384002F099B800BFB4080020F42400202DE9F0432E4B83B080460F468A
:2005C0001D6800F0BBFD2C4E361A03E000F0B6FDC6420AD52C79022CF8D0284B0020032C5A
:2005E000187008D003B0BDE8F0832C79234B0020032C1870F6D1B5F80890B9F1060F27DD17
:20060000A9F10606BE4223DC0A354046294632460EF0D4FEDFF87480AA5DAB1988F8002083
:200620005B79A9F10501164F0422294401A83B700EF0C4FE019801F06FFE124B124A1B78F7
:2006400010605BB1FFF796FF304603B0BDE8F083FFF790FF002003B0BDE8F08398F8001042
:20066000042049B289B204F08DFD3978204604F089FDE7E7B4080020E2FAFFFFF224002057
:20068000F6240020F5240020F40B0020730800200C2801D001207047042A01D00220704778
:2006A0000029FBD0024B00201B680B60704700BFF40B002070B582B001F03AFB002837D0AA
:2006C0001D4C6388022B33D11C4E00F037FD7388022B0BD11A4D2D1A04E000F04BFE73883D
:2006E000022B03D100F02AFDE842F6D401A9154801F026FB00F022FD6FF03F052D1A08E0F4
:200700006388022B09D100F019FDC54205D500F031FE01F00DFB0028F2D16088A0F55050E0
:20072000043880B201288CBF0020012002B070BD012002B070BD00BFE8040020580500206F
:2007400000FEFFFF0100010410B5114B114C1A680A21237E84F82410928882B003F0F803E1
:2007600043F00803204601A96283237601F0E8FA012802D0002002B010BD204601F032FBBC
:20078000A0F10100B0FA80F0400902B010BD00BFF40500203005002000B583B00A4801A9D4
:2007A00001F0CEFA012803D0002003B05DF804FB054801F017FBA0F10100B0FA80F0400918
:2007C00003B05DF804FB00BF1805002008B5FFF7BBFF012801D0002008BDFFF7DDFF0128CF
:2007E000F9D1FFF747FEC0B208BD00BF08B501F03BFE012814D0FFF75DFF01F0EDFB01F0EE
:200800004FFA002210460749074B4A8003F510711A799033022A08BF03F88C0C8B42F7D1C1
:20082000012008BDE8040020B80800202DE9F84F01F01AFE012818D001F07AFA88B901F0D8
:20084000FDF901F075FA0446002840F08E8001F0E1FA012805460BD001F0BEFB0020BDE808
:20086000F88F574B5B88022BE9D10120BDE8F88F01F02CFC53494FF4237253480EF09EFD77
:20088000DFF88CB15148DFF88C91DFF88CC1504F504E5149514B524A04704FF0020A8BF842
:2008A00000504FF003084FF0040E052406204D4D89F800A08CF8008087F800E034700870C4
:2008C0001A602B684749002BFBD00020464A474BDFF84881086052F81CCC52F818EC52F871
:2008E000146C52F8105C52F80C4C52F8207C12E90300203343F8207C43F81CCC43F818ECB0
:2009000043F8146C43F8105C43F80C4C43F8080C43F8041C434502F12002DCD1344B354AF0
:20092000DFF8FCC0DFF8FCE0334934482D4C344F344E00251862C3F824C00120C3F828E0D9
:20094000DF621E632560116005F00EFB2E4805F06FFA224613682349002BFBD000230B603A
:2009600001F0BEFA01287FF477AF01F0DDFB2748002103460E46022588245A791E7102F0EF
:20098000FC0265F383025A71DC80903343509031B1F5107F1D4AF0D1C2F8B02101F066F906
:2009A000FFF7D2FE012802D00020BDE8F88FFFF7F3FE0128F8D1BDE8F84FFFF75BBD00BF98
:2009C000E8040020840101001C04002190030021AE030021AB03002181030021C003002166
:2009E000BD0500211C100440F0FA000000C0002180C600210010044001010E0460395363BB
:200A000011161216546B007030050020B8080020790300217503002177030021A0C60021CB
:200A20002010101A136F236E70B582B0072800F2AC80DFE800F0212AAAAA5E6B70045E4B69
:200A4000197001F075F900285DD05C4B5B88022B59D1FFF72FFE01280CBF0024032401F025
:200A600057FB012800F0A080FFF7B0FE01280CBF2046032002B070BD012900F08E8000299A
:200A800000F08580022002B070BD2029FAD84C4C4FF47A72208AE38902FB03F302FB00F286
:200AA000A3F5D32302F57F42FF32A3F55A73454803EB2243A0FB0323CAB2C3F387139A4211
:200AC00021D0C82303FB01F13F4801F5D32303F55A73A0FB03213D4A890902FB01331B04EA
:200AE000A0FB03233A488AB29B092382E2810284A7E731F00403C5D1364BC1F380011A78B1
:200B000019708A429DD1002002B070BD31F00103B8D1C8B2AEE74FF6FF742F4DAE88A64204
:200B200008BFFF2309D02A460023083290880133A042DBB2F9D1013BDBB255F83330264CB6
:200B400099429FDB236899429CDC0191FFF768FC4FF6FF739E4201992CD022461C4600235C
:200B6000083290880133A042DBB2F9D1013BDBB255F8332005EBC300914203F1FF3316DDAE
:200B80005A1CF5D1FFF722FEBDE7012072E70191FFF72CFE019908466CE7FFF747FE012894
:200BA00014BF0320002065E701F04EFB5CE70B4B1860E7E70023D9E772080020E804002031
:200BC000180500201F85EB51D34D621018FCFFFF30050020F524002010040100F405002098
:200BE00099B1F0B50C4683B0172800F2B980DFE800F05E9DB7B7950E8B58297886B7B7B725
:200C00000E7E126BB78274700E91022070470020086003B0F0BD4FF6FF705B4DAB888342FA
:200C200008BFFF2309D02A4600230832918801338142DBB2F9D1013BDBB255F83330002025
:200C40002360E6E701F074F8002840F08D80FFF7EDFD012840F0938007460A2580266B1E8B
:200C600013F0FF054FF000014FF004020FD001A80EF07EFC40F2034301A86946ADF804303F
:200C800001F05EF818B19DF802607306E7D0002F72D176B216F1800F26600CBF0320002059
:200CA000B7E73A4B002093F900300B60B1E701F03FF830B1364B5888A0F10200B0FA80F01B
:200CC000400920600020A4E72F4B00201B680B609FE73E230B6000209BE7A0230B600020D6
:200CE00097E72C4B00201B785BB20B6091E720230B6000208DE706230B60002089E7264B85
:200D000000201B780B6084E7244B00201B681B680B607EE718230B6000207AE70020204B33
:200D200008601B78F3B104230B6072E71D494FF47A72CB89098A02FB03F302FB01F2A3F532
:200D4000D32302F57F42FF32A3F55A73164903EB2243A1FB0323C3F387132360002058E7A9
:200D6000012056E7184654E7094B5B88022B08BF00273FF472AF6AE7FFF738FD89E76FF08B
:200D80007F032360032044E71004010072080020E804002073080020F6240020F405002057
:200DA000F5240020180500201F85EB5170B582B0044600F0BDFF28B3244B5B88022B08BF6F
:200DC00000251FD12249221DA31C224C92B29BB2100A2382E16148700A70FFF76BFC0020E6
:200DE00001F0E2F9204601A900F0AAFF88B9012601F0F8F900236380FFF73CFBE5B93046ED
:200E000002B070BDFFF712FD01281AD0012002B070BD00F0AFFA104E317800E099B1638826
:200E20000C4A03F44063002BF8D0508880B2B0F5505618BF0126DBE7FFF7D8FC304602B0C8
:200E400070BD0546BEE700F00DFDE5E7E8040020F80A002058050020F524002010B50C46B4
:200E6000B32C014694BF2246B42204480EF0A6FA2046BDE81040FFF799BF00BFFA0A002045
:200E800030B583B001F0F0FA01281BD000F050FFD0B1154B5B88022B1FD000258024134808
:200EA00001A900F04DFF012803D19DF806406306F5D07DB90E4B64B293F90000A042D4BFA0
:200EC0000020012003B030BDFFF7B0FC012806D10546E3E7FFF78AFCECE70120F2E7FFF73B
:200EE00085FC0120EEE700BF58050020010003047208002010B500F01BFF80B10F4B5B8860
:200F0000022B0BD10E4C237853B90E4B1B689B0601D5012323702078C0B210BD002010BDF9
:200F2000FFF7AEFFB0FA80F0400920702378002BF1D1044B6FF020021A60ECE7E80400206A
:200F4000F224002008100440F8B51D4800F0C2FD05F0FEFD012802D000242046F8BD194CAF
:200F6000002120464FF410720EF002FB164F174B17481849DFF874E0174E4FF4DB7200255E
:200F8000CEF8004083E830008362C7620D82CA813284FFF74BFC01280446DDD10F4B104A00
:200FA0001D6013680F4843F02003136001F030F901F034F929460C4803F094F8CDE700BF2C
:200FC000E0050020B8080020A0080020AC080020E804002018050020300500200810044096
:200FE0000C100440C0FA00000C060020B408002010B5064C042023685B69984723680420B1
:201000005B6B98470128F9D110BD00BFB8010010F8B51A4A00200021C2E90001184B04205E
:201020001B685B6B9847012801D0FFF7E1FF144B00201B68DB699847124B0121124A19603F
:2010400013689B07FCD5114A11491368096823F4807323F001030F4C13600B6820460E49E2
:20106000984740F221200D4D0D490E4B04273126012227602E6008601A60F8BD7808002024
:20108000B801001028200860282008400C000140C801001000000140002100043C0001403E
:2010A000080001400400244310B40949094C0B68226808688342FAD1DB01074903EB526246
:2010C0000023C1E900235DF8044BD1E900017047082009400C2009407808002010B50B496B
:2010E0000B4C0B68226808688342FAD1DB01094903EB52620023C1E9002302F08DFD00B9A7
:2011000010BDBDE8104002F067BD00BF082009400C2009407808002010B505F0EDF9034BC4
:201120001C6808B905F0ECF9204610BD08200940704700BF0146012000F052B804F00ABE58
:201140002DE9F04105F0D8F91D4E1E4B1E4F32680124002580464FF480314FF480703D60D3
:201160001C60186019601368284623219847336820461B6824219847336802201B682521C8
:201180009847124A1249136843F4E02313600D6004F0E0FD0F4B1049104A1B6800F500705E
:2011A000086014603C601B6914209847B8F1000F01D0BDE8F081BDE8F04105F0A1B900BF9D
:2011C0008401001004200940000024430020094008200940B00100101C200940A00224437D
:2011E000431E012B10B41BD9042802D05DF8044B704700231A4610F004001CBF0E4C216014
:2012000013B10E4B0121196012B10D4B01221A600028EBD00B4B01221A605DF8044B70472D
:2012200010F0010302D0084A0123116010F00202E1D0064C2160DEE7202009408002244332
:20124000A0022443C0022443182009401C200940014B1868704700BFB00B002008B5FFF786
:201260006DFF184B1860FFF739FF174B1B686BB9164B1B68E3B9164B1B6833B11549164BE9
:2012800000204FF4803208601A6008BD124B4FF480721A6004F05EFD00F205200F4B20F4B2
:2012A000FF7020F001001860084B1B68002BE2D00B49094B0020012208601A6002F040FF85
:2012C000D9E700BFB00B0020A000244380002443C0002443C0022443042009401C20094084
:2012E00080022443820702D5034B01221A60C30700D4704705F004B9000C084008B505F0AD
:20130000FBF8074B1A68012A03BF0649022219600022002814BF104642F0010008BD00BF03
:20132000000C084051E5CC1A03490448044B012208601A60704700BF00000840FFFF0F0086
:20134000000C084038B5FFF7D9FF064C064D0749074A012325600B601360BDE83840FFF79E
:20136000C1BF00BF00000840FFFF0F000C0008400401004303490448044B012208601A6051
:20138000704700BF00000840FFFF0F000C00084008B5044806F052F905F0AEF8024B0122D9
:2013A0001A60FEE798040100FC00204308B5064803F02EFA30B1054B0121054A1960136816
:2013C0009B06FCD508BD00BFB40B0020000222431410094070B5054605F08EF80B4C2946B3
:2013E00006460B4803F016FAFFF7E0FF236868681B689847236868689B6898471128F9D179
:2014000006B170BDBDE8704005F07AB8A0010010B40B002038B5044648B9134803F0F8F965
:2014200028B1234605C813430028FBD19BB90F490F480B680F4D104C0068002223F4C05371
:201440000B602A602260C368012098470B4A13689B06FCD438BD054A136823F4C05343F489
:201460000063136038BD00BFB40B002004100940A00100108001224300022243141009403B
:2014800038B5054605F038F804462946054803F005FA0020FFF7BEFF04B138BDBDE838405D
:2014A00005F02EB8B40B002070B50446B0B10078C0B1A9B10025661804E014F8010F38B1D3
:2014C000B44205D000F052F9631C05F10105F4D100F092F90128FBD0284670BD0546F7E793
:2014E0000D46F5E70546F3E710B40B4B0B4C13F8012FFF2A0ED1A342F9D1094A39B11144A3
:20150000013801390B78914200F8013FF9D15DF8044B7047034AF1E7C7FF0100CFFF0100EA
:20152000F0120050C8FF010038B50C4D02202B685B6998472B6802205B6B98470128044626
:20154000064BF7D11B684FF40070DB699847044B044A1C6013689B07FCD538BDB801001054
:2015600028200860282008402DE9F04340F2F275DFF8DC8083B0FFF7D7FFD8F800302A4E9F
:20158000DB682A4898473368294C5B69152098472368DFF8C090274F23F4FE63D9F800203E
:2015A00023F0020323603D60D36B032098472249D9F800300820122208600092D3F840C026
:2015C0001A48022103221323E047D8F800301748D3F804C019494FF4E1326023E04740F282
:2015E000011240F2013E1649164B142008601968154841F01001196003681449002B0CBFB4
:20160000134673460B603D60036853B12368326843F0500323601369152003B0BDE8F043D7
:20162000184703B0BDE8F083B001001000100040381000404410004090200240006CDC0217
:20164000341000402C100040B80B002030100040D0010010B401001008B5064B02201B68CE
:201660005B6B9847012803BF034B186800F00100002008BDB80100106C20084038B5044662
:20168000FFF7EAFF18B1254A13681907FCD4032C03D0234B1B6803B138BDFFF7DDFFE0B9C1
:2016A000204D4FF400702B681B6A9847032C2AD01D4B01211D4A196013689B07FCD503206F
:2016C00000F024FA022000F021FA132000F01EFABDE83840122000F019BA154B15481B6842
:2016E000DB689847144B15201B685B69984740F2F270124A1249136823F4FE6323F00203B8
:2017000013600860CCE72B684FF400709B6A98472B684FF400701B6B9847C9E7181000404E
:20172000B80B0020B80100102820086028200840D001001000100040B00100103810004043
:201740004410004010B504F0D7FE0446054800F0C1F9054B00221A6004B110BDBDE81040C3
:2017600004F0CEBEF8050020B80B002010B50446FFF772FF08B9FFF7F7FE044B2146BDE86C
:2017800010401B680248DB69184700BFD00100100010004010B5134B134C1860134A2368B7
:2017A000A8B1022111615B6A4FF40070984723684FF40070DB6A98470D4B01210D4A196038
:2017C00013689B07FCD5BDE81040FFF7CDBE10619B6A4FF40070984723684FF400701B6BD9
:2017E0009847E9E7B80B0020B8010010F8050020282008602820084008B5FFF72DFF18B189
:20180000024B1868C0F3C00008BD00BF1810004038B5FFF789FE40F2F2710C4B0C4A1B686D
:20182000116013F0500F10D00A4C0B4D05E02B681B699847094B1B6823B923680848DB06FD
:20184000F5D538BDC0B29847F7E738BD401000404410004018100040D0010010B80B002055
:2018600000100040034A136823F00403136030BF704700BF10ED00E070B504F03DFE02F03B
:20188000FBFB18B1BDE8704004F03ABE814802F0BFFF0225044648B1636823B19847A842FD
:2018A00028BF2846C5B22468002CF5D1FFF746FC794B04461B68002B40F08B8002F0ACF918
:2018C000002840F09280012D014600F0D680022DD8D1002840F0C3802846611EFFF780FC11
:2018E0006C4802F095FF06250446002800F0B080A368022003B198472369246825EA030502
:20190000002CF5D1FFF736FD6B0705F0060400F1A280002C40F0A78000F0C2F90020FFF7E4
:2019200079FD5E495E4A0B685E4823F003030B601368016843F00F0313608B69392098477D
:20194000594A5A4900231360184613600B6004F00BFC062C00F08D80554C564D564E2B68CA
:201960002368326823F00303236053685348032198474C4B1B689B6B98472B6804F04CFD7E
:201980004F4A3368002111604C485B680121984723684C4A012143F00303236011602B6826
:2019A00004F06CFDFFF702FDFFF798FBFFF7E2FC384802F02DFF044628B1E36803B19847D9
:2019C0002468002CF9D104F09BFDBDE8704004F097BD3D4B1B681B1A022B34D4A3F28F23A0
:2019E000002BBFF66BAF01232EE002F01DF90646FFF75AFB361A002E7FF744AFFFF728FC1B
:201A0000324B00EB46211B1BCB423CD4012085427FF45DAF6FF007031B1BCB4230D404F594
:201A20008034631A31EA230128BF21460220FFF7D7FB274A136823F00403136030BFBDE8F1
:201A4000704004F05DBD00239D4228BF1D4635E7FFF790FC06241B4B00221A6059E7284604
:201A6000FFF7BEFB3CE70F4B20461B689B69984752E7022004F048FD6EE704F58031D5E71F
:201A800004F10801D2E7022DC4D0012D7FF4FAAEC0E700BFBC0B00208002244300100940F4
:201AA00008100940B80100104010094020042243242208402C200940D8010010004003404B
:201AC000800104430C4009401820094071FDFFFF10ED00E00146014802F09CBEBC0B00201C
:201AE0000146014802F0DABEBC0B002010B5054802F08AFEBDE81040034B03201B6820212F
:201B00001B681847BC0B002084010010421C0ED010B50446064B4FF4C0421B6800211B685F
:201B20009847044AA3001A430023136010BD7047B4010010001A4442024B1868186002F0C2
:201B400049BE00BFE020024070B51B4B0C461B6805465B68984714F00C0320F0E06222F4B5
:201B6000EC2207D0042B20D0082B21D00C2B08BF42F4403214F003030DD142F4C04223064E
:201B80000D4B2846BDE870401B6848BF42F480221B6800211847022B04D0012B08BF42F49B
:201BA0008042ECE742F40052E9E742F40032E1E742F48032DEE700BFB4010010064B1B6803
:201BC000C340DB074CBF054B054B1B6823FA00F000F00100704700BFD0200240802002406A
:201BE000C020024010B584B00022412302A802920393FFF7EFFB042004F0EEF8032813D084
:201C00000420032104F0B8F8042004F0E5F803280346F9D1074A084812680093546800211A
:201C20004FF040521C23A04702A8FFF729FC04B010BD00BFA401001000A00C4000B583B01F
:201C40000022412368468DE80C00FFF7C3FB012004F0C2F8012803D00320012104F08CF893
:201C60006846FFF70DFC03B05DF804FB00B583B00022412368468DE80C00FFF7ABFB012056
:201C800004F0AAF8012803D0044B986B04F0BAF86846FFF7F5FB03B05DF804FB48000010C7
:201CA00010B582B041236846002401930094FFF791FB0320214604F05FF8012004F08CF8DF
:201CC00018B1044B986B04F09DF86846FFF7D8FB02B010BD4800001070B5038804465BB10C
:201CE00040F2BB22934203D182290AD0012070BD00230380032070BD40F2BB23238001208F
:201D000070BD094B094E1D69FFF734FB03F0E4F903F09CF98021A847002880B2ECDD03F042
:201D20008FF9F3689847EFE788FA0000A4120100024B186800F00100704700BF9C21084099
:201D400010F0030370B506460D4602D1028811051FD404F0D1FB1F4B00301B6818BF01207E
:201D6000DB0720D51C4B1D4C1E6023684CF250322B6003E02368013A2B6014D013F0FF0F3F
:201D8000F8D018B32878A0F10100B0FA80F0400970BD438004F0B0FB0E4B00301B6818BFA9
:201DA0000120DA0702D468B1002070BD338813F4405FD7D003F44063B3F5006F04BF084B16
:201DC0001E60CFE704F09CFB002070BD04F098FBD8E700BF9C210840001004400410044041
:201DE000E40B00200A4A01E0013A0ED0438803F44063B3F5806FF7D1428802F44062A2F5C9
:201E00008060B0FA80F0400970471046704700BF20A1070030B583B004F06EFB254C054603
:201E2000236819201B6A9847236812201B6A9847236819205B699847236812205B69083435
:201E40009847236801205B699847236801205B6B98470128F9D11849184B194A0860186009
:201E600013689B07FCD5134C164817492268002303600B60136919209847236812201B6907
:201E80009847A5B140F2FF35104B114A11481249002405600C60114801A91A60FFF750FF86
:201EA000A0F10100B0FA80F0400903B030BD04F027FBE7E7B00100102C20084028200860A4
:201EC0002820084010100460141004600010044051000706000004601C10044001000604D5
:201EE00010B586B00021142201A80DF041FB40F60A0215499DF811300C68012161F3030348
:201F000001A8694605948DF81130ADF80420FFF717FF012802D0002006B010BD0B4801E063
:201F20000138F9D0BDF8063003F44063B3F5806FF6D1BDF8060000F44060A0F58060B0FA4E
:201F400080F0400906B010BDF80B002020A1070000B587B00021142201A80DF009FB40F637
:201F600009029DF81130012161F3030301A869468DF81130ADF80420FFF7E2FE012803D04B
:201F8000C0B207B05DF804FB104801E00138F8D0BDF8063003F44063B3F5806FF6D1BDF8F2
:201FA000063003F44063B3F5806F03D0002007B05DF804FB064B1A782AB9064A05990120E7
:201FC00011601870DDE70120DBE700BF20A10700F3240020F80B002030B587B004F08CFAEA
:201FE000314C0546236819205B699847236812205B6998472D4B1B68DA071AD52C492D4A9B
:2020000000230B6002A81946136010220DF0B0FA40F60D029DF81530012161F3030302A898
:2020200001A98DF81530ADF80820FFF789FE01282CD0FFF78DFF2048204B00240121204AB8
:202040000460196013689B07FCD51E4C012023689B699847236801205B6B98470228F9D177
:20206000114C192023681B6A9847236812201B6A9847236819201B699847236812201B6952
:2020800098470DB904F03CFA07B030BD0E4A01E0013ACED0BDF80A3003F44063B3F5806F9B
:2020A000F6D1BDF80A30C4E7B00100109C21084010100460141004602C20084028200860A9
:2020C00028200840B801001020A1070008B504F067FD052803460BD003280DD018B101287F
:2020E0000FD0002008BD094B03221A60012008BD064A0120136008BD044B02221A6001208C
:2021000008BD024A0521116008BD00BFD021084008B5FFF71DFFFFF7E3FE012802D0FFF7C3
:202120005BFF002008BD00BFF8B5174B174A19781268174B002914BF00241C46D30700D494
:20214000F8BD04F0D9F90646124A134B1348144F144D00213B60046011602B6819201B6AFD
:2021600098472B6812201B6A98472B6819201B6998472B6812201B69984706B1F8BDBDE8EF
:20218000F84004F0BDB900BFF52400209C2108400000C08010100460000040801410046094
:2021A00018100460B0010010084B1B7833B1002002460749074B0A6018607047064B0749C4
:2021C000074A002814BF18460846F2E7F524002010100460141004600800C0800200C0805F
:2021E0000000C080044A054B1178054A002918BF00231360704700BFF52400200000C080A4
:2022000014100460014B1868704700BFE40B0020014B1860704700BFEC0B002038B5064B56
:20222000064C1D6806484FF43441064A0023256001F0BAFD012038BD04300440C00B0020A8
:20224000C40B0020B9220000164B1B68DBB170B59B68984708B9002070BD04F04DF9124B98
:20226000124C1D680646002115F1804022684FF0000341F10001994208BF904209D3256074
:202280001EB1012070BD0020704704F039F9012070BDFEF753FF064A0649136808600133D9
:2022A0001360ECE7EC0B002004300440C00B0020E80B0020F00B002070B5134B1B68B3B1C6
:2022C0009B689847D8B9114D2B6A984701280ED1FFF7BAFF6B6A0446984744B1BDE87040BA
:2022E0000B484FF434410B4A002301F05DBD08488021084A0023BDE8704001F055BDFFF79C
:20230000A3FF0446E9E700BFEC0B002088FA0000C40B0020B9220000F8B5224C2368002B0E
:202320003DD09B680646984700B3FFF78DFF1E4BB6F1404F1F6825D822681C4BB2F90C4022
:202340001968E517641A65EBE1750022A41945F10005A01845EB0701090241EA106143F6F2
:202360000952002300020CF01FFDF8BD104D2B6A9847FFF769FF6B6A98470B4BB6F1404FA1
:202380001F68D9D9FEF7DAFE0A4B1B68C3F17E4303F57203C34248BF07F1FF37CCE7184632
:2023A000F8BD00BFEC0B0020E80B0020F80B002088FA0000F00B002010B5104B1B68DA073B
:2023C00004D4FFF727FD012800D010BD0C4C23685B0204D40A4B6FF000421A6010BD094B9C
:2023E000012209481A7001F09DFE6FF480032360034B6FF000421A6010BD00BF9C210840F0
:2024000010100460F42400200C06002008B5124B1B68D90707D4114805F010F9FFF7FAFC33
:20242000012800D008BD04F067F80D4B1A6812020BD40B4B1A6812F00A0F1CBF6FF00A0285
:202440001A60BDE8084004F05BB86FF400021A60044801F067FEECE79C210840B004010000
:20246000101004600C060020014B1878704700BFF724002008B500F08BF880B208BD00BF33
:2024800000F010B938B50C4D04202B685B6998472B6804205B6B984701280446064BF7D1FB
:2024A0001B6840F20140DB699847044B044A1C6013689B07FCD538BDB8010010282008608E
:2024C00028200840034B1B68002B14BF01200220704700BFFC0B0020F8B503880446002B10
:2024E0002ED0B3F5847F05D1184B1B788B4205D00120F8BD002303800320F8BD144D2B687D
:2025000073B1144B144A1B6812685B680220174698470026301847F100012B6898472E6015
:202520000E4B40F201401B689B6A98470C4B01210C4A196013689B07FCD50B48FFF7D0FA1F
:202540004FF4847323800120F8BD00BF74080020FC0B0020CC01001004800240B8010010DA
:2025600028200860282008401C06002008B5064B04201B685B6B9847012803BF034B1868C6
:20258000C0F34000002008BDB80100103C20084070B5274B1B689BB1264C0023224612F889
:2025A000011B29B90133042BF9D10020014670BD214A002502EBC302E55492E8030070BD37
:2025C000FFF7D4FF00282FD01C4A1D4B1268134073B91C4A01211346116018680028FCD17D
:2025E00002464FF4807104F037FB174B01221A6003F082FF0646114A1368DB07FCD5134B93
:20260000134A1B6814685B680220984723460022141843F1000516B12046294670BD03F0EE
:202620006FFF2046294670BDFFF72CFFCCE700BFFC0B0020000C00208008002008800240D2
:2026400001000080F09F0240A8025042CC0100100480024038B50E4D00240E4A2C6013687E
:202660000D4923F00103096813604B6931209847204622464FF4807104F0EEFA0122074BD2
:202680002A6019782246BDE83840054801F0FEBCA80250420C800240B0010010740800203B
:2026A0003006002010B5074C2378802B00D010BD01F06AFC207000210348BDE8104001F090
:2026C00011BD00BF740800203006002008B503F013FF003018BF012008BD00BF80F3108802
:2026E000704700BF827A044B03EBC2035B68C01AB0FA80F040097047040C0020F0B547494A
:20270000837A85B001EBC303D3E84F2F12F0FF0F09D10124C3E8424F1346BFF35F8F3BB16C
:20272000032005B0F0BD0123BFF35F8F002BF7D10446827A3A4B01EBC20148601B68C07880
:20274000DB6B384F9847384DA37A3A6805EB0313526958689047A37A3A6805EB03135868AC
:20276000536B9847012806462E4A2F4BF3D1A17A126803EB0113D269986890472B4B2C4AFC
:202780001E6013689B07FCD5A37A03201B01EA582849536923F00F035361A37A1B01EB58AD
:2027A0001862A37A0A6826891B01E85817683EB1237A002B2CD0637A002B14BF03260226A7
:2027C0006168082332468DE80A001B490023B847A37A134A26781B01E85813686178A278A6
:2027E00000965E6C4FF0FF33B047A37A114E1B01EA58536843F002035360A37A32681B01BE
:20280000E85803A9136998470028F6D105B0F0BD637A002B14BF01260326D1E7040C00200D
:20282000B4010010B8010010140501002820086028200840C4010010006CDC0270B5214DFE
:20284000837A05EBC3025268904201D0042070BD1D491E4A096802EB031304460A6A986818
:2028600090471B4B01221A601A4A13689B07FCD5194E607833689B6B9847336860784FF4B7
:2028800000519B6998473368A0789B6B98473368A0784FF400519B699847336820789B6B09
:2028A0009847336820789B694FF400519847A37A002005EBC3035860A37ABFF35F8F05F82A
:2028C000330070BD040C0020B8010010140501002820086028200840B40100102DE9F04F2B
:2028E000344C857A85B004EBC5046468A04203D0042005B0BDE8F08F1F462F4BDFF8C490E4
:202900001B6809EB051504465B6B686890460E469847012803D0052005B0BDE8F08FA37A26
:20292000264909EB0312D26809681142F3D00E9A0F9902EB010AC2455246B8BF4246002A4E
:20294000019235D0D8BF03AD26DDDFF874A04FF0000B03ADD845CCBF16F80B10002103912A
:20296000DAF800201B0159F8030053689847A27ADAF800301201DB6859F802002946984746
:202980000E9B5B45C4BF039B07F80B30019B0BF1010B9B45A37ADDD1094E00E0A37A326856
:2029A0001B0159F803002946136998470028F5D100209EE7040C0020B80100107820084071
:2029C000C40100101405010010B5BAB00A4604462821684605F0E0FF6B46C021034A0AA8E3
:2029E00004F052FE0AA8A0473AB010BD34050100F0B50746B1B0D9B10D460126002404B3D7
:202A0000E3070DD5C021134A2B78684604F03CFE6846B847082E12D0013601350134EEE7F1
:202A20006846C0210C4A04F02FFE6846B847E9E76846C021094A04F027FE6846B84731B08A
:202A4000F0BD6846C021034A2B7804F01DFE6846B847E1E74C0501004805010038050100E8
:202A6000F0B50388B1B006460D461BB36F2B1CD1254B264F186843683A6825482946984764
:202A8000012836D96C46234AC021204604F0FCFD2046A84728462049FFF7AAFF2046C02199
:202AA0001E4A04F0F1FD2046A84700233380032031B0F0BD13781446202B03D114F8013FA0
:202AC000202BFBD0204620210CF0A0FD0F4F386018B1002300F8013B3860204600F0C4FDDB
:202AE000094B186038B10A4A00216F2311803380C1E70020DCE76846C021094A04F0C4FDB4
:202B000068466C46A847BEE7140C00201C0C0020180C00208C0501003C250020900501004C
:202B20005405010000F088BD074A106858B170B40648074E074D0024146031702B800068CD
:202B400070BC01F0EFBA70475C0C0020540C0020F8240020E424002030B50388B1B0044671
:202B60005BB90D46074AC021684604F08DFD6846A847054B05489B6A984700230320238089
:202B800031B030BD50060100541F01007406010030B50388B1B004465BB90D46074AC0216D
:202BA000684604F071FD6846A847054B0548DB6A984700230320238031B030BD7C0601006D
:202BC000541F010074060100F0B50388B1B0074623B1002303203B8031B0F0BD114A0D4617
:202BE0006846C02104F050FD6846A8470E4801F00FFE06460028ECD0746823685BB1A36866
:202C0000C0210A4A684604F03FFD6846A84754F80C3F002BF3D1304601F060FE0646002845
:202C2000EAD1D6E7A0060100200C00202C080100F0B50388B1B0054623B1002303202B8053
:202C400031B0F0BD0E46134AC021684604F01CFD6846B047104C04F1600714F8023C227C54
:202C60000BB1012A03D92034BC42F6D1E5E70B4AC021684604F008FD6846B047304621464D
:202C8000FFF7A2FE6846C021054A04F0FDFC6846B047E8E7B806010086250020D0060100FE
:202CA0003C1B010070B50388CAB0064623B10023032033804AB070BD304A0D461AA8C021E2
:202CC00004F0E2FC1AA8A84705F062FF05F014FF0446C0211AA8002C49D0294A04F0D4FCAA
:202CE0001AA8A8472846211DFFF76EFEA3691AA8C0215BBB234A04F0C7FC1AA8A84705F086
:202D00009BF900282BDD05F097F9C02103461E4A1AA804F0B9FC1AA8A84705F057FA04462C
:202D20000028C4D02246642101A805F0B1FAC021164A01AB1AA804F0A7FC1AA8A847204644
:202D400005F04AFA04460028ECD1B0E7104A04F09BFC1AA8A84705F06FF90028D3DC1AA8E8
:202D6000C0210C4A04F090FC1AA8A8479FE70A4A04F08AFC1AA8A847C1E700BFD4060100A4
:202D8000D0060100000701002407010044070100E40601004C07010018070100F0B503884D
:202DA000CFB006466BB91B4B0D461B7B13B108F019FA58B91EA8C021174A04F065FC1EA8D2
:202DC000A8470023032033804FB0F0BD134F386801F05AFF0446C0211EA8114A04F054FC83
:202DE0001EA8A847002CECD022467821684608F09FFAC0210B4A6B461EA804F045FC1EA84E
:202E0000A8472146386801F007FF04460028EBD1D7E700BF002D002060070100FC07002042
:202E2000780701002C080100F0B50388B5B0064623B100230320338035B0F0BD0C467D4A84
:202E4000C02104A87C4D04F01FFC04A8A0472B7B04A8C021002B00F0DC806B7B774A04F035
:202E600013FC04A8A047764B1B699847002840F0C88004A8C021734A04F006FC04A8A04719
:202E8000714AC02104A804F0FFFB04A8A04720466E49FFF799FD95F85430C0216C4A04A86C
:202EA00004F0F2FB04A8A0476A4AC02104A804F0EBFB04A8A04720466749FFF785FD674AB1
:202EC000C02195F8403004A804F0DEFB04A8A047AB7BC021032B96BF614A624B52F8233089
:202EE00004A8614A04F0D0FB04A8A047AB681B8C002B00F094805D4A5A49012B0CBF1346A6
:202F00000B46C0215A4A04A804F0BEFB04A8A047C021584AEB8A04A804F0B6FB04A8A04713
:202F20002A7E454BFF2A16BF5B8B4FF0FF335343C021514A04A804F0A7FB04A8A04795F890
:202F40005E30C021032B96BF4C4A464B52F8233004A84B4A04F098FB04A8A047C021494AEC
:202F600004A804F091FB04A8A047686C324F002857D008F06FF901462046FFF725FD7B6CE2
:202F800004A89B79C021404A04F07EFB04A8A047B5F84A30C0213D4A04A804F075FB04A8BB
:202FA000A047AA8AB5F848300092C021384A04A804F06AFB04A8A047EB7BC021354A04A8D2
:202FC00004F062FB04A8A04795F85B2095F85A300092C021304A04A804F056FB04A8A0477D
:202FE000697C2A7CA87C0A448DE80600029095F8573004A8C021294A04F046FB04A8A047EB
:2030000017E704A8C021264A04F03EFB04A8A04736E7244A04F038FB04A8A04709E7224B53
:203020006FE704A8C021214A04F02EFB04A8A047AEE700BF9C070100002D0020C007010085
:20304000541F0100E4070100F40701001C2D002000080100100801002C2D00201C080100EB
:20306000CC0F0100880701002408010094070100300801003C08010058080100BC0F010070
:203080007C0801008C080100A4080100C0080100D0080100EC08010000090100300901008E
:2030A000D4070100AC07010090070100B808010030B50388B1B0044653B90D46074AC0217B
:2030C000684604F0E1FA6846A847054808F08EFE00230320238031B030BD00BF7009010015
:2030E000740601002DE9F0410788B0B00546002F3ED188461446002A5BD01678002E62D12A
:2031000030464A490CF0E8FA002854D1484E0123336014B12378002B5FD1464B0022FD21A2
:2031200019805A809A80DA801A815A819A81DA813368414C13B3236998470646C021684688
:20314000002E30D13D4A04F09FFA6846C04740463849FFF739FCC021394A684604F094FAB1
:203160006846C047A368314632489847E368984700232B80032030B0BDE8F0812369984743
:2031800048B1C0212F4A684604F07EFA6846C047E3699847ECE76846C0212B4A04F074FAA9
:2031A0006846C047E4E7294A04F06EFA6846C047DEE71646A4E7304625490CF08DFA28BB15
:2031C0001B4E3060A5E7104620210CF01FFA48B300F8017B2646044692E7204620210CF07D
:2031E00015FA08B1002303702046124905F068FB074600289CD12346C021164A684604F02A
:2032000043FA6846C0472F800220B4E73346C021114A684604F038FA6846C04700232B8044
:203220000220A8E7264604466AE700BF8C090100580C0020600C0020541F0100C009010033
:20324000E4090100080A0100300A0100EC09010090090100AC09010094090100F0B505881C
:20326000B5B004460E46DDB140F205139D4212D1474D2B68464D1BB3464800F0C7FC68B1CF
:203280002B68EBB1C021444A04A804F0FDF904A8B04700232B6000232380032035B0F0BD2E
:2032A00012B11378002B2FD1C0213C4A04A804F0EBF904A8B04700230220238035B0F0BD8D
:2032C000374AC02104A804F0DFF904A8B04730463449FFF779FB344A344B15881F78FDF7EF
:2032E000E3FE2C4B4FF47A7219680097401A02FB00F0C00901902B4604A8C0212C4A04F026
:20330000C3F904A8B047C6E71046202103920CF07DF9039A00B1057010462249039205F0F5
:20332000CFFA039A054658B91346C021214A04A804F0AAF904A8B0470220258035B0F0BDE7
:203340001D4AC02104A804F09FF904A8B04730461449FFF739FBC021184A04A804F094F9DD
:2033600004A8B047164A174B1268094D09484FF420711A602E6000F035FC042309488021B1
:20338000002204F0E5FD40F20513238071E700BF5C0C0020440C0020700A0100B80A0100FB
:2033A0007C0A0100300C0020E4240020F8240020980A0100480A0100640A01003C1B010009
:2033C000A40C0020540C0020F0B5B3B00746C0210E4A02A80E4C04F057F902A8B847256891
:2033E00095B163681E68304600F02CFB2B460190C021084A009602A804F046F902A8B84758
:2034000054F80C5F002DECD133B0F0BDE40A010060060020F40A01002DE9F0430688B3B0CD
:203420000446002E37D18846154612B11378002B37D1002000F0E4FA3A4B002518602B46E1
:20344000C021394A02A804F01FF902A8C0474046FFF7BAFF0023238002201FE038462021C6
:203460000CF0D4F808B10023037001A938460A220CF09EFA2D4B0146186000283FD1019B42
:203480009F422ED03368994202D0284600F094FA4046FFF799FF00232380032033B0BDE894
:2034A000F083104620210CF0B1F8814650B30746284607F8016B00F0A3FA1A4E2946306079
:2034C0001B480CF009F910B133680133B7D01FB199F80130002BC1D1144B4FF0FF321A60DC
:2034E00000273B46C021134A02A804F0CDF802A8C04700230220238033B0BDE8F0830429C2
:20350000EFD8BFE7284600F07BFA064E2946306007480CF0E1F80028DED033680133DBD1A3
:203520008DE700BF400C00200C0B0100240C0020080B0100280B010070B50388B2B00646DE
:2035400023B100233380032032B070BD0D4606F011F90446C02102A8002C3ED0234A04F0CC
:2035600093F802A8A847224AC02102A804F08CF802A8A847204606F0F5F801462846FFF72B
:2035800023FA1C4AC02102A804F07EF802A8A847204606F0E9F801462846FFF729FA627C31
:2035A0001549042A94BF51F822001448237CC021134A009002A804F067F802A8A847C02181
:2035C000104A02A804F060F802A8A847204606F0D7F804460028C6D1B3E70B4A04F054F89F
:2035E00002A8A84734800220AEE700BF640B0100D00601007C0B01003C0601008807010066
:20360000840B01003C1B0100480B010030B50388B1B004464BB9074A0D466846C02104F028
:2036200033F86846A847FDF7B3FE00230320238031B030BD9C0B010010B5074C204601F04F
:20364000E3F82046054901F0E5F8BDE810400448044904F0C1BC00BF200C0020400600209D
:20366000280C0020292B000070B505460D4801F0CFF8064698B17468206818B909E054F826
:203680000C0F30B129460CF027F80028F7D1204670BD304601F022F906460028EBD100204F
:2036A00070BD00BF200C002010B503880446442B0CD0452B14D01BB100230380032010BD37
:2036C000FFF730FA44232380012010BD094B1B788B420DD162B10849002045230880238029
:2036E00005480649FFF7BCF90128EBD8002010BD012010BD3F2E0020700C0020013700005B
:203700000146014803F09ABF340501000148002100F0E8BC4806002070B5674CFCF744FD1B
:20372000FDF776FC00F00AFD00F036FC6348002100F0D8FC00F0FEFAFDF7F6FD00F09AF928
:2037400000F036FDFCF76EFD01F068FD00F09CFA2368022B3CDC082259495A480BF02EFEA7
:203760005948002100F0BEFC4FF0FF3004F07EFE23680546022B504E13DCFCF76FFDFFF71A
:20378000C5FF524800F06AF9FDF7DCFD00F01EFC0446FDF7EFFD14F0FF0FF7D1FCF7C8FDE5
:2037A000F4E74B494B4A4C4803F048FF4B4803F045FF3368022BE0DD002D7AD0A81C00F0BD
:2037C000C1F82368022BD8DD454803F037FFD4E73F49404A404803F031FF424803F02EFFEB
:2037E0002368022BB7DD3A493A4A3B4803F026FF3D4B3E48196803F021FF2368022BAADDFA
:203800003349344A344803F019FF394B3948196803F014FF2368022B9DDD2D492D4A2E4806
:2038200003F00CFF344B3548196803F007FF2368022B90DD2649274A274803F0FFFE304838
:2038400048F6660103F0FAFE2368022B83DD2049204A214803F0F2FE2A48192103F0EEFE16
:203860002368022B7FF777AF19491A4A1A4803F0E5FE254B2548198803F0E0FE2368022BEF
:203880007FF769AF1249134A134803F0D7FE204803F0D4FE2368022B7FF75DAF084800F018
:2038A00061F82368022B7FF756AF0D4803F0C6FE51E7284683E700BF58060020F00600200D
:2038C0003C250020E0260020D0070020C0250100D8F90000F40F0100C8F90000BC10010001
:2038E0003C1B0100FC0F0100541F0100301001005813010040100100A41201004C100100DE
:203900005810010074100100E624002094100100A410010010B541600446FDF7FDFB206019
:2039200010BD00BF10B50446FDF7F6FB94E80A00034A0B44C01A90428CBF0020012010BDE0
:20394000FEFFFF7F00B58BB002462821684605F023F86946024803F071FE0BB05DF804FB43
:2039600034050100D0B170B5054601260024C4B1E30709D50D48297803F060FE082E0CD03B
:20398000013601350134F2E7094803F057FE0748297803F053FE082EF2D170BD054803F079
:2039A0004DBE2978014803F049FEE9E74C0501004805010038050100042900D97047F8B5C0
:2039C00006460D460C4831460BF086FE0B4C0746216851B157B9A3686268AB42A8BF2B4625
:2039E000136054F80C1F0029F4D1F8BD30460BF073FE0028EFD0F4E7080B010060060020FC
:203A0000D0B1F8B50E4F396899B106463D46002403E055F80C1F013459B130460BF05CFED8
:203A20000028F6D104EB440407EB840463681868F8BD4FF0FF30F8BD4FF0FF30704700BFDF
:203A40006006002004289ABF024B53F820000248704700BFE01001002011010010B50446B1
:203A6000006830B1002100F03DFB54F8040F0028F8D110BD704700BF10B50E4C2368B3B113
:203A8000FDF712FB22685168136892681944091A4AB192E8180023441B1A9268994228BF08
:203AA0001946002AF5D1044B0844186010BD024A136010BD980C00209C0C00202DE9F04178
:203AC000038805467BB1592B08D1872912D0822920D059232B800120BDE8F0810023038056
:203AE0000320BDE8F081254A0120136059232B80BDE8F081214F3B68002BEAD0D9688A4248
:203B000003D024E0D9688A4220D19B68002BF9D13B60DEE7194F4FF000083C68002CD8D051
:203B2000002604E0A3682646002BD2D01C46204600F030FB0028F5D0E0688821224600F01E
:203B4000A5FA78B10E4800F0EDFAEBE73B6099680029BED0C86882420BBF89680B46996052
:203B60008968F5E7E060A3682EB1B360C4F80880FFF782FFD1E73B60F8E700BF980C0020CB
:203B8000F006002010B50446104800F0CBFA1049E3680A684BB142B194420FD0134601E0FF
:203BA0009C420BD09B68002BFAD10A4BA2601B680C60E360BDE81040FFF75EBF054B1B68EF
:203BC000E360BDE81040FFF757BF00BFF0060020980C0020A40C0020014800F0A3BA00BFE3
:203BE000F006002010B5044600F0BEFA2046BDE81040FFF7C7BF00BF10B5044600F0BCFAAD
:203C00002046BDE81040FFF7BDBF00BFC068B0FA80F04009704700BF024B1868003018BF43
:203C200001207047980C0020024B186808B1024B18687047980C00209C0C002010B5114B31
:203C400004461A68904218D05AB19368834208BF13460AD02BB19A68A24206D01346002BFD
:203C6000F9D10023A360E36010BDA2689A60FFF703FF0023A360E36010BD82681A60FFF7B8
:203C8000FBFEEEE7980C0020034A04499079D37903EB00230B8070473C250020E6240020A5
:203CA000F0B5038883B005465BB14A2B04D188291BD0012003B0F0BD00230380032003B067
:203CC000F0BD194800F0A4FD044630B1201DA168FFF788FF2468002CF8D1144B01221A70CA
:203CE0004A2301202B8003B0F0BD0F48019200F08FFD04460028F3D0019A031D9A4205D024
:203D00002468231D002CEBD09A42F9D10648214600F0C4FD064E6269A369376832600BB1CC
:203D2000E06998473760DBE7A00C0020F9240020A40C002010B5064B002406481C7000F025
:203D400063FD2146BDE81040034800F0CBB900BFF9240020A00C00200007002070B504468A
:203D60000D48049D0078A261E361656130B9A1600A482146BDE8704000F04CBD084D094B2E
:203D80002E68201D2B60FFF72DFF2E602146BDE87040024800F03EBDF9240020A00C00201B
:203DA000A40C00200007002010B5044C82B024680094FFF7D3FF02B010BD00BFA40C0020CF
:203DC00070B5094B04461B783BB1084D084B2E6804302B60FFF710FF2E602146BDE8704055
:203DE000044800F017BD00BFF9240020A40C002000070020A00C002010B50A4B04461B78FD
:203E00003BB9C36003612146BDE81040064800F045BD0430FFF712FF2146BDE810400248AA
:203E200000F03CBDF9240020A00C002038B50B4B1D785DB904460A4800F0EAFC10B90AE07D
:203E4000006840B18442FBD1002038BD0430BDE83840FFF7DBBE012038BD00BFF924002070
:203E6000A00C00202DE9F843DFF8A480274DD8F800702E68874247D077B33B4601E0002B49
:203E80003BD01B689842FAD133B3837B8946044623B3002383736FB1BC424FF0870106D048
:203EA000BB7BDB0703D53846224600F033F83F68002FF1D1A3683BB14C4505D02C6004F19B
:203EC0000C00832100229847D8F80000844208D12368C8F800302E60BDE8F8833846844255
:203EE000F6D00028F7D00368A34208D0002BF2D01A68A24204D01346F8E7BDE8F88303461D
:203F000022681A602E60E7E73B46BDE7A40C0020A80C002070B586687EB104460A48022375
:203F20000460A37304F10C000D46B0470238012804D9832D02D00123A37370BD20462146C6
:203F4000BDE87040FFF78EBFA40C002070B50C4A0C4B146800251D7084B1012601E0246830
:203F600064B1E37B002BFAD0A673E573204682210022FFF7CFFF2468002CF2D170BD00BF12
:203F8000A80C0020FC240020024B1878421C1A70704700BFFD24002070B407480749084A7C
:203FA0000023084D084C8A2603700B6013602E70237070BC704700BFFB240020A80C00204E
:203FC000A40C0020FD240020FA2400202DE9F041244D2B780BB1FFF7B9FF234E3378D3B12D
:203FE000DFF890E0214F9EF80020013B02EB420189007C180132A068DBB202F01F0233704D
:204000008EF800207F5CD4F8048098B1812F06D0827BD20705D428781844BDE8F08101231B
:20402000837339464246FFF775FF337828781844BDE8F0810E4A146834B9ECE7A37BD907CA
:204040000AD42468002CF0D02B78002BF6D0FFF77DFFA37BD907F4D5204639464246FFF7DA
:2040600059FFEEE7FC240020FB240020AC0C0020A80C0020FA240020024A034B10781B78F5
:2040800018447047FB240020FC240020F0B40C4D2C78202C11D00B4B0B4E1B78671C234494
:2040A00003F01F0303EB43039B00F418A06062602F70F1540020F0BC70470120F0BC704763
:2040C000FB240020FA240020AC0C002038B5837B034CDB07256801D5FFF71CFF256038BD81
:2040E000A40C002070B404460D4D2868A04206D038B1034600E023B11B689C42FBD170BCA1
:204100007047002CFBD0012600232060A673A3810A4620462C60812170BCFFF7D7BF00BF8F
:20412000A80C002038B1837B013B012B03D8024A01231370C3737047FC240020FCF7F8BFB7
:2041400010B5084C206858B100224368816822609847236823B1BDE810401868FCF7EABF2E
:2041600010BD00BF2C0E002010B541600446FCF79BFF206010BD00BF10B50446FCF794FF7B
:2041800022686168C2F101031844884284BF5218226010BD10B50446FCF786FF2368626817
:2041A000C3F10103184482422CBF0020012010BD00B50B4B83B001A90A4A99421160019312
:2041C00088BFCD2005D95A1C01921870019B8B42F9D305480021FFF785FF03B05DF804FB18
:2041E000412E0020300E00201007002038B5134CFDF7C0F82378124DCD2B08D0AC4202D316
:2042000016E0AC4214D014F8013FCD2BF9D1AC4202D30DE0AC420BD014F8013FCD2BF9D042
:20422000FDF7A8F8AC42064804D2001B80B238BDFDF7A0F84FF6FF7038BD00BF412E002013
:204240000050002070B5038804465BB1902B05D11848FFF7DBFC70B9012070BD002303800D
:20426000032070BD13484FF4A061FFF7BBFC90232380012070BDFFF7B9FF0F4D0F4B06464E
:204280005D1BADB2A8420DD90D4B1B68002B09DD0C490D4A0D4803F0D1F931462A460C4892
:2042A00003F0CCF90348FFF7A7FC90232380012070BD00BF340E0020412E0020005000209E
:2042C00058060020BC110100C0110100C8F90000C811010010B5044690F84C30802101333D
:2042E00084F84C3020302346054AFFF75DFD054B2246BDE8104019780020FFF7C7BE00BFD6
:20430000D54200003D2E002070B5038804464BB1CB2B03D1822909D0012070BD00230380C3
:20432000032070BDCB232380012070BDFEF7CEF9BFF35F8F104B00221E681A60BFF35F8FD5
:204340000E4DFEF7CBF9286820B9EBE755F8040F0028E7D090F8453026FA03F3DB07F5D510
:20436000FFF764FD0028F1D0286802210346044AFFF71AFDEAE700BF500E0020DC04002098
:20438000C1430000034A1368034303481360FFF7C9BE00BF500E00202007002010B504463D
:2043A00090F84500FDF70AFC10B994F8440010BD012806BF94F8440080F00100002010BDB4
:2043C00070B50446FFF732FD00B970BD04F120052846FFF72BFD06462046FFF7DFFF01280E
:2043E0000ED00028F1D1002EEFD12846FFF704FD0A4B30462246BDE870401978FFF746BE8F
:20440000002EE2D000262346284684F84C607E21034AFFF7C9FC034BEBE700BF3C2E002087
:20442000D54200003E2E00202DE9F843FFF7ACFD244B254C1870FFF7A7FD244BDFF8A08081
:204440001870FFF7A1FD224D2368224A00212870C8F80810C8F8042053B3DFF888901E4F03
:204460000126D9F800209D6C926B93F845009047236845F08C05294693F84500FDF764FB94
:204480002268D9F8003092F8450006FA00F23A601B6B98472368D8F8082093F8451054F822
:2044A000043F06FA01F10A43C8F80820002BD8D10A480021FFF716FEBDE8F843084800F021
:2044C00083B900BF3E2E0020DC0400203C2E00203D2E002085430000E020024020070020EF
:2044E000440E0020B4010010F8B5048805466C2C0CD07E2C1BD01CB1002303800320F8BDAD
:20450000FFF742FD1E4A1F4B10701C601D4C264604E00A2813D023687E2B2BDD1A4800F03C
:204520006FFA431CF5D16C232B800120F8BD852901D00120F8BD134C00232360E6E7114C59
:20454000124F23680E49002603F1010E3A4609783046FE54C4F800E0FFF798FD0C4B324630
:2045600018688521FFF792FD0028E5D17E232B800120F8BD05495A1CC8543260CEE700BFAA
:204580003F2E00205C0F0020D40E0020DC0E0020A40C00200D281FD010B5104C0146237800
:2045A00033B10A2810D00E48FFF7BCFD012010BD0C4800F00DFA0028F5D1012308482370D2
:2045C000FFF7B0FD012010BD064800F001FA0028E9D000232370E6E700207047FE24002094
:2045E00030070020D40E002008B505480549802200F0E6F9BDE8084003480021FFF772BD1B
:20460000D40E0020540E00203007002010B1837A012B01D901207047FEF770B810B1837A48
:20462000012B01D901207047FEF708B910B50446FEF758F808B9042010BDE178024A012317
:204640008B401360002010BDA0200240C178034A01238B4013600020704700BF90200240BD
:2046600010B584B08DF80F1010B1827A012A02D9012004B010BD0446FEF734F810B90320E1
:2046800004B010BD00232046009301930DF10F010122FEF723F9ECE780B170B5847A82B04E
:2046A000012C02D9012002B070BD044615460E46FEF718F820B9032002B070BD0120704741
:2046C0000023204631462A4600930193FEF706F9E9E700BF80B170B5857A82B0012D0446C1
:2046E00002D9012002B070BD16460D46FDF7FAFF20B9032002B070BD0120704700210096D9
:2047000020462B4601910A46FEF7E8F8EAE700BFF0B40E4C0E4F22460E4E0023012540FAD9
:2047200003F1C90706D5517851B114F8131005FA01F1316002320BB1F0BC70470123EEE712
:2047400014F8131005FA01F13960F3E728FA000090200240A0200240F0B40E4C0E4F2246ED
:204760000E4E0023012540FA03F1C90706D5517851B114F8131005FA01F1316002320BB14F
:20478000F0BC70470123EEE714F8131005FA01F13960F3E728FA0000A02002409020024014
:2047A00038B5074D074C2B682078DB6B98472B68A078DB6B9847BDE838400320FFF7CCBF84
:2047C000B401001028FA00000146014800F022B8600F002038B50546074800F019F8044637
:2047E00040B1A068284002D0636803B198472468002CF6D138BD00BF600F0020014800F02D
:2048000003B800BF600F002000230360704700BF00687047026842B1914203D11BE099429A
:204820000ED01A461368002BF9D100230B6002680AB90EE01A461368002BFBD11160704727
:204840000B68136000230B6000230B600268002AF1D1016070470B680360F3E710B4046808
:204860004CB1A14217D0224602E0994208D01A461368002BF9D10C6001605DF8044B70477C
:204880000C460B6813600023236004680C6001605DF8044B70470B680360F4E7026842B198
:2048A0008A4203D10BE0994204D01A461368002BF9D170471968116000221A607047134699
:2048C00012680260F8E700BF03682BB100201B680130002BFBD170471846704700B1006867
:2048E000704700BF10B504460021628840680AF03FFE23886288A06802FB03F2BDE81040C5
:2049000000210AF035BE00BF30B44588BDB141680B7863B14A1C002303E0147811460132E9
:204920002CB10133AB42F8D1002030BC704701220A700288806830BC03FB020070472846CD
:20494000F3E700BFF0B44588074682686DB18A420ED006880023324402E0914209D0224631
:204960000133AB4202EB0604F7D1FF20F0BC704700237A68D05C0028F8D00138D0547A6875
:20498000F0BCD05C704700BF83688B4208D84288008800FB023081422CBF0020012070470C
:2049A00000207047418849B143680020194413F8012B02B901308B42F9D1704708467047BF
:2049C0000023013A0160027143718371704700BF10B44479827903460079A21A0240904279
:2049E0000AD01A68012011555A79197902440A405A715DF8044B704700205DF8044B70473E
:204A00000346807959791A79091A114208D010B4411C1C680A40205C9A715DF8044B7047D0
:204A20004FF0FF30704700BF08B50448FFF75AFFBDE808400248FFF755BF00BF4C070020C7
:204A4000400700200148FFF7ADBF00BF4007002038B50F48FFF758FF044688B10D48FFF7BF
:204A600053FF0546206060B100F082FA05F19C01A5F8800005F1820000F05EFB204638BDD0
:204A800038BD21460248FFF75DFF284638BD00BF400700204C070020016801F182009C3178
:204AA00000F04ABB10B5044607482146FFF76CFF00B910BD21680548FFF744FF2146BDE83A
:204AC00010400148FFF73EBF400700204C07002010B5044609482146FFF756FF00B910BDD8
:204AE0002468B4F88010204600F006FB04F1820004F19C01BDE8104000F030BB4007002057
:204B0000036803EB4101B1F882007047F9B1EAB130B4CD684C68521B92FBF4F2541C18D0CE
:204B200053B90C68835C012101FA04F423EA04038354084630BC70470B68845C012101FAB5
:204B400003F32343835430BC084670471146084670470021EDE700BF38B50F4D002818BFD9
:204B600005460E48FFF754FE044650B12846211D00F06AFB40B92046FFF7B0FE044600288B
:204B8000F4D14FF0FF3038BD054B06489B68E41AA41000FB04F038BD141201001415002046
:204BA00058070020ABAAAAAA78B179B1C2684368891A91FBF3F14B1C06D0054A0368505CEF
:204BC000184100F0010070470020704708467047D815002010B10368072B0ED90C4A1368D5
:204BE000072B12D830B40B4D5C1C03608160146045F82300012030BC7047064A52F823301C
:204C00009842EBD18160012070470020704700BF08160020E8150020F8B507460C46184DA3
:204C2000184E1FB344B3FB687868E41A94FBF0F4611C04EB440421D0AB6803EB8400FFF771
:204C40004DFEB0B1AC68001B841006FB04F35A1C0FD07C68FA6804FB032454B13846214642
:204C6000FFF7A2FF0028DCD02046F8BD3846FFF735FE00242046F8BD2046E0E70020DEE7B6
:204C800058070020ABAAAAAA38B505461148FFF7BFFD044668B1104A104B9268841AA41045
:204CA00003FB04F4A5B1631C10D06B68EA6803FB042428462146FFF777FF08B1204638BDA9
:204CC00028462146BDE83840FFF7A6BF0024F0E72C46EEE71415002058070020ABAAAAAAD4
:204CE0002DE9F04F6C4D85B0002918BF0D46044628461F469146FFF72FFF431C064612D079
:204D00005CB36268E36802FB0636002130460AF02FFC2146614832460123FFF7F7FE30466D
:204D200005B0BDE8F08FDFF888814046FFF7ECFD0646A8B107465A483946FFF76BFDD8F814
:204D40000820584BB61AB610381D294603FB06F600F076FA0CB1731CD3D162680026D4E739
:204D60004846394606F0DEF900287ED0FFF7F4FE471C4ED0D8F808204B4B00EB400A12EBBA
:204D80008A07195C019744D000293BD1434BC2EB070A02930395019E5546DFF818B1A246F1
:204DA00014E084680CB33F4B03FB07F77A1C1BBF4168C2684FF0000901FB07294946FFF792
:204DC000F3FE01280BD0394B9B4510D05BF8040FAF100028E5D1334B03FB07F7F3E74846B5
:204DE000A047D8F80830019AD51AAF10F3E70199029A00232A48D3555446039D0F46FFF729
:204E00004DFD98E71E54019BC2EB030A234B0293C0E72348FFF7FCFC019030B34FF0000B40
:204E2000D946214F1F4E019802E0FFF757FDF0B1D8F80830C3EB000A4FEAAA0306FB03F373
:204E4000FA5C002AF1D11549CB5C0291DBB1D90748BF01325B10FAD1B9F1000F01D09345BA
:204E6000E3DDB2B193468146DFE7002657E7B9F1000FFAD0D8F80820084BCDF80490029389
:204E8000C2EB090A86E7B9F1000F02D0BBF1000FCBD001907EE700BF14120100D81500201B
:204EA00014150020ABAAAAAA041500200416002058070020E415002038B505460846FFF779
:204EC0004BFE85B1431C0CD06C68EB6804FB003428462146FFF768FE002814BF204600200C
:204EE00038BD0024F4E72C46F2E700BF70B505460C460023294622460548FFF707FE064664
:204F00002946224600230348FFF700FE304670BDD81500200415002003460A46024819462D
:204F20000123FFF7F3BD00BF0415002003460A46024819460023FFF7E9BD00BF04150020B6
:204F400088B189B1C2684368881A90FBF3F0431C08D0064B00EB40009B6813EB800002D0F3
:204F600004307047002070470846704758070020F8B50E4D0E4C2A7823881344802B01DD5C
:204F80000020F8BD06460B4F39460AF017FA0A4B29781B7870181944C9B2394422880AF002
:204FA0000DFA287823881844F8BD00BFFF240020E82400200C160020EA240020F0B4114BF0
:204FC000114F1B783E78114A33441288DBB213449BB21A18802A12DC013B9BB21AB2002A42
:204FE00008DB0B4C2518A15C013B9BB2A9541AB2511CF8D130443870F0BC012070470020F5
:20500000F0BC7047EA240020FF240020E82400200C160020084A138883420BDB10B4074C9F
:2050200080B221881B1A13800844208001205DF8044B704700207047E8240020EA24002034
:20504000014B1880704700BFE8240020044B054A1B78127804481344DBB21844704700BF0D
:20506000EA240020FF2400200C160020004870470C160020014B1888704700BFE8240020AE
:20508000054A064B10781B78054A03441088DBB2184480B2704700BFFF240020EA24002025
:2050A000E824002038B5094D094C00211A2209480AF05EFA2846214600F0C2F805F10800AF
:2050C0002146BDE8384000F0BBB800BF10250020141201002025002004480549054A00233D
:2050E00003800B801370FFF7DDBF00BFEA240020E8240020FF240020802928BF802170B5DB
:205100000C4606460849094A094D00230B8013702B80FFF7C7FF3146224606480AF04EF9F1
:205120002C80204670BD00BFEA240020FF240020E82400200C16002010B50C461A220549F1
:205140000AF03CF92046BDE81040034910220AF035B900BF2025002010250020034610B5D8
:205160000C461A22194605480AF028F92146BDE81040034810220AF021B900BF2025002009
:2051800010250020024B23F810100120704700BF20250020014B33F8100070472025002093
:2051A00008B5044B0D3803EBC00000F049F8012008BD00BF10250020024B0D3803EBC00085
:2051C000704700BF102500200148024900F03CB8182500201412010070B505460E480E46EE
:2051E000FFF716FB044660B1012D0CD01DB963680BB1984770B92046FFF770FB04460028A5
:20520000F2D1002070BDA368002BF4D0304698470028F0D070BD00BF8C160020054B10B584
:205220001B689847044B5B689847BDE81040034B5B68184788FA0000A41201005813010011
:2052400008220AF0BBB800BF08B508220AF084F8B0FA80F0400908BD08B50848FEF7B0FDC4
:205260000748FFF711FD40B1037A01465B0803720348FFF7D1FC0028F6D108BD4425002003
:205280006407002001460148FFF716BE6407002080B110B50446FBF707FF2368C01AB0F55C
:2052A000963F05D2207A032894BF0020012010BD002010BD00207047F8B5074614460E46B0
:2052C00059B3022900D0F8BD34483946FFF7F4FD0546002831D0FBF7E7FE2B7A2860234451
:2052E000102BA8BF10232B720C342846FFF7D0FFAA88002814BF5A234B2302FB03F24FEA86
:20530000C414A4B214BF0A21192104FB01232448A0FB03235B09AB80F8BD20483946FFF7B6
:20532000CBFD054648B1FBF7BFFE2B7A28602344102BA8BF10232B72D7E7394617480922E5
:205340000023FFF7CDFC05460028BCD0C38813B31BB26FF03B029342A8BF13466FF05802A4
:205360009342B8BF13464FF470625A3392FBF3F39BB2B3F5C07F28BF4FF4C073AB80FBF7C5
:2053800093FE2B7A28602344102BA8BF1023022E2B72AAD1A8E74FF48073EFE764070020A5
:2053A0001F85EB5138B505460420FFF7F3FE294684B21D48FFF780FD80B122B2B0F9061089
:2053C00002EB82025A23520003FB01221749D31781FB0212C3EB6212C28038BD0346294681
:2053E00011480922FFF77CFC0028F6D0C480C4B122B26FF03B039A42A8BF1A466FF0580148
:205400008A42B8BF0A464FF4706102F15A0391FBF3F39BB2B3F5C07F28BF4FF4C07383808F
:2054200038BD4FF48073FAE7640700201F85EB5110B50848FFF728FC044650B121460548C7
:20544000FFF754FD21460348FFF7E6FB04460028F4D110BD6407002010B500210548FFF7C4
:20546000B9FBBDE8104004484FF4E131034A0023FEF79ABC64070020442500205952000068
:20548000F8B5FBF711FE104F06463C4600250D20FFF792FE2146FFF7D7FE103420B90135D4
:2054A000102DF4D10020F8BD0720FFF773FE07EB05152B7B8342F5D1A868301AB0F5206FBC
:2054C0008CBF00200120F8BD50170020F8B5194F00243D460D20FFF76FFE2946FFF7B4FEA1
:2054E00018BB0134102C05F11005F3D112480F24013C07EB041600E0013C3146102209F004
:205500005DFF3046103E002CF6D10720FFF742FE3873FBF7C9FDB8600D20FFF74DFEBDE88D
:20552000F84001460348FFF78BBE002CEDD02846DEE700BF5017002040180020844618B1F5
:20554000084611461A466047704700BF30B591B0FFF77CFD0446FFF78DFD6A46014620466D
:2055600000F08AFA98B30446FFF754FD78B30C209DF81010FFF706FE9DF817308BB1BDF808
:205580001C5000F0E5F8854205D04FF6FF73BDF81C209A421BD19DF81700694600F080F902
:2055A000C8B10D2002A9FFF7FBFD9DF81530072033B14FF6FF71FFF7E5FD204611B030BD26
:2055C0009DF81A10FFF7DEFD204611B030BD4FF0FF3011B030BD69460E20FFF7E1FDE0E793
:2055E000F8B5054658B314464AB30C200E46A84700232074A3741EB3E37463750920A847FC
:20560000002701232376A07567740720A847A07600F09EF8E0830A20A847012816BF032364
:205620006776637600F094F8A0830B20A847012813D056B10223E37501232375F8BDF8BD45
:205640000820A8476675E074D8E70323E375637E022BF1D000232375F8BD0023E375F6E730
:2056600030B591B0054600F073F84FF6FF73984258D040226846002109F07AFF2D4B1A78F8
:2056800022B35DBBFFF7A0FD6A46C1B22A48FFF7A7FFFFF799FD00283CD0FF238DF80030C2
:2056A0008DF801300D20FFF787FD014602A8FFF7C7FDFFF7CBFC0E90FFF7DCFC0F9068466C
:2056C00000F0FEF80446CDB911B030BD01221A70FCF7D0FE194B1870002DD3D00720FFF71F
:2056E00059FD0028CED1154C2178F1B189B20720FFF748FD237801332370C3E7FFF75EFCF8
:2057000080B1FFF7B3FC0146684600F025F9204611B030BD0E20FFF74FFD01466846FFF741
:205720008FFDBFE74FF0FF30CEE7012319462370DDE700BF0125002095510000002500200A
:205740000120FFF78DBF00BF0020FFF789BF00BF014B1888704700BF70080020B8B1037A2A
:2057600030B4022B14D00378022B1DD00379F3B9447A14F0030418BF0124C37913F003036D
:2057800018BF012301B10C6002B1136030BC7047C579447A037965B1B4B1032D29D1032CDB
:2057A00031D0022C16D0D3B100231C46EAE70024E3E70CB9012B23D0002BF5D1023C012CCC
:2057C0008CBF00240124DDE72BB1032D11D123460024D7E7A3B90DB90123EFE70123022DC9
:2057E000ECD0032DF4D1A4F10204B4FA84F46409C8E7022DD5D1002CECD143B12346C1E758
:2058000001230024BEE7002BE8D00023E0E72346D4E700BF30B50D460446002183B02846A7
:20582000062209F0A5FE637DD9075CBF01232B70237E012B23D904F11000694601AAFFF7EC
:205840008DFF009B0BB10223EB70019B0BB102236B70E37D03F00303022B03D0032B0CBF3B
:2058600008230023AB70637E03F00303022B03D0032B0CBF082300232B7103B030BDE37D02
:205880009A0706D0637E9B0703D0E28BA38B9A4202D000232375CEE701232375CBE700BF55
:2058A00002280CBF022308230B4403E013F8012DFF2A03D18B42F9D10120704700207047F5
:2058C00000B583B06946FFF7A5FF9DF800309DF801109DF8022002330B449DF803101344F2
:2058E0009DF804200B449DF805001344184403B05DF804FB70B485784378047805F00102FC
:20590000C678150103F0010245EAC202037904F00704144306F0010244EA421203F0010306
:2059200042EA83130B704479437A8579C27904F0010444EA831405F00105037A02F003024A
:2059400044EA450040EA820203F0030342EA03134B7070BC704700BFF0B50C46074683B017
:205960006946FFF757FF07F110002146FFF7C2FF9DF80030012B02BFBB7E0320A3709DF850
:20598000013018BF0220022B2ED09DF802E0BEF1000F0ED0034600EB0E02D2B207EB0E01D6
:2059A00011F8016D5D1CE654EBB29342F8D17044C0B29DF80330022B20D09DF804E0BEF14F
:2059C000000F0FD003460EF1080200EB0E063A44F6B212F8015D591CE554CBB2B342F8D111
:2059E0007044C0B203B0F0BDBA8B431C2254BA8BDBB2120A0230E254C0B2C6E7FA8B431CAE
:205A00002254FA8BDBB2120A0230E254C0B2D4E72DE9F0470278437884B0C2F3001CC2F311
:205A2000401E02F00709C2F3C008C2F3801403F0010AC3F34007C3F38106C3F301150846EE
:205A40009B0901A90A228DF804908DF805808DF806C08DF807E08DF808408DF809A08DF872
:205A60000A708DF80B608DF80C508DF80D3009F0A5FC04B0BDE8F087012950DD2DE9F04111
:205A8000144686B00F4603A90546FFF7C1FF03A904F110000A2209F091FC9DF81130002B10
:205AA00039D0AE1C03A801A902AAFFF757FE9DF81380B8F1000F43D0029B002B34D072781E
:205AC00016F8023B03EB0223A383B8F1020F56D0B8F1030F3BD09DF81580B8F1000F27D0C3
:205AE000019BF3B1717816F8023B029A03EB01239BB2E383D2B1B8F1020F4AD0B8F1030FBF
:205B000031D0701B3B1A8742B8BF0020A663E36306B0BDE8F081AB78EE1CA376C2E700201A
:205B20007047A38BE383E6E7A383CEE7A383E2E704F108001C49FFF783FBA4F81E80E0E7AC
:205B400020461949FFF77CFBA4F81C80C3E706F108000346621E13F8011DB34202F8011F2E
:205B6000F9D10646B7E708363246E31D04F10F0012F8011D03F8011F8342F9D1C1E72046D7
:205B80000949FFF75DFB7378237016F8023B6370A1E704F108000449FFF752FB7378237234
:205BA00016F8023B6372ACE71412010030B504461A4A83B010680023019020468DF80030FE
:205BC0008DF80130FEF732FD10B1FE2003B030BD01A920460422FEF75FFD28B12046FEF7B1
:205BE00035FDFF2003B030BD204669460222FEF771FD05462046FEF729FD0DB1FF20E5E7A3
:205C00009DF80030C22B01D02846DFE79DF80100A0F11400B0FA80F04009D7E72812010036
:205C200030B5052383B08DF804300446FEF7FEFC40B9204601A90122FEF72EFD48B1204687
:205C4000FEF704FD002003B030BD9DF80730DB0708D520460DF107010122FEF73BFD00281F
:205C6000F3D0ECE72046FEF7F1FC012003B030BD10B5184C82B0002818BF04462378FF2B1C
:205C800003D02046FEF7C2FC10B1002002B010BD2046FEF7DBFCAB2320468DF80730FEF7A1
:205CA000C5FC48B920460DF107010122FEF7F4FC58B12046FEF7CAFC2046FFF777FF012889
:205CC000E4D02046FEF7AAFCDFE72046FFF7A8FFEFE700BF2C12010070B5174C002818BFEB
:205CE00004462046FFF79CFF054640B900252046FEF794FC002818BF0025284670BD2046EA
:205D0000FEF794FC06460028F0D12046B921FEF7A7FC60B92046FEF799FC0A262046FFF75C
:205D200045FF731E0028E2D013F0FF06F6D120463546FEF78BFCDAE72C12010010B5044679
:205D4000FFF796FF00B910BD2046BDE81040FFF7C3BF00BF10B4064A064C136820681168BE
:205D60008B42FAD11B0443EA10405DF8044B7047082009400C20094070B50D46C10782B03C
:205D800004461AD4A2070DD4630709D5104BADB21B6800955C680F4800210C220223A047B1
:205DA00002B070BD0A4AABB21268009356680948002102220123B047E6E7054AABB21268E4
:205DC0000021009356680B4602480122B047D9E7A401001000A00C4010B5084B04281B6874
:205DE0004FF03401DC6807BF4FF0C0421D234FF080521C230248A04710BD00BFA4010010E2
:205E000000A00C4070B5064600F076FB0546074A1368064C002BFBD0B0470123236005B111
:205E200070BDBDE8704000F06BBB00BF00800C4043F6060270B4038893421FD043F6070249
:205E4000934217D040F60202934201D070BC7047C67B4369002BF9D044F2380403F1140563
:205E600019681A4688B2A04203F1040309D0AB42F6D1EBE790F82460C369EBE7C36902266D
:205E8000E8E7C1F303400028E0D0B31E1C2B44D8DFE803F0374343322D43434328432343C0
:205EA000431E43434343434343434343434343430F00254B1B68C3F383430F2B42D0984233
:205EC000C4D221F4702141EA0343136070BC70471E4B1B68C3F38343EFE71D4B1B68C3F3E0
:205EE0008343EAE71B4B1B68C3F38343E5E71A4B1B68C3F38343E0E7184B1B68C3F30323ED
:205F0000DBE7174B1B68C3F383430F2BD7D121F4702141F48021116098E7114B1B68C3F37B
:205F200083430F2BCBD1053E192EF0D801200D4BB0400340002BEAD021F4702343F4E02300
:205F4000136083E7053EF1E7081100500411005000110050FC100050F810005020130050E3
:205F6000801300502104000210B9054B187070470449034B0020202208701A70704700BF4A
:205F800002620840006208402DE9F04107460E46904600F0B1FA084D2B68074C002BFBD021
:205FA000012347F80680236008B1BDE8F081BDE8F04100F0A5BA00BF00800C4038B50546BE
:205FC000284B0121284A19601368002BFCD0274AC021274B11601B689B070AD4254BA2F590
:205FE0007F321B68A2F5D572C3F3034343F0F0031370214A214B002111601C68204600F0A7
:206000000DFB2846214600F09FFC40F21D221C4B1B689BB2934212D81A4A13681268C3F3A2
:206020000363C2F30342CBB9911F012983BF023202F00F0212017022134913430B702046F1
:2060400000F04CFB114B02201B68DB68984707490F4B4020012208601A6038BD013BDBB219
:20606000E2E700BF101009409402224300600C40B03F0050AC3F005040100940B43F005032
:2060800014130050BC12005002600840A00100109404604238B51E4B00251C68631C08BF91
:2060A000002400F0CDFD1B481B491C4A012305600B60136000F016FD194B1B6823B1194B4C
:2060C00020461B68FFF77AFF174B0021174A19601368174923F07F6323F4702343F09C734F
:2060E00043F4803313600B68C3F30133012B04D0104A1368002BFCD138BD0B6823F04073EB
:2061000023F4403343F400320A600B60F0E700BF1C130050840460425C600C4008220443FF
:2061200080012843000120438C21084048200340040009400C0068420849094B094A1B68F1
:206140000878126840B2A2F5407202FB00F043F31003A3EB20108030001270470C1300502E
:2061600030500940285009402DE9F84F984B1B6813F0020407D09749974B984A082088712D
:206180001A60BDE8F88F0646FFF7D6FF944B1B681A179F0202F1010540F1B58003F040720A
:2061A000B2F1807F00F0BE808E4A11688E4AC1F3046112681529C2F3044788BF2039152F31
:2061C00000D9203F4A19152A00F3998012F10A0F80F2E88041F616716FF00902DFF824E2DE
:2061E000824DAEF80010296811F0030518BF0125490748BF45F002050EB145F00405754E30
:2062000096F90710411A042903DCB179A94200F0C780B0F10F0100F1BA8001EB01110C122D
:20622000072C00F2AC8000F0CA8004F10108DFF8D8E14FEA8808DFF8D4C1C644C444F046C8
:206240002402DEF800E0DCF800A015F0040CCEEB0A0A5FFA8AFB1CBFCAF3072EF34415F025
:20626000020E1CBFCAF30749CB4415F001097CD10C1B04FB0BF48034240AD8F800805FFA0B
:2062800088F1BCF1000F02D0C8F3072C6144BEF1000F02D0C8F3074E7144B9F1000F01D085
:2062A00001EB1861BA1A002A0C444FF03401C8BF5143DAB202FB01F24FF6FF71B2FBF4F3D7
:2062C0008B4228BF0B467F289AB2B2804BDC10F1800FB8BF802370DAF371B571444B1E2A18
:2062E00019683C48134631602BD81F238380414B3948414A002103601160BDE8F88F41F677
:20630000157115226AE7C0F13E02D210082AA8BF08229542B8BF154603F04072B2F1807FE9
:206320007FF442AF354A1168344AC1F3042112681529C2F3046788BF2039152F7FF642AF88
:206340003FE7B2F5007F28BF002230D35B08B3F5007F02F10102F9D229490F3B1B09114366
:2063600041EAC303C4E77F23B6E70BEB1A6A091B01FB0AF48034240A4FF001097DE7DFF844
:2063800090804FF4E064C446DFF888E059E705F0040C05F0020E05F00109DFF870806CE7BA
:2063A000B2889BE702F01F0141F4F85116E70F3A1209134BD20013439AE7C3B28CE7DFF86A
:2063C0005080DFF850E0C4464FF4E06439E700BF000009405018002030100940FDFDA4007E
:2063E000B43F0050B81200503C110050242208400820094008E7A480341009408813005019
:2064000000E7A4806E620840981300509C130050B8130050B413005038B5154B1C68A4B206
:2064200004B938BDFFF788FE124B93F90720904216DB9A880F49944210D34FF6FF700E4B1B
:206440000D681B68A41A02335B1B1F2B28BF1F235B08DC401444844228BF04468C8038BD99
:206460006FF07F029042B8BF1046D871E1E700BF341009405018002008200940194B1B6860
:2064800013B3194A116801F04062B2F1406F1BD016480268920717D4154A1268920713D4E5
:2064A00010B4144A0468126814F0050FC2F3035202F11C024FEA021207D0934202D224F0C0
:2064C000050404605DF8044B70479342FAD90A0158BF44F001044B01044B58BF44F0040403
:2064E0001C60EFE728500940B43F005000000940B03F0050AC3F0050EFF3108072B6704732
:20650000EFF3108062B6704701280AD018B1084B01221A607047074A136823F0050313606D
:206520007047044A136843F005031360704700BF8001044300000940064B1B68C3F30260BA
:20654000C3F3C162800040EA0220C3F381531843704700BF98130050064B1B68C3F30510A1
:20656000C3F3892200041B0340EA82509BB21843704700BF98130050F0B5234B1B68C3F337
:206580000467152F214B34D91B78203F03F01F03152B1ED81E4A002111601E4C1E496FF06C
:2065A0000106012010E0B242B8BF3246134403F01F0242F4F852BB420D68DFF85CE02280CE
:2065C0004FF0010C086008D0FA1A022AEBDD0222ECE7203B9F42DDD1F0BD0D4BDEF800204B
:2065E000CEF800C0DEF80020C3F800C0DEF80030F0BD1A7802F01F03152B01D9203BC9E726
:206600009F42C7D1F0BD00BF8813005006620840980020436C6208402C20094000F04073B1
:20662000B3F1807F70B504462BD0224B1B68C3F30463152B36D803EB24730133152B1DDC00
:2066400013F10A0FB8BF41F616732DDA1A491B4A0B8013681A4913F002030ABF194A44F046
:2066600040641360C4F3C063174AC4F3806483F0010384F001040B60146070BD41F6157372
:20668000E4E74FF6D8051149114A124E802333700D801370FFF770FF0F4B1B68C3F3042383
:2066A000152BC8D9203BC6E703F01F0343F4F853CCE700BFB81200506E620840000009406D
:2066C0000000204394042A430800204366620840156208402562084088130050F8B5C0F3FE
:2066E0008143012B2CD0022B2ED14F4B1B681B0702D44E4B40221A604D4A4FF400714D4B15
:2067000011601B68C0F38150C3F3C14343F03003012882F8883037D020D3022819D1042054
:206720000321FFF729FB47F61800434B434C1B68434903F03F03434A237008801368F8BD8D
:206740003C4B1B689A034BD53F4B4FF000421A60CBE704200221FFF70FFBE4E743F2BD76C1
:2067600004200121FFF708FB384D3948394B86240121394A2E60046019601368002BFCD024
:20678000344B00221A60CEE7FFF726FB044604202146FFF7F1FA0420FFF71EFBA042FAD17C
:2067A0002E4B2A4E18682A4C2A4B87B2C0F307450121294A3760256019601368002BFCD0A9
:2067C000274B244A1B68002111601B684FF06022000E072198471C4B4FF480621A609EE7E0
:2067E000194A20494FF4804414600A68C3F3033422F08F022243C3F3004442EAC4121A4C89
:206800000A602268C3F3032122F00F020A431749256822600A6803F0E70322F0E70213432B
:206820000A680B6061E700BFB03F005068A00C4080A00C408C1300506C1300500BB00C40B0
:2068400070B00C402C20094040A00C403C600C4040600C4044600C4084088C43A83F0050B5
:20686000B40100100C6008400B6008400A600840174B82031B68C3F38361C3F38F230ED4EC
:2068800040F30722002A0DDA5B0806D149084FF001030CBF19464FF6FF730132F4D143EAB7
:2068A00001407047FBD05B0043F00103B3F5803F4FEA410007D340F001010F2986BF4FF6D4
:2068C000FF730F210123013AEDD143EA014070475013005070B4194A194B11681B68C1F386
:2068E000035213F00103C1F303450ED012052B048CB2212842EA040243EA020384BF01F0FD
:2069000080410B43184670BC70470E4C246844F30326B2180DD40F2A0DDD4FF4700244F327
